:020000040800F2
:1000000000500020A50E0008F90D0008FF0D0008A3
:10001000050E00080B0E0008110E0008000000007D
:10002000000000000000000000000000170E0008A3
:10003000230E0008000000002F0E00083B0E0008F1
:10004000ED0E0008ED0E0008ED0E0008ED0E0008A4
:10005000ED0E0008ED0E0008ED0E0008ED0E000894
:10006000ED0E0008ED0E0008ED0E0008490E000828
:10007000ED0E0008ED0E0008ED0E0008ED0E000874
:10008000ED0E0008ED0E0008ED0E0008ED0E000864
:10009000ED0E0008ED0E0008ED0E0008ED0E000854
:1000A000ED0E0008ED0E0008ED0E0008ED0E000844
:1000B000ED0E00085D0E0008ED0E0008ED0E0008C4
:1000C000ED0E0008ED0E0008ED0E0008ED0E000824
:1000D000ED0E0008710E0008850E0008ED0E0008F8
:1000E000ED0E0008ED0E0008ED0E00080000000007
:1000F0000000000000000000000000000000000000
:0C01000000000000000000005FF808F1A3
:10010C0010B5054C237833B9044B13B10448AFF345
:10011C0000800123237010BD0C00002000000000A3
:10012C00C043000808B5034B1BB103490348AFF3A8
:10013C00008008BD0000000010000020C043000833
:10014C0080B500AF00F0CEFE00F017F800F042FBD7
:10015C0000F022FB00F07EF800F00AF900F0D4F871
:10016C0000F026F900F060F900F0BEF900F01EFA7C
:10017C0000F0B6FA00F0E2FAFEE780B594B000AFFA
:10018C0007F1280328220021184604F00BF907F187
:10019C00140300221A605A609A60DA601A613B1DDF
:1001AC0000221A605A609A60DA600923BB624FF42D
:1001BC008033FB6200233B630123BB6301233B645D
:1001CC0002237B644FF48033BB644FF4E013FB6475
:1001DC0007F12803184601F039FF0346002B14BF22
:1001EC0001230023DBB2002B01D000F079FB0F239D
:1001FC007B610223BB610023FB614FF480633B6294
:10020C0000237B6207F114030221184602F09EF9C9
:10021C000346002B14BF01230023DBB2002B01D0BB
:10022C0000F05EFB02237B604FF40043FB603B1D40
:10023C00184602F025FB0346002B14BF01230023B4
:10024C00DBB2002B01D000F04BFB00BF5037BD469A
:10025C0080BD000080B584B000AF3B1D00221A6049
:10026C005A609A60264B274A1A60254B4FF48072CD
:10027C009A60234B01221A73214B00221A75204BD2
:10028C004FF46022DA611E4B00225A601C4B022292
:10029C001A611B4800F088FE0346002B14BF012393
:1002AC000023DBB2002B01D000F01AFB00237B6093
:1002BC000123BB600023FB603B1D1946104800F076
:1002CC004BFF0346002B14BF01230023DBB2002B92
:1002DC0001D000F005FB0223BB603B1D194608480A
:1002EC0000F03AFF0346002B14BF01230023DBB2BE
:1002FC00002B01D000F0F4FA00BF1037BD4680BDD2
:10030C00280000200024014080B500AF154B164A90
:10031C001A60144B154A5A60124B00229A60114B0A
:10032C000022DA600F4B4FF480421A610D4B002211
:10033C005A610C4B00229A610A4B0022DA61094B7C
:10034C0000221A62074801F0FBFC0346002B14BF85
:10035C0001230023DBB2002B01D000F0C1FA00BF57
:10036C0080BD00BF9C00002000580040801A060091
:10037C0080B500AF0C4B0D4A1A600B4B00225A6033
:10038C00094B4FF47A729A60074801F01DFE034640
:10039C00002B14BF01230023DBB2002B01D000F093
:1003AC009FFA00BF80BD00BFF0000020003000406D
:1003BC0080B500AF1A4B1B4A1A60194B4FF482726E
:1003CC005A60174B00229A60154B0022DA60144BCE
:1003DC0000221A61124B00225A61114B4FF4007229
:1003EC009A610F4B0822DA610D4B00221A620C4BFA
:1003FC0000225A620A4B00229A62094B0A22DA62E4
:10040C00074802F0F3FA0346002B14BF0123002324
:10041C00DBB2002B01D000F063FA00BF80BD00BF3F
:10042C00FC0000200030014080B586B000AF07F121
:10043C00080300221A605A609A60DA603B46002278
:10044C001A605A60264B274A1A60254B47225A607D
:10045C00234B00229A60224B4FF6FF72DA60204B3E
:10046C0000221A611E4B00225A611D4B00229A6118
:10047C001B4802F03FFB0346002B14BF0123002353
:10048C00DBB2002B01D000F02BFA4FF48053BB6091
:10049C0007F108031946124802F074FE0346002BBC
:1004AC0014BF01230023DBB2002B01D000F018FA9B
:1004BC0000233B6000237B603B461946084803F051
:1004CC00E1FA0346002B14BF01230023DBB2002BFF
:1004DC0001D000F005FA00BF1837BD4680BD00BF43
:1004EC0054010020002C014080B586B000AF07F10C
:1004FC00100300221A605A603B4600221A605A60B0
:10050C009A60DA60274B284A1A60264B47225A60B9
:10051C00244B00229A60234B4FF6FF72DA60214B7A
:10052C0000221A611F4B00229A611E4802F080FBC8
:10053C000346002B14BF01230023DBB2002B01D098
:10054C0000F0CEF900233B6100237B6107F110031F
:10055C001946144803F096FA0346002B14BF0123E6
:10056C000023DBB2002B01D000F0BAF900233B6072
:10057C0001237B600023BB600023FB603B46002211
:10058C001946084802F0ABFC0346002B14BF0123AC
:10059C000023DBB2002B01D000F0A2F900BF18370A
:1005AC00BD4680BD9C0100200004004080B58AB08F
:1005BC0000AF07F1200300221A605A603B1D002295
:1005CC001A605A609A60DA601A615A619A61424BF9
:1005DC00424A1A60404B47225A603F4B00229A60B5
:1005EC003D4B44F62062DA603B4B00221A613A4BD9
:1005FC0000229A61384802F0CCFA0346002B14BF53
:10060C0001230023DBB2002B01D000F069F9002399
:10061C003B6200237B6207F1200319462E4803F04E
:10062C0031FA0346002B14BF01230023DBB2002B4D
:10063C0001D000F055F960237B604FF47A73BB60F6
:10064C000023FB6000237B613B1D002219462248DE
:10065C0002F0DAFC0346002B14BF01230023DBB2AB
:10066C00002B01D000F03CF93B1D042219461A481E
:10067C0002F0CAFC0346002B14BF01230023DBB29B
:10068C00002B01D000F02CF93B1D08221946124812
:10069C0002F0BAFC0346002B14BF01230023DBB28B
:1006AC00002B01D000F01CF93B1D0C2219460A4806
:1006BC0002F0AAFC0346002B14BF01230023DBB27B
:1006CC00002B01D000F00CF9034800F0C7FA00BF72
:1006DC002837BD4680BD00BFE40100200008004063
:1006EC0080B500AF134B144A1A60124B4FF41652DC
:1006FC005A60104B00229A600E4B0022DA600D4BB0
:10070C0000221A610B4B0C225A610A4B00229A618F
:10071C00084B0022DA61074803F024FA0346002B49
:10072C0014BF01230023DBB2002B01D000F0D8F85A
:10073C0000BF80BD2C0200200038014080B500AF06
:10074C00134B144A1A60124B4FF461425A60104B0F
:10075C0000229A600E4B0022DA600D4B00221A61C7
:10076C000B4B0C225A610A4B00229A61084B002257
:10077C00DA61074803F0F6F90346002B14BF012396
:10078C000023DBB2002B01D000F0AAF800BF80BD23
:10079C00700200200044004080B582B000AF0C4BCA
:1007AC005B690B4A43F001035361094B5B6903F02E
:1007BC0001037B607B68002200210B2000F0DDFE32
:1007CC000B2000F0F6FE00BF0837BD4680BD00BF11
:1007DC000010024080B588B000AF07F11003002272
:1007EC001A605A609A60DA60394B9B69384A43F058
:1007FC0010039361364B9B6903F01003FB60FB689D
:10080C00334B9B69324A43F020039361304B9B6915
:10081C0003F02003BB60BB682D4B9B692C4A43F053
:10082C00040393612A4B9B6903F004037B607B6890
:10083C00274B9B69264A43F008039361244B9B6921
:10084C0003F008033B603B6800224FF40051214841
:10085C0001F05EFA00224FF4C0411F4801F058FA33
:10086C0000224FF400411D4801F052FA4FF400539E
:10087C003B6101237B610023BB610223FB6107F118
:10088C0010031946134801F0BFF84FF4C0433B6105
:10089C0001237B610023BB610223FB6107F1100381
:1008AC0019460D4801F0B0F84FF400433B610123A9
:1008BC007B610023BB610223FB6107F11003194626
:1008CC00064801F0A1F800BF2037BD4680BD00BF2F
:1008DC000010024000100140000C014000080140D3
:1008EC0080B400AF72B600BFFEE7000080B485B0E4
:1008FC0000AF154B9B69144A43F001039361124BF3
:10090C009B6903F00103BB60BB680F4BDB690E4AAC
:10091C0043F08053D3610C4BDB6903F080537B6055
:10092C007B680A4B5B68FB60FB6823F0E063FB6051
:10093C00FB6843F00073FB60044AFB68536000BF24
:10094C001437BD4680BC70470010024000000140C7
:10095C0080B588B000AF786007F1100300221A60F0
:10096C005A609A60DA607B681B68294A93424AD1C4
:10097C00284B9B69274A43F400739361254B9B6971
:10098C0003F40073FB60FB68224B9B69214A43F024
:10099C00040393611F4B9B6903F00403BB60BB68AA
:1009AC0003233B6103237B6107F1100319461A48AB
:1009BC0001F02AF8194B1A4A1A60184B00225A6097
:1009CC00164B00229A60154B8022DA60134B4FF4C1
:1009DC0080721A61114B4FF480625A610F4B0022E6
:1009EC009A610E4B4FF40052DA610C4800F0FCFD9A
:1009FC000346002B01D0FFF773FF7B68074A1A628E
:100A0C00064A7B68536200BF2037BD4680BD00BFDD
:100A1C000024014000100240000801405800002052
:100A2C000800024080B588B000AF786007F1100371
:100A3C0000221A605A609A60DA607B681B68164A5A
:100A4C00934224D1154B9B69144A43F008039361DC
:100A5C00124B9B6903F00803FB60FB684FF4406387
:100A6C003B6112237B610323FB6107F110031946E1
:100A7C000B4800F0C9FF094BDB69084A43F48003BB
:100A8C00D361064BDB6903F48003BB60BB6800BF1A
:100A9C002037BD4680BD00BF00580040001002400A
:100AAC00000C014080B58AB000AF786007F11403E8
:100ABC0000221A605A609A60DA607B681B68224ACE
:100ACC0093423DD1214B9B69204A43F4805393615F
:100ADC001E4B9B6903F480533B613B691B4B9B6929
:100AEC001A4A43F008039361184B9B6903F00803FF
:100AFC00FB60FB6828237B610223BB6103233B6201
:100B0C0007F114031946124800F07EFF10237B6195
:100B1C000023BB610023FB6107F1140319460C4849
:100B2C0000F072FF0B4B5B687B627B6A43F0E06307
:100B3C007B627B6A43F001037B62064A7B6A5360EB
:100B4C0000BF2837BD4680BD003001400010024078
:100B5C00000C01400000014080B485B000AF78600B
:100B6C007B681B68094A93420BD1094B9B69084A65
:100B7C0043F400639361064B9B6903F40063FB60D1
:100B8C00FB6800BF1437BD4680BC7047002C014089
:100B9C000010024080B588B000AF786007F11003F8
:100BAC0000221A605A609A60DA607B681B68194AE6
:100BBC0093422BD1184BDB69174A43F00203D361E4
:100BCC00154BDB6903F00203FB60FB68124B9B695E
:100BDC00114A43F0040393610F4B9B6903F0040328
:100BEC00BB60BB6840233B6100237B610023BB617E
:100BFC0007F110031946094800F006FF00220021F6
:100C0C001D2000F0BAFC1D2000F0D3FC00BF2037E3
:100C1C00BD4680BD000400400010024000080140A9
:100C2C0080B485B000AF78607B681B68094A93423A
:100C3C000BD1094BDB69084A43F00403D361064B23
:100C4C00DB6903F00403FB60FB6800BF1437BD468F
:100C5C0080BC7047000800400010024080B588B08E
:100C6C0000AF786007F1100300221A605A609A6096
:100C7C00DA607B681B68104A934218D10F4B9B6952
:100C8C000E4A43F0080393610C4B9B6903F0080375
:100C9C00FB60FB684FF470733B6102237B610223A2
:100CAC00FB6107F110031946054800F0ADFE00BFCB
:100CBC002037BD4680BD00BF000800400010024038
:100CCC00000C014080B58AB000AF786007F11803C2
:100CDC0000221A605A609A60DA607B681B683F4A8F
:100CEC0093423AD13E4B9B693D4A43F48043936116
:100CFC003B4B9B6903F480437B617B69384B9B695D
:100D0C00374A43F004039361354B9B6903F00403AA
:100D1C003B613B694FF40073BB610223FB6103230E
:100D2C007B6207F1180319462E4800F06DFE4FF454
:100D3C008063BB610023FB6100233B6207F1180356
:100D4C001946284800F060FE00220021252000F002
:100D5C0014FC252000F02DFC3CE07B681B68224A2B
:100D6C00934237D11E4BDB691D4A43F40033D361E8
:100D7C001B4BDB6903F40033FB60FB68184B9B696E
:100D8C00174A43F004039361154B9B6903F004036A
:100D9C00BB60BB680423BB610223FB6103237B6242
:100DAC0007F1180319460F4800F02EFE0823BB610B
:100DBC000023FB6100233B6207F118031946094825
:100DCC0000F022FE00220021262000F0D6FB262077
:100DDC0000F0EFFB00BF2837BD4680BD0038014056
:100DEC0000100240000801400044004080B400AFF5
:100DFC00FEE780B400AFFEE780B400AFFEE780B43E
:100E0C0000AFFEE780B400AFFEE780B400AF00BFD8
:100E1C00BD4680BC704780B400AF00BFBD4680BCEF
:100E2C00704780B400AF00BFBD4680BC704780B532
:100E3C0000AF00F09DF800BF80BD000080B500AF92
:100E4C00024800F0DBFC00BF80BD00BF5800002052
:100E5C0080B500AF024801F03AFF00BF80BD00BF73
:100E6C009C01002080B500AF024802F0C9FE00BF13
:100E7C0080BD00BF2C02002080B500AF024802F0FC
:100E8C00BFFE00BF80BD00BF7002002080B400AF69
:100E9C0000BFBD4680BC70470C480D490D4A00236D
:100EAC0002E0D458C4500433C4188C42F9D30A4A13
:100EBC000A4C002301E013600432A242FBD3FFF77B
:100ECC00E5FF03F04BFAFFF73BF9704700000020F9
:100EDC000C000020084400080C000020B802002080
:100EEC00FEE7000080B500AF084B1B68074A43F0D3
:100EFC0010031360032000F035FB0F2000F008F8FE
:100F0C00FFF7F4FC0023184680BD00BF0020024010
:100F1C0080B582B000AF7860124B1A68124B1B7808
:100F2C0019464FF47A73B3FBF1F3B2FBF3F31846A3
:100F3C0000F04DFB0346002B01D001230EE07B6833
:100F4C000F2B0AD8002279684FF0FF3000F015FB08
:100F5C00064A7B681360002300E00123184608371B
:100F6C00BD4680BD000000200800002004000020C9
:100F7C0080B400AF054B1B781A46054B1B68134415
:100F8C00034A136000BFBD4680BC704708000020B8
:100F9C00B402002080B400AF024B1B681846BD465B
:100FAC0080BC7047B402002080B586B000AF78607A
:100FBC000023FB7500233B610023BB600023FB6017
:100FCC007B68002B01D10123BEE07B689B68002B62
:100FDC007B689B6A002B09D17B680022DA627B68F4
:100FEC00002283F824207868FFF7B2FC786800F0C0
:100FFC00ABF90346FB757B689B6A03F01003002B6F
:10100C0040F09980FB7D002B40F095807B689B6ABB
:10101C0023F4885323F0020343F002027B689A62A4
:10102C007B685A687B68DB691A437B681B7B5B00B7
:10103C001343BA681343BB607B689B68B3F5807F2E
:10104C0003D07B689B68012B02D14FF4807300E0C6
:10105C0000233A6913433B617B681B7D012B19D13B
:10106C007B681B7B002B09D17B689B69013B5A0376
:10107C003B69134343F400633B610BE07B689B6A61
:10108C0043F020027B689A627B68DB6A43F00102C2
:10109C007B68DA627B681B685B6823F469417B6858
:1010AC001B683A690A435A607B681B689A68284B2C
:1010BC0013407A681268B9680B4393607B689B682D
:1010CC00B3F5807F03D07B689B68012B04D17B68D0
:1010DC001B69013B1B05FB607B681B68DB6A23F407
:1010EC0070017B681B68FA680A43DA627B681B68CC
:1010FC009A68184B1340BA689A420BD17B6800224D
:10110C00DA627B689B6A23F0030343F001027B687D
:10111C009A6218E07B689B6A23F0120343F010027A
:10112C007B689A627B68DB6A43F001027B68DA6257
:10113C000123FB7507E07B689B6A43F010027B6818
:10114C009A620123FB75FB7D18461837BD4680BD9E
:10115C00FDF7E1FFFE0E1FFF80B485B000AF786095
:10116C0039600023FB730023BB607B6893F8243049
:10117C00012B01D10223DCE07B68012283F82420BF
:10118C003B685B68062B1CD87B681B68596B3B68FB
:10119C005A6813469B001344053B1F2202FA03F3C3
:1011AC00DB4319403B6818683B685A6813469B0040
:1011BC001344053B00FA03F27B681B680A435A632D
:1011CC003CE03B685B680C2B1CD87B681B68196B7C
:1011DC003B685A6813469B001344233B1F2202FAB8
:1011EC0003F3DB4319403B6818683B685A681346A5
:1011FC009B001344233B00FA03F27B681B680A43F1
:10120C001A631BE07B681B68D96A3B685A681346F3
:10121C009B001344413B1F2202FA03F3DB431940AA
:10122C003B6818683B685A6813469B001344413B63
:10123C0000FA03F27B681B680A43DA623B681B689E
:10124C00092B1CD97B681B68D9683B681A68134644
:10125C005B0013441E3B072202FA03F3DB431940E5
:10126C003B6898683B681A6813465B0013441E3B46
:10127C0000FA03F27B681B680A43DA6019E07B68AA
:10128C001B6819693B681A6813465B0013440722F4
:10129C0002FA03F3DB4319403B6898683B681A6811
:1012AC0013465B00134400FA03F27B681B680A4385
:1012BC001A613B681B68102B03D03B681B68112B11
:1012CC0032D17B681B681D4A934225D17B681B6811
:1012DC009B6803F40003002B26D17B681B689A687B
:1012EC007B681B6842F400029A603B681B68102BF9
:1012FC001AD1134B1B68134AA2FB03239A0C1346F7
:10130C009B0013445B00BB6002E0BB68013BBB600D
:10131C00BB68002BF9D107E07B689B6A43F0200285
:10132C007B689A620123FB737B68002283F824207C
:10133C00FB7B18461437BD4680BC70470024014027
:10134C000000002083DE1B4380B584B000AF7860C2
:10135C000023FB607B681B689B6803F00103012B77
:10136C002ED17B681B689A687B681B6822F001028F
:10137C009A60FFF70FFEF8601BE0FFF70BFE0246CA
:10138C00FB68D31A022B14D97B681B689B6803F08B
:10139C000103012B0DD17B689B6A43F010027B6823
:1013AC009A627B68DB6A43F001027B68DA62012394
:1013BC0007E07B681B689B6803F00103012BDCD002
:1013CC00002318461037BD4680BD000080B485B0A0
:1013DC0000AF78607B6803F00703FB600C4BDB68A5
:1013EC00BB60BA684FF6FF031340BB60FB681A0280
:1013FC00BB68134343F0BF6343F40033BB60044A40
:10140C00BB68D36000BF1437BD4680BC704700BFBB
:10141C0000ED00E080B400AF044BDB681B0A03F066
:10142C0007031846BD4680BC704700BF00ED00E0C6
:10143C0080B483B000AF0346FB7197F90730002BE3
:10144C000BDBFB7903F01F02064997F907305B09A8
:10145C00012000FA02F241F8232000BF0C37BD46F0
:10146C0080BC704700E100E080B483B000AF03465D
:10147C003960FB7197F90730002B0ADB3B68DAB255
:10148C000C4997F907301201D2B20B4483F80023B0
:10149C000AE03B68DAB20849FB7903F00F03043B1E
:1014AC001201D2B20B441A7600BF0C37BD4680BC79
:1014BC00704700BF00E100E000ED00E080B489B0AF
:1014CC0000AFF860B9607A60FB6803F00703FB615A
:1014DC00FB69C3F10703042B28BF0423BB61FB6921
:1014EC000433062B02D9FB69033B00E000237B612C
:1014FC004FF0FF32BB6902FA03F3DA43BB681A40C0
:10150C007B699A404FF0FF317B6901FA03F3D943B1
:10151C007B680B40134318462437BD4680BC70478C
:10152C0080B582B000AF78607B68013BB3F1807FFF
:10153C0001D301230FE00A4A7B68013B53600F2162
:10154C004FF0FF30FFF790FF054B00229A60044BE1
:10155C0007221A60002318460837BD4680BD00BF1D
:10156C0010E000E080B582B000AF78607868FFF7DB
:10157C002DFF00BF0837BD4680BD80B586B000AFDB
:10158C000346B9607A60FB7300237B61FFF742FF6F
:10159C0078617A68B9687869FFF790FF024697F925
:1015AC000F3011461846FFF75FFF00BF1837BD46D6
:1015BC0080BD80B582B000AF0346FB7197F9073050
:1015CC001846FFF735FF00BF0837BD4680BD80B514
:1015DC0082B000AF78607868FFF7A2FF0346184628
:1015EC000837BD4680BD000080B485B000AF786080
:1015FC000023FB607B68002B01D1012343E07B6857
:10160C001B681A46224B1344224AA2FB03231B09D4
:10161C009A007B681A647B681F4ADA637B68022233
:10162C0083F821207B681B681B68FB60FB6823F434
:10163C007F5323F03003FB607B685A687B689B68A0
:10164C001A437B68DB681A437B681B691A437B6807
:10165C005B691A437B689B691A437B68DB6913439C
:10166C00FA681343FB607B681B68FA681A607B6836
:10167C0000229A637B68012283F821207B68002278
:10168C0083F82020002318461437BD4680BC7047D1
:10169C00F8FFFDBFCDCCCCCC0000024080B485B0AF
:1016AC0000AF78600023FB737B6893F82130022B2A
:1016BC0008D07B6804229A637B68002283F8202080
:1016CC00012320E07B681B681A687B681B6822F08A
:1016DC000E021A607B681B681A687B681B6822F014
:1016EC0001021A607B681A6C7B68DB6B012101FAC2
:1016FC0002F25A607B68012283F821207B68002269
:10170C0083F82020FB7B18461437BD4680BC7047FD
:10171C0080B584B000AF78600023FB737B6893F8CE
:10172C002130022B05D07B6804229A630123FB73C2
:10173C0051E07B681B681A687B681B6822F00E02FC
:10174C001A607B681B681A687B681B6822F00102B0
:10175C001A607B681B68224A934229D07B681B68FD
:10176C00204A934222D07B681B681F4A93421AD0AE
:10177C007B681B681D4A934212D07B681B681C4A0D
:10178C0093420AD07B681B681A4A934202D14FF4E9
:10179C0080130EE04FF080730BE04FF4803308E0C1
:1017AC004FF4805305E04FF4807302E0102300E007
:1017BC000123114A53607B68012283F821207B6846
:1017CC00002283F820207B685B6B002B03D07B68A6
:1017DC005B6B78689847FB7B18461037BD4680BD1D
:1017EC00080002401C00024030000240440002404D
:1017FC00580002406C0002400000024080B584B0EA
:10180C0000AF78607B68DB6B1B68FB607B681B68D8
:10181C001B68BB607B681B6C04229A40FB681340FE
:10182C00002B4FD0BB6803F00403002B4AD07B681D
:10183C001B681B6803F02003002B07D17B681B6817
:10184C001A687B681B6822F004021A607B681B68AC
:10185C00664A934229D07B681B68654A934222D022
:10186C007B681B68634A93421AD07B681B68624A88
:10187C00934212D07B681B68604A93420AD07B6803
:10188C001B685F4A934202D14FF480030EE04FF085
:10189C0080630BE04FF4802308E04FF4804305E0B5
:1018AC004FF4806302E0402300E00423554A536068
:1018BC007B68DB6A002B00F094807B68DB6A7868BD
:1018CC0098478EE07B681B6C02229A40FB681340A1
:1018DC00002B56D0BB6803F00203002B51D07B6861
:1018EC001B681B6803F02003002B0BD17B681B6863
:1018FC001A687B681B6822F00A021A607B68012256
:10190C0083F821207B681B68384A934229D07B6876
:10191C001B68374A934222D07B681B68354A934236
:10192C001AD07B681B68344A934212D07B681B68C0
:10193C00324A93420AD07B681B68314A934202D1E7
:10194C004FF400130EE04FF000730BE04FF4003334
:10195C0008E04FF4005305E04FF4007302E020233D
:10196C0000E00223274A53607B68002283F8202082
:10197C007B689B6A002B34D07B689B6A786898479D
:10198C002FE07B681B6C08229A40FB681340002BED
:10199C0028D0BB6803F00803002B23D07B681B689E
:1019AC001A687B681B6822F00E021A607B681A6C3E
:1019BC007B68DB6B012101FA02F25A607B68012221
:1019CC009A637B68012283F821207B68002283F8CC
:1019DC0020207B681B6B002B04D07B681B6B78680A
:1019EC00984700BF00BF1037BD4680BD08000240BD
:1019FC001C000240300002404400024058000240EB
:101A0C006C0002400000024080B48BB000AF7860E4
:101A1C00396000237B6200233B6269E101227B6A0F
:101A2C0002FA03F3FB613B681B68FA691340BB6164
:101A3C00BA69FB699A4240F058813B685B689A4AE4
:101A4C0093425ED0984A934275D8984A934258D0A4
:101A5C00964A93426FD8964A934252D0944A9342F4
:101A6C0069D8944A93424CD0924A934263D8924A92
:101A7C00934246D0904A93425DD8122B2AD8122B0F
:101A8C0059D801A252F823F00F1B0008E91A0008DC
:101A9C00FB1A00083D1B0008431B0008431B0008F1
:101AAC00431B0008431B0008431B0008431B000892
:101ABC00431B0008431B0008431B0008431B000882
:101ACC00431B0008431B0008431B0008F11A0008C5
:101ADC00051B0008794A934213D02CE03B68DB6865
:101AEC003B6229E03B68DB6804333B6224E03B68E3
:101AFC00DB6808333B621FE03B68DB680C333B62FE
:101B0C001AE03B689B68002B02D104233B6213E074
:101B1C003B689B68012B05D108233B627B68FA6903
:101B2C001A6109E008233B627B68FA695A6103E099
:101B3C0000233B6200E000BFBB69FF2B01D87B6830
:101B4C0001E07B6804337B61BB69FF2B02D87B6AA5
:101B5C009B0002E07B6A083B9B003B617B691A6837
:101B6C000F213B6901FA03F3DB431A40396A3B69E5
:101B7C0001FA03F31A437B691A603B685B6803F054
:101B8C008053002B00F0B1804D4B9B694C4A43F0C5
:101B9C00010393614A4B9B6903F00103BB60BB6873
:101BAC00484A7B6A9B08023352F82330FB607B6AFD
:101BBC0003F003039B000F2202FA03F3DB43FA68E2
:101BCC001340FB607B68404A934213D07B683F4ACA
:101BDC0093420DD07B683E4A934207D07B683D4AC6
:101BEC00934201D1032306E0042304E0022302E024
:101BFC00012300E000237A6A02F003029200934072
:101C0C00FA681343FB602F497B6A9B080233FA681E
:101C1C0041F823203B685B6803F48033002B06D02B
:101C2C002D4B1A682C49BB6913430B6006E02A4BF9
:101C3C001A68BB69DB43284913400B603B685B683F
:101C4C0003F40033002B06D0234B5A682249BB699E
:101C5C0013434B6006E0204B5A68BB69DB431E49BB
:101C6C0013404B603B685B6803F48013002B06D079
:101C7C00194B9A681849BB6913438B6006E0164BE5
:101C8C009A68BB69DB43144913408B603B685B6803
:101C9C0003F40013002B21D00F4BDA680E49BB69FB
:101CAC001343CB6021E000BF000032100000311064
:101CBC000000221000002110000012100000111072
:101CCC00001002400000014000080140000C0140DF
:101CDC000010014000140140000401400B4BDA6875
:101CEC00BB69DB4309491340CB607B6A01337B62E0
:101CFC003B681A687B6A22FA03F3002B7FF48EAEE2
:101D0C0000BF00BF2C37BD4680BC704700040140AB
:101D1C0080B483B000AF78600B467B8013467B7039
:101D2C007B78002B03D07A887B681A6103E07B8870
:101D3C001A047B681A6100BF0C37BD4680BC704723
:101D4C0080B584B000AF78607B68002B01D1012393
:101D5C002BE17B6893F83D30DBB2002B06D17B681E
:101D6C00002283F83C207868FEF75CFE7B68242216
:101D7C0083F83D207B681B681A687B681B6822F01F
:101D8C0001021A607B681B681A687B681B6842F446
:101D9C0000421A607B681B681A687B681B6822F417
:101DAC0000421A6000F026FDF8607B685B68814A8F
:101DBC00934207D8FB68804A934294BF01230023C7
:101DCC00DBB206E0FB687D4A934294BF01230023FB
:101DDC00DBB2002B01D00123E7E0FB68784AA2FBC1
:101DEC0003239B0CBB607B681B685B6823F03F0183
:101DFC007B681B68BA680A435A607B681B681B6A5D
:101E0C0023F03F017B685B686A4A934202D8BB6847
:101E1C00013309E0BB684FF4967202FB03F3694A85
:101E2C00A2FB03239B0901337A6812680B431362EC
:101E3C007B681B68DB6923F44F4222F0FF027B684E
:101E4C005B685C498B4219D8FB68591E7B685B68E0
:101E5C005B00B1FBF3F3591C40F6FC730B40002BF9
:101E6C000AD0FB68591E7B685B685B00B1FBF3F31F
:101E7C000133C3F30B0351E004234FE07B689B68F1
:101E8C00002B11D1FB68581E7B6859680B465B0010
:101E9C000B44B0FBF3F30133C3F30B03002B0CBF68
:101EAC0001230023DBB212E0FB68581E7B685968E3
:101EBC000B469B000B4499000B44B0FBF3F301332E
:101ECC00C3F30B03002B0CBF01230023DBB2002B4D
:101EDC0001D0012322E07B689B68002B0ED1FB68AC
:101EEC00581E7B6859680B465B000B44B0FBF3F340
:101EFC000133C3F30B0343F400430FE0FB68581E9C
:101F0C007B6859680B469B000B4499000B44B0FB53
:101F1C00F3F30133C3F30B0343F4404379680968CB
:101F2C001343CB617B681B681B6823F0C0017B6883
:101F3C00DA697B681B6A1A437B681B680A431A6060
:101F4C007B681B689B6823F4034323F0FF037A68C8
:101F5C0011697A68D26811437A6812680B439360EE
:101F6C007B681B68DB6823F0FF017B685A697B6820
:101F7C009B691A437B681B680A43DA607B681B68A1
:101F8C001A687B681B6842F001021A607B680022A9
:101F9C001A647B68202283F83D207B6800221A6338
:101FAC007B68002283F83E20002318461037BD467C
:101FBC0080BD00BFA08601007F841E00FF083D008D
:101FCC0083DE1B43D34D621080B584B000AF7860C4
:101FDC007B68002B01D1012334E07B681B684CF635
:101FEC00CC421A607B681B6845F255521A607B68BC
:101FFC001B687A6852685A607B681B687A689268BA
:10200C009A60FEF7C7FFF8600FE0FEF7C3FF0246C9
:10201C00FB68D31A272B08D97B681B68DB6803F095
:10202C000303002B01D003230CE07B681B68DB68E7
:10203C0003F00303002BE8D17B681B684AF6AA2245
:10204C001A60002318461037BD4680BD80B586B097
:10205C0000AF78607B68002B01D101236CE27B68B8
:10206C001B6803F00103002B00F08780924B5B6828
:10207C0003F00C03042B0CD08F4B5B6803F00C03A8
:10208C00082B12D18C4B5B6803F48033B3F5803F83
:10209C000BD1894B1B6803F40033002B6CD07B688D
:1020AC005B68002B68D1012346E27B685B68B3F563
:1020BC00803F06D1804B1B687F4A43F4803313600A
:1020CC002EE07B685B68002B0CD17B4B1B687A4A3B
:1020DC0023F480331360784B1B68774A23F48023F6
:1020EC0013601DE07B685B68B3F5A02F0CD1724BBD
:1020FC001B68714A43F4802313606F4B1B686E4A54
:10210C0043F4803313600BE06B4B1B686A4A23F477
:10211C0080331360684B1B68674A23F48023136079
:10212C007B685B68002B13D0FEF734FF386108E046
:10213C00FEF730FF02463B69D31A642B01D9032307
:10214C00FAE15D4B1B6803F40033002BF0D014E074
:10215C00FEF720FF386108E0FEF71CFF02463B69E2
:10216C00D31A642B01D90323E6E1534B1B6803F408
:10217C000033002BF0D100E000BF7B681B6803F03C
:10218C000203002B63D04C4B5B6803F00C03002B59
:10219C000BD0494B5B6803F00C03082B1CD1464B4E
:1021AC005B6803F48033002B16D1434B1B6803F0A0
:1021BC000203002B05D07B681B69012B01D0012386
:1021CC00BAE13D4B1B6823F0F8027B685B69DB00CE
:1021DC00394913430B603AE07B681B69002B20D014
:1021EC00364B01221A60FEF7D5FE386108E0FEF787
:1021FC00D1FE02463B69D31A022B01D903239BE182
:10220C002D4B1B6803F00203002BF0D02A4B1B68EC
:10221C0023F0F8027B685B69DB00274913430B60F2
:10222C0015E0264B00221A60FEF7B4FE386108E078
:10223C00FEF7B0FE02463B69D31A022B01D90323E9
:10224C007AE11D4B1B6803F00203002BF0D17B6875
:10225C001B6803F00803002B3AD07B689B69002BAA
:10226C0019D0174B01221A60FEF794FE386108E072
:10227C00FEF790FE02463B69D31A022B01D90323C9
:10228C005AE10D4B5B6A03F00203002BF0D00120E6
:10229C0000F0D8FA1CE00A4B00221A60FEF77AFE16
:1022AC0038610FE0FEF776FE02463B69D31A022B2B
:1022BC0008D9032340E100BF001002400000424255
:1022CC00800442429E4B5B6A03F00203002BE9D16F
:1022DC007B681B6803F00403002B00F0A68000232E
:1022EC00FB75974BDB6903F08053002B0DD1944B9E
:1022FC00DB69934A43F08053D361914BDB6903F064
:10230C008053BB60BB680123FB758E4B1B6803F4C9
:10231C008073002B18D18B4B1B688A4A43F4807353
:10232C001360FEF737FE386108E0FEF733FE024615
:10233C003B69D31A642B01D90323FDE0814B1B6845
:10234C0003F48073002BF0D07B68DB68012B06D183
:10235C007B4B1B6A7A4A43F0010313622DE07B68C6
:10236C00DB68002B0CD1764B1B6A754A23F00103FA
:10237C001362734B1B6A724A23F0040313621CE052
:10238C007B68DB68052B0CD16D4B1B6A6C4A43F0E8
:10239C00040313626A4B1B6A694A43F0010313621C
:1023AC000BE0674B1B6A664A23F001031362644B14
:1023BC001B6A634A23F0040313627B68DB68002BFF
:1023CC0015D0FEF7E7FD38610AE0FEF7E3FD0246A3
:1023DC003B69D31A41F28832934201D90323ABE013
:1023EC00574B1B6A03F00203002BEED014E0FEF7F0
:1023FC00D1FD38610AE0FEF7CDFD02463B69D31AE8
:10240C0041F28832934201D9032395E04C4B1B6A6D
:10241C0003F00203002BEED1FB7D012B05D1484BC1
:10242C00DB69474A23F08053D3617B68DB69002B5F
:10243C0000F08180424B5B6803F00C03082B61D0E9
:10244C007B68DB69022B46D13F4B00221A60FEF7FA
:10245C00A1FD386108E0FEF79DFD02463B69D31AE9
:10246C00022B01D9032367E0354B1B6803F0007383
:10247C00002BF0D17B681B6AB3F5803F08D1304B41
:10248C005B6823F400327B689B682D4913434B60D7
:10249C002B4B5B6823F474127B68196A7B685B6A4C
:1024AC000B43274913434B60274B01221A60FEF75D
:1024BC0071FD386108E0FEF76DFD02463B69D31AE9
:1024CC00022B01D9032337E01D4B1B6803F000736B
:1024DC00002BF0D02FE01C4B00221A60FEF75AFDA7
:1024EC00386108E0FEF756FD02463B69D31A022B11
:1024FC0001D9032320E0124B1B6803F00073002B5F
:10250C00F0D118E07B68DB69012B01D1012313E0CA
:10251C000B4B5B68FB60FB6803F480327B681B6AC7
:10252C009A4206D1FB6803F470127B685B6A9A428C
:10253C0001D0012300E0002318461837BD4680BDAA
:10254C0000100240007000406000424280B584B030
:10255C0000AF786039607B68002B01D10123D0E09B
:10256C006A4B1B6803F007033A689A4210D9674B11
:10257C001B6823F0070265493B6813430B60634BF0
:10258C001B6803F007033A689A4201D00123B8E0B4
:10259C007B681B6803F00203002B20D07B681B6850
:1025AC0003F00403002B05D0594B5B68584A43F4E5
:1025BC00E06353607B681B6803F00803002B05D0B5
:1025CC00534B5B68524A43F460535360504B5B6807
:1025DC0023F0F0027B689B684D4913434B607B688A
:1025EC001B6803F00103002B40D07B685B68012B58
:1025FC0007D1474B1B6803F40033002B15D1012383
:10260C007FE07B685B68022B07D1414B1B6803F0B2
:10261C000073002B09D1012373E03D4B1B6803F0C1
:10262C000203002B01D101236BE0394B5B6823F0D3
:10263C0003027B685B68364913434B60FEF7AAFCC8
:10264C00F8600AE0FEF7A6FC0246FB68D31A41F2DA
:10265C008832934201D9032353E02D4B5B6803F07E
:10266C000C027B685B689B009A42EBD1274B1B6882
:10267C0003F007033A689A4210D2244B1B6823F0EC
:10268C00070222493B6813430B60204B1B6803F085
:10269C0007033A689A4201D0012332E07B681B6839
:1026AC0003F00403002B08D0194B5B6823F4E062A1
:1026BC007B68DB68164913434B607B681B6803F02F
:1026CC000803002B09D0124B5B6823F460527B6823
:1026DC001B69DB000E4913434B6000F021F80246E6
:1026EC000B4B5B681B0903F00F030A49CB5C22FA06
:1026FC0003F3094A1360094B1B681846FEF708FCE4
:10270C00002318461037BD4680BD00BF0020024094
:10271C0000100240E84300080000002004000020E4
:10272C0090B48AB000AF2A4B3C1D0FCB84E80F004D
:10273C0040F201233B800023FB610023BB6100239B
:10274C007B6200237B6100233B62224B5B68FB6155
:10275C00FB6903F00C03042B02D0082B03D02DE0F3
:10276C001D4B3B622DE0FB699B0C03F00F0307F143
:10277C002802134413F8243C7B61FB6903F4803377
:10278C00002B13D0134B5B685B0C03F0010307F1B8
:10279C002802134413F8283CBB617B690E4A02FBE8
:1027AC0003F2BB69B2FBF3F37B6204E07B690B4A77
:1027BC0002FB03F37B627B6A3B6202E0064B3B62EB
:1027CC0000BF3B6A18462837BD4690BC704700BF17
:1027DC00D84300080010024000127A0000093D00A6
:1027EC0080B400AF024B1B681846BD4680BC7047D6
:1027FC000000002080B500AFFFF7F2FF0246054B4A
:10280C005B681B0A03F007030349CB5C22FA03F352
:10281C00184680BD00100240F843000880B500AF98
:10282C00FFF7DEFF0246054B5B68DB0A03F007038C
:10283C000349CB5C22FA03F3184680BD001002401A
:10284C00F843000880B485B000AF78600A4B1B6871
:10285C000A4AA2FB03235B0A7A6802FB03F3FB60C0
:10286C0000BFFB685A1EFA60002BF9D100BF00BFF5
:10287C001437BD4680BC704700000020D34D621059
:10288C0080B586B000AF786000233B610023FB600D
:10289C007B681B6803F00103002B7DD00023FB75C4
:1028AC004F4BDB6903F08053002B0DD14C4BDB6994
:1028BC004B4A43F08053D361494BDB6903F080539F
:1028CC00BB60BB680123FB75464B1B6803F480732C
:1028DC00002B18D1434B1B68424A43F4807313609E
:1028EC00FEF758FB386108E0FEF754FB02463B69E3
:1028FC00D31A642B01D903236DE03A4B1B6803F404
:10290C008073002BF0D0364B1B6A03F44073FB60D2
:10291C00FB68002B2ED07B685B6803F44073FA686D
:10292C009A4227D02E4B1B6A23F44073FB602E4B2C
:10293C0001221A602C4B00221A60294AFB68136290
:10294C00FB6803F00103002B14D0FEF723FB386166
:10295C000AE0FEF71FFB02463B69D31A41F28832AC
:10296C00934201D9032336E01D4B1B6A03F002038B
:10297C00002BEED01A4B1B6A23F440727B685B6809
:10298C00174913430B62FB7D012B05D1144BDB69FB
:10299C00134A23F08053D3617B681B6803F0020356
:1029AC00002B08D00E4B5B6823F440427B689B687D
:1029BC000B4913434B607B681B6803F01003002B1F
:1029CC0008D0074B5B6823F480027B68DB68044902
:1029DC0013434B60002318461837BD4680BD00BF1B
:1029EC0000100240007000404004424280B582B0AA
:1029FC0000AF78607B68002B01D1012376E07B6807
:102A0C005B6A002B08D17B685B68B3F5827F09D0C9
:102A1C007B680022DA6105E07B6800221A617B6822
:102A2C0000225A617B6800229A627B6893F85130CD
:102A3C00DBB2002B06D17B68002283F8502078682B
:102A4C00FEF730F87B68022283F851207B681B6804
:102A5C001A687B681B6822F040021A607B685B680E
:102A6C0003F482727B689B6803F404431A437B680B
:102A7C00DB6803F400631A437B681B6903F00203F1
:102A8C001A437B685B6903F001031A437B689B69FB
:102A9C0003F400731A437B68DB6903F038031A43B1
:102AAC007B681B6A03F0800342EA03017B689B6A24
:102ABC0003F400527B681B680A431A607B689B69AD
:102ACC001A0C7B681B6802F004025A607B681B6856
:102ADC00DA697B681B6822F40062DA617B68002289
:102AEC005A657B68012283F8512000231846083769
:102AFC00BD4680BD80B582B000AF78607B68002B8E
:102B0C0001D1012341E07B6893F83D30DBB2002B0F
:102B1C0006D17B68002283F83C207868FEF71CF80D
:102B2C007B68022283F83D207B681A687B6804333B
:102B3C001946104600F018FC7B68012283F84620E9
:102B4C007B68012283F83E207B68012283F83F20BA
:102B5C007B68012283F840207B68012283F84120A6
:102B6C007B68012283F842207B68012283F8432092
:102B7C007B68012283F844207B68012283F845207E
:102B8C007B68012283F83D20002318460837BD4698
:102B9C0080BD80B582B000AF78607B68002B01D11E
:102BAC00012341E07B6893F83D30DBB2002B06D16A
:102BBC007B68002283F83C207868FEF731F87B684C
:102BCC00022283F83D207B681A687B68043319461F
:102BDC00104600F0C9FB7B68012283F846207B6815
:102BEC00012283F83E207B68012283F83F207B681A
:102BFC00012283F840207B68012283F841207B6806
:102C0C00012283F842207B68012283F843207B68F1
:102C1C00012283F844207B68012283F845207B68DD
:102C2C00012283F83D20002318460837BD4680BD9D
:102C3C0080B582B000AF78607B68002B01D1012396
:102C4C0041E07B6893F83D30DBB2002B06D17B680A
:102C5C00002283F83C207868FDF79CFF7B680222F9
:102C6C0083F83D207B681A687B680433194610464C
:102C7C0000F07AFB7B68012283F846207B680122F6
:102C8C0083F83E207B68012283F83F207B68012279
:102C9C0083F840207B68012283F841207B68012265
:102CAC0083F842207B68012283F843207B68012251
:102CBC0083F844207B68012283F845207B6801223D
:102CCC0083F83D20002318460837BD4680BD80B5EB
:102CDC0082B000AF78607B681B681B6903F002034D
:102CEC00022B22D17B681B68DB6803F00203022BEA
:102CFC001BD17B681B686FF002021A617B68012292
:102D0C001A777B681B689B6903F00303002B03D0C5
:102D1C00786800F00DFB05E0786800F000FB78683F
:102D2C0000F00FFB7B6800221A777B681B681B691D
:102D3C0003F00403042B22D17B681B68DB6803F0CF
:102D4C000403042B1BD17B681B686FF004021A610F
:102D5C007B6802221A777B681B689B6903F44073BB
:102D6C00002B03D0786800F0E3FA05E0786800F0F7
:102D7C00D6FA786800F0E5FA7B6800221A777B684F
:102D8C001B681B6903F00803082B22D17B681B68A6
:102D9C00DB6803F00803082B1BD17B681B686FF002
:102DAC0008021A617B6804221A777B681B68DB694E
:102DBC0003F00303002B03D0786800F0B9FA05E0A8
:102DCC00786800F0ACFA786800F0BBFA7B680022F7
:102DDC001A777B681B681B6903F01003102B22D138
:102DEC007B681B68DB6803F01003102B1BD17B681E
:102DFC001B686FF010021A617B6808221A777B68D7
:102E0C001B68DB6903F44073002B03D0786800F077
:102E1C008FFA05E0786800F082FA786800F091FA91
:102E2C007B6800221A777B681B681B6903F001031F
:102E3C00012B0ED17B681B68DB6803F00103012BAF
:102E4C0007D17B681B686FF001021A61786800F08B
:102E5C005DFA7B681B681B6903F08003802B0ED125
:102E6C007B681B68DB6803F08003802B07D17B68D1
:102E7C001B686FF080021A61786800F06AFE7B684C
:102E8C001B681B6903F04003402B0ED17B681B6849
:102E9C00DB6803F04003402B07D17B681B686FF0A5
:102EAC0040021A61786800F055FA7B681B681B6950
:102EBC0003F02003202B0ED17B681B68DB6803F02A
:102ECC002003202B07D17B681B686FF020021A614E
:102EDC00786800F035FE00BF0837BD4680BD80B570
:102EEC0084B000AFF860B9607A60FB6893F83C304E
:102EFC00012B01D1022382E0FB68012283F83C20E4
:102F0C007B68002B1BD1FB681868BB681968BB6811
:102F1C005A68BB68DB6800F011FCFB681B689A6997
:102F2C00FB681B6822F00C029A61FB681B689969AC
:102F3C00BB689A68FB681B680A439A615AE07B6815
:102F4C00042B1CD1FB681868BB681968BB685A68ED
:102F5C00BB68DB6800F07AFCFB681B689A69FB684D
:102F6C001B6822F440629A61FB681B689969BB6814
:102F7C009B681A02FB681B680A439A613AE07B68FB
:102F8C00082B1BD1FB681868BB681968BB685A68AA
:102F9C00BB68DB6800F0C5FCFB681B68DA69FB6882
:102FAC001B6822F00C02DA61FB681B68D969BB68EC
:102FBC009A68FB681B680A43DA611BE0FB681868B7
:102FCC00BB681968BB685A68BB68DB6800F0E4FC36
:102FDC00FB681B68DA69FB681B6822F44062DA61E3
:102FEC00FB681B68D969BB689B681A02FB681B6885
:102FFC000A43DA61FB68002283F83C200023184660
:10300C001037BD4680BD000080B584B000AFF860BD
:10301C00B9607A60FB6893F83C30012B01D1022334
:10302C00ACE0FB68012283F83C207B680C2B00F29F
:10303C009F8001A252F823F0793000087D310008FE
:10304C007D3100087D310008B93000087D31000861
:10305C007D3100087D310008FB3000087D3100080F
:10306C007D3100087D3100083B310008FB681B688E
:10307C00B968184600F0DAF9FB681B689A69FB68B6
:10308C001B6842F008029A61FB681B689A69FB682E
:10309C001B6822F004029A61FB681B689969BB6883
:1030AC001A69FB681B680A439A6162E0FB681B683B
:1030BC00B968184600F020FAFB681B689A69FB682F
:1030CC001B6842F400629A61FB681B689A69FB6892
:1030DC001B6822F480629A61FB681B689969BB6863
:1030EC001B691A02FB681B680A439A6141E0FB6882
:1030FC001B68B968184600F069FAFB681B68DA6946
:10310C00FB681B6842F00802DA61FB681B68DA692D
:10311C00FB681B6822F00402DA61FB681B68D96942
:10312C00BB681A69FB681B680A43DA6121E0FB681B
:10313C001B68B968184600F0B3FAFB681B68DA69BB
:10314C00FB681B6842F40062DA61FB681B68DA6991
:10315C00FB681B6822F48062DA61FB681B68D96922
:10316C00BB681B691A02FB681B680A43DA6100E042
:10317C0000BFFB68002283F83C2000231846103760
:10318C00BD4680BD80B584B000AF786039607B6887
:10319C0093F83C30012B01D10223B3E07B68012270
:1031AC0083F83C207B68022283F83D207B681B68F7
:1031BC009B68FB60FB6823F07703FB60FB6823F4E0
:1031CC007F43FB607B681B68FA689A603B681B68EE
:1031DC00B3F5005F3ED0B3F5005F00F28780B3F526
:1031EC00805F00F08580B3F5805F7FD8702B1AD09C
:1031FC00702B7BD8602B50D0602B77D8502B3CD0C9
:10320C00502B73D8402B58D0402B6FD8302B64D018
:10321C00302B6BD8202B60D0202B67D8002B5CD0A8
:10322C00102B5AD062E07B6818683B6899683B6841
:10323C005A683B68DB6800F005FC7B681B689B6880
:10324C00FB60FB6843F07703FB607B681B68FA68E4
:10325C009A604EE07B6818683B6899683B685A68CE
:10326C003B68DB6800F0EEFB7B681B689A687B6848
:10327C001B6842F480429A603BE07B6818683B68AC
:10328C0059683B68DB681A4600F0B2FA7B681B6829
:10329C005021184600F0BCFB2BE07B6818683B689B
:1032AC0059683B68DB681A4600F00CFB7B681B68AE
:1032BC006021184600F0ACFB1BE07B6818683B688B
:1032CC0059683B68DB681A4600F092FA7B681B6809
:1032DC004021184600F09CFB0BE07B681A683B68A9
:1032EC001B681946104600F093FB02E000BF00E09B
:1032FC0000BF7B68012283F83D207B68002283F8A5
:10330C003C20002318461037BD4680BD80B483B0E6
:10331C0000AF786000BF0C37BD4680BC704780B4EE
:10332C0083B000AF786000BF0C37BD4680BC7047DF
:10333C0080B483B000AF786000BF0C37BD4680BC52
:10334C00704780B483B000AF786000BF0C37BD46C7
:10335C0080BC704780B483B000AF786000BF0C377E
:10336C00BD4680BC7047000080B485B000AF78606B
:10337C0039607B681B68FB607B68294A93420BD0E1
:10338C007B68B3F1804F07D07B68264A934203D009
:10339C007B68254A934208D1FB6823F07003FB60DD
:1033AC003B685B68FA681343FB607B681C4A93427A
:1033BC000BD07B68B3F1804F07D07B68194A9342DE
:1033CC0003D07B68184A934208D1FB6823F44073FE
:1033DC00FB603B68DB68FA681343FB60FB6823F017
:1033EC0080023B685B691343FB607B68FA681A6078
:1033FC003B689A687B68DA623B681A687B689A62F9
:10340C007B68074A934203D13B681A697B681A634D
:10341C007B6801225A6100BF1437BD4680BC7047DF
:10342C00002C0140000400400008004080B487B02C
:10343C0000AF786039607B681B6A23F001027B68FF
:10344C001A627B681B6A7B617B685B683B617B688B
:10345C009B69FB60FB6823F07003FB60FB6823F047
:10346C000303FB603B681B68FA681343FB607B69D2
:10347C0023F002037B613B689B687A6913437B6191
:10348C007B681C4A93420CD17B6923F008037B6157
:10349C003B68DB687A6913437B617B6923F0040327
:1034AC007B617B68134A934211D13B6923F480738F
:1034BC003B613B6923F400733B613B685B693A6990
:1034CC0013433B613B689B693A6913433B617B68DF
:1034DC003A695A607B68FA689A613B685A687B68FB
:1034EC005A637B687A691A6200BF1C37BD4680BC80
:1034FC00704700BF002C014080B487B000AF7860EB
:10350C0039607B681B6A23F010027B681A627B6847
:10351C001B6A7B617B685B683B617B689B69FB60BA
:10352C00FB6823F4E043FB60FB6823F44073FB600F
:10353C003B681B681B02FA681343FB607B6923F032
:10354C0020037B613B689B681B017A6913437B6199
:10355C007B681D4A93420DD17B6923F080037B610C
:10356C003B68DB681B017A6913437B617B6923F041
:10357C0040037B617B68144A934213D13B6923F46B
:10358C0080633B613B6923F400633B613B685B698F
:10359C009B003A6913433B613B689B699B003A690A
:1035AC0013433B617B683A695A607B68FA689A619D
:1035BC003B685A687B689A637B687A691A6200BFB9
:1035CC001C37BD4680BC7047002C014080B487B0CE
:1035DC0000AF786039607B681B6A23F480727B686B
:1035EC001A627B681B6A7B617B685B683B617B68EA
:1035FC00DB69FB60FB6823F07003FB60FB6823F066
:10360C000303FB603B681B68FA681343FB607B6930
:10361C0023F400737B613B689B681B027A6913433C
:10362C007B617B681D4A93420DD17B6923F4006357
:10363C007B613B68DB681B027A6913437B617B69A6
:10364C0023F480637B617B68144A934213D13B69FA
:10365C0023F480533B613B6923F400533B613B688B
:10366C005B691B013A6913433B613B689B691B0116
:10367C003A6913433B617B683A695A607B68FA6824
:10368C00DA613B685A687B68DA637B687A691A622C
:10369C0000BF1C37BD4680BC704700BF002C0140EA
:1036AC0080B487B000AF786039607B681B6A23F404
:1036BC0080527B681A627B681B6A3B617B685B6823
:1036CC007B617B68DB69FB60FB6823F4E043FB6098
:1036DC00FB6823F44073FB603B681B681B02FA68B1
:1036EC001343FB603B6923F400533B613B689B68CD
:1036FC001B033A6913433B617B680F4A934209D120
:10370C007B6923F480437B613B685B699B017A692D
:10371C0013437B617B687A695A607B68FA68DA616B
:10372C003B685A687B681A647B683A691A6200BF06
:10373C001C37BD4680BC7047002C014080B487B05C
:10374C0000AFF860B9607A603B60FB681B6A23F0DD
:10375C000102FB681A62FB689B697B61FB681B6A50
:10376C003B61FB681F4A93420BD0FB68B3F1804F5F
:10377C0007D0FB681C4A934203D0FB681B4A934258
:10378C0001D1012300E00023002B08D07B6923F03A
:10379C0003037B617A697B6813437B6103E07B697C
:1037AC0043F001037B617B6923F0F0037B613B6891
:1037BC001B01DBB27A6913437B613B6923F00A037B
:1037CC003B61BB6803F00A033A6913433B61FB6836
:1037DC007A699A61FB683A691A6200BF1C37BD4668
:1037EC0080BC7047002C01400004004000080040E1
:1037FC0080B487B000AFF860B9607A60FB681B6A70
:10380C007B61FB681B6A23F00102FB681A62FB6890
:10381C009B693B613B6923F0F0033B617B681B01B7
:10382C003A6913433B617B6923F00A037B617A6934
:10383C00BB6813437B61FB683A699A61FB687A69E0
:10384C001A6200BF1C37BD4680BC704780B487B07D
:10385C0000AFF860B9607A603B60FB681B6A23F0CC
:10386C001002FB681A62FB689B697B61FB681B6A30
:10387C003B617B6923F440737B617B681B027A6933
:10388C0013437B617B6923F470437B613B681B03AF
:10389C009BB27A6913437B613B6923F0A0033B61C4
:1038AC00BB681B0103F0A0033A6913433B61FB683F
:1038BC007A699A61FB683A691A6200BF1C37BD4687
:1038CC0080BC704780B487B000AFF860B9607A6094
:1038DC00FB681B6A23F01002FB681A62FB689B6989
:1038EC007B61FB681B6A3B617B6923F470437B61E2
:1038FC007B681B037A6913437B613B6923F0A0034C
:10390C003B61BB681B013A6913433B61FB687A69F5
:10391C009A61FB683A691A6200BF1C37BD4680BCCD
:10392C00704780B487B000AFF860B9607A603B60D4
:10393C00FB681B6A23F48072FB681A62FB68DB6904
:10394C007B61FB681B6A3B617B6923F003037B6132
:10395C007A697B6813437B617B6923F0F0037B619D
:10396C003B681B01DBB27A6913437B613B6923F42F
:10397C0000733B61BB681B0203F400733A69134389
:10398C003B61FB687A69DA61FB683A691A6200BFCD
:10399C001C37BD4680BC704780B487B000AFF86060
:1039AC00B9607A603B60FB681B6A23F48052FB6849
:1039BC001A62FB68DB697B61FB681B6A3B617B6994
:1039CC0023F440737B617B681B027A6913437B6130
:1039DC007B6923F470437B613B681B039BB27A6960
:1039EC0013437B613B6923F400533B61BB681B03AE
:1039FC0003F400533A6913433B61FB687A69DA615B
:103A0C00FB683A691A6200BF1C37BD4680BC704720
:103A1C0080B485B000AF786039607B689B68FB60D0
:103A2C00FB6823F07003FB603A68FB68134343F0B8
:103A3C000703FB607B68FA689A6000BF1437BD46C9
:103A4C0080BC704780B487B000AFF860B9607A6012
:103A5C003B60FB689B687B617B6923F47F437B61E4
:103A6C003B681A027B681A43BB6813437A69134399
:103A7C007B61FB687A699A6000BF1C37BD4680BCCD
:103A8C007047000080B485B000AF786039607B6807
:103A9C0093F83C30012B01D1022346E07B680122D4
:103AAC0083F83C207B68022283F83D207B681B68EE
:103ABC005B68FB607B681B689B68BB60FB6823F0E2
:103ACC007003FB603B681B68FA681343FB607B6800
:103ADC001B68FA685A607B681B68164A93420ED0C2
:103AEC007B681B68B3F1804F09D07B681B68124A56
:103AFC00934204D07B681B68104A93420CD1BB687C
:103B0C0023F08003BB603B685B68BA681343BB60FF
:103B1C007B681B68BA689A607B68012283F83D2039
:103B2C007B68002283F83C20002318461437BD46DE
:103B3C0080BC7047002C014000040040000800408D
:103B4C0080B483B000AF786000BF0C37BD4680BC3A
:103B5C00704780B483B000AF786000BF0C37BD46AF
:103B6C0080BC704780B582B000AF78607B68002B5A
:103B7C0001D101233FE07B6893F83D30DBB2002B91
:103B8C0006D17B68002283F83C207868FDF79AF810
:103B9C007B68242283F83D207B681B68DA687B688D
:103BAC001B6822F40052DA60786800F049FB7B68ED
:103BBC001B681A697B681B6822F490421A617B6847
:103BCC001B685A697B681B6822F02A025A617B6861
:103BDC001B68DA687B681B6842F40052DA607B6809
:103BEC0000221A647B68202283F83D207B68202207
:103BFC0083F83E20002318460837BD4680BD0000E0
:103C0C0080B58AB000AF78607B681B681B687B62EC
:103C1C007B681B68DB683B627B681B685B69FB61CC
:103C2C000023BB6100237B617B6A03F00F03BB6144
:103C3C00BB69002B0DD17B6A03F02003002B08D04D
:103C4C003B6A03F02003002B03D0786800F04FFA96
:103C5C007BE1BB69002B00F0B180FB6903F0010331
:103C6C00002B05D13B6A03F49073002B00F0A68067
:103C7C007B6A03F00103002B0AD03B6A03F48073C8
:103C8C00002B05D07B681B6C43F001027B681A6427
:103C9C007B6A03F00403002B0AD0FB6903F00103D9
:103CAC00002B05D07B681B6C43F002027B681A6406
:103CBC007B6A03F00203002B0AD0FB6903F00103BB
:103CCC00002B05D07B681B6C43F004027B681A64E4
:103CDC007B6A03F00803002B0FD03B6A03F0200330
:103CEC00002B04D1FB6903F00103002B05D07B688A
:103CFC001B6C43F008027B681A647B681B6C002BFE
:103D0C0000F01E817B6A03F02003002B07D03B6A76
:103D1C0003F02003002B02D0786800F0E8F97B68F0
:103D2C001B685B6903F04003002B14BF01230023C5
:103D3C00DBB27B617B681B6C03F00803002B02D1A8
:103D4C007B69002B31D0786800F02AF97B681B68FE
:103D5C005B6903F04003002B23D07B681B685A6916
:103D6C007B681B6822F040025A617B689B6B002BBE
:103D7C0013D07B689B6B764A5A637B689B6B1846A7
:103D8C00FDF7C6FC0346002B16D07B689B6B5B6B68
:103D9C007A68926B104698470EE0786800F0ECF861
:103DAC000AE0786800F0E8F806E0786800F0E4F8DB
:103DBC007B6800221A64C3E000BFC1E07B681B6B08
:103DCC00012B40F0A1807B6A03F01003002B00F064
:103DDC009B803B6A03F01003002B00F095800023BE
:103DEC00FB607B681B681B68FB607B681B685B68FF
:103DFC00FB60FB687B681B685B6903F04003002B6E
:103E0C004ED07B689B6B1B685B683B823B8A002BAC
:103E1C0000F098807B689B8D3A8A9A4280F0928061
:103E2C007B683A8ADA857B689B6B9B69202B2BD04D
:103E3C007B681B68DA687B681B6822F48072DA6026
:103E4C007B681B685A697B681B6822F001025A6107
:103E5C007B681B685A697B681B6822F040025A61B8
:103E6C007B68202283F83E207B6800221A637B68E3
:103E7C001B68DA687B681B6822F01002DA607B68CA
:103E8C009B6B1846FDF70AFC7B689A8D7B68DB8D73
:103E9C009BB2D31A9BB21946786800F076F851E0C1
:103EAC007B689A8D7B68DB8D9BB2D31A7B827B6897
:103EBC00DB8D9BB2002B47D07B8A002B44D07B68D8
:103ECC001B68DA687B681B6822F49072DA607B6886
:103EDC001B685A697B681B6822F001025A617B6877
:103EEC00202283F83E207B6800221A637B681B68C3
:103EFC00DA687B681B6822F01002DA607B8A19464C
:103F0C00786800F042F81FE07B6A03F08003002B16
:103F1C0008D03B6A03F08003002B03D0786800F0D4
:103F2C007FF812E07B6A03F04003002B0DD03B6A54
:103F3C0003F04003002B08D0786800F0C0F804E0D0
:103F4C0000BF02E000BF00E000BF2837BD4680BDC7
:103F5C000540000880B483B000AF786000BF0C3718
:103F6C00BD4680BC704780B483B000AF786000BFA2
:103F7C000C37BD4680BC704780B483B000AF78600E
:103F8C0000BF0C37BD4680BC704780B483B000AF17
:103F9C0078600B467B8000BF0C37BD4680BC7047F9
:103FAC0080B483B000AF78607B681B68DA687B688C
:103FBC001B6822F49072DA607B681B685A697B6814
:103FCC001B6822F001025A617B681B6B012B07D125
:103FDC007B681B68DA687B681B6822F01002DA6069
:103FEC007B68202283F83E207B6800221A6300BF86
:103FFC000C37BD4680BC704780B584B000AF78608C
:10400C007B685B6AFB60FB680022DA85FB68002238
:10401C00DA84F868FFF7B0FF00BF1037BD4680BDEB
:10402C0080B485B000AF78607B6893F83D30DBB22C
:10403C00212B3ED17B689B68B3F5805F14D17B68E4
:10404C001B69002B10D17B681B6AFB60FB681B880B
:10405C001A467B681B68C2F308025A607B681B6AAD
:10406C009A1C7B681A6208E07B681B6A591C7A6888
:10407C0011621A787B681B685A607B68DB8C9BB278
:10408C00013B9BB27A681946D184002B0FD17B6817
:10409C001B68DA687B681B6822F08002DA607B6838
:1040AC001B68DA687B681B6842F04002DA60002308
:1040BC0000E0022318461437BD4680BC704780B51B
:1040CC0082B000AF78607B681B68DA687B681B681D
:1040DC0022F04002DA607B68202283F83D20786869
:1040EC00FFF738FF002318460837BD4680BD80B562
:1040FC0086B000AF78607B6893F83E30DBB2222B41
:10410C0040F099807B689B68B3F5805F17D17B6822
:10411C001B69002B13D100237B617B689B6A3B617D
:10412C007B681B685B689BB2C3F308039AB23B695C
:10413C001A807B689B6A9A1C7B689A6226E07B6873
:10414C009B6A7B6100233B617B689B68B3F5805F56
:10415C0007D07B689B68002B0AD17B681B69002BFE
:10416C0006D17B681B685B68DAB27B691A7008E061
:10417C007B681B685B68DBB203F07F03DAB27B6998
:10418C001A707B689B6A5A1C7B689A627B68DB8D11
:10419C009BB2013B9BB27A681946D185002B48D162
:1041AC007B681B68DA687B681B6822F02002DA6087
:1041BC007B681B68DA687B681B6822F48072DA60A3
:1041CC007B681B685A697B681B6822F001025A6184
:1041DC007B68202283F83E207B681B6B012B23D14C
:1041EC007B6800221A637B681B68DA687B681B6833
:1041FC0022F01002DA607B681B681B6803F0100366
:10420C00102B0AD10023FB607B681B681B68FB60CA
:10421C007B681B685B68FB60FB687B689B8D194641
:10422C007868FFF7B2FE02E07868FFF79CFE002387
:10423C0002E0002300E0022318461837BD4680BD7B
:10424C0080B584B000AF78607B681B681B6923F471
:10425C0040517B68DA687B681B680A431A617B688B
:10426C009A687B681B691A437B685B691343BB6064
:10427C007B681B68DB6823F4B05323F00C037A686B
:10428C001268B9680B43D3607B681B685B6923F4C5
:10429C0040717B689A697B681B680A435A617B682A
:1042AC001B682C4A934203D1FEF7B8FAF86002E07F
:1042BC00FEF7A0FAF860FA6813469B0013449A00C4
:1042CC001A447B685B689B00B2FBF3F3224AA2FBA7
:1042DC0003235B091901FA6813469B0013449A00E7
:1042EC001A447B685B689B00B2FBF3F21A4BA3FB8E
:1042FC0002035B09642000FB03F3D31A1B01323366
:10430C00154AA2FB03235B0903F0F0031944FA6876
:10431C0013469B0013449A001A447B685B689B000D
:10432C00B2FBF3F20C4BA3FB02035B09642000FB12
:10433C0003F3D31A1B013233074AA2FB03235B0995
:10434C0003F00F027B681B680A449A6000BF1037A9
:10435C00BD4680BD003801401F85EB5170B500266D
:10436C000C4D0D4C641BA410A64209D100F022F890
:10437C0000260A4D0A4C641BA410A64205D170BD40
:10438C0055F8043B98470136EEE755F8043B98473F
:10439C000136F2E70044000800440008004400081D
:1043AC000444000803460244934200D1704703F8CA
:1043BC00011BF9E7F8B500BFF8BC08BC9E46704776
:0C43CC00F8B500BFF8BC08BC9E46704766
:1043D80002030405060708090A0B0C0D0E0F10103E
:1043E800000000000000000001020304060708099D
:0843F8000000000001020304B3
:04440000310100087E
:044404000D0100089E
:0C4408000024F40010000000010000007F
:0400000508000EA53C
:00000001FF
