:020000040800F2
:1000000000500020A13B0008F53A0008FB3A000828
:10001000013B0008073B00080D3B00080000000002
:10002000000000000000000000000000133B00087A
:100030001F3B0008000000002B3B0008373B000876
:10004000E93B0008E93B0008E93B0008E93B000800
:10005000E93B0008E93B0008E93B0008E93B0008F0
:10006000E93B0008E93B0008E93B0008453B000884
:10007000E93B0008E93B0008E93B0008E93B0008D0
:10008000E93B0008E93B0008E93B0008E93B0008C0
:10009000E93B0008E93B0008E93B0008E93B0008B0
:1000A000E93B0008E93B0008E93B0008E93B0008A0
:1000B000E93B0008593B0008E93B0008E93B000820
:1000C000E93B0008E93B0008E93B0008E93B000880
:1000D000E93B00086D3B0008813B0008E93B000854
:1000E000E93B0008E93B0008E93B0008000000008C
:1000F0000000000000000000000000000000000000
:0C01000000000000000000005FF808F1A3
:1001100010B5054C237833B9044B13B10448AFF341
:1001200000800123237010BD70000020000000003B
:100130003882000808B5034B1BB103490348AFF3ED
:10014000008008BD00000000740000203882000814
:1001500081F0004102E000BF83F0004330B54FEA78
:1001600041044FEA430594EA050F08BF90EA020FE5
:100170001FBF54EA000C55EA020C7FEA645C7FEA78
:10018000655C00F0E2804FEA5454D4EB5555B8BF9B
:100190006D420CDD2C4480EA020281EA030382EA0C
:1001A000000083EA010180EA020281EA0303362D9E
:1001B00088BF30BD11F0004F4FEA01314FF4801C71
:1001C0004CEA113102D0404261EB410113F0004F83
:1001D0004FEA03334CEA133302D0524263EB43033A
:1001E00094EA050F00F0A780A4F10104D5F1200ED8
:1001F0000DDB02FA0EFC22FA05F2801841F1000133
:1002000003FA0EF2801843FA05F359410EE0A5F106
:1002100020050EF1200E012A03FA0EFC28BF4CF037
:10022000020C43FA05F3C01851EBE37101F00045ED
:1002300007D54FF0000EDCF1000C7EEB00006EEBFA
:100240000101B1F5801F1BD3B1F5001F0CD3490884
:100250005FEA30004FEA3C0C04F101044FEA4452DB
:1002600012F5800F80F09A80BCF1004F08BF5FEA62
:10027000500C50F1000041EB045141EA050130BD42
:100280005FEA4C0C404141EB0101013C28BFB1F554
:10029000801FE9D291F0000F04BF01460020B1FA9F
:1002A00081F308BF2033A3F10B03B3F120020CDA72
:1002B0000C3208DD02F1140CC2F10C0201FA0CF050
:1002C00021FA02F10CE002F11402D8BFC2F1200CB5
:1002D00001FA02F120FA0CFCDCBF41EA0C0190406B
:1002E000E41AA2BF01EB0451294330BD6FEA0404B4
:1002F0001F3C1CDA0C340EDC04F11404C4F120029F
:1003000020FA04F001FA02F340EA030021FA04F3B0
:1003100045EA030130BDC4F10C04C4F1200220FA07
:1003200002F001FA04F340EA0300294630BD21FA45
:1003300004F0294630BD94F0000F83F4801306BF0B
:1003400081F480110134013D4EE77FEA645C18BFFF
:100350007FEA655C29D094EA050F08BF90EA020F96
:1003600005D054EA000C04BF1946104630BD91EA8E
:10037000030F1EBF0021002030BD5FEA545C05D191
:100380004000494128BF41F0004130BD14F58004D0
:100390003CBF01F5801130BD01F0004545F0FE4144
:1003A00041F470014FF0000030BD7FEA645C1ABF79
:1003B000194610467FEA655C1CBF0B46024650EAB0
:1003C000013406BF52EA033591EA030F41F40021DC
:1003D00030BD00BF90F0000F04BF0021704730B562
:1003E0004FF4806404F132044FF000054FF0000137
:1003F00050E700BF90F0000F04BF0021704730B5F8
:100400004FF4806404F1320410F0004548BF4042CC
:100410004FF000013EE700BF42004FEAE2014FEA21
:1004200031014FEA02701FBF12F07F4393F07F4FFC
:1004300081F06051704732F07F4208BF704793F0FF
:100440007F4F04BF41F40021704730B54FF4607412
:1004500001F0004521F000411CE700BF50EA010215
:1004600008BF704730B54FF000050AE050EA0102BE
:1004700008BF704730B511F0004502D5404261EB2E
:1004800041014FF4806404F132045FEA915C3FF46F
:10049000D8AE4FF003025FEADC0C18BF03325FEA0C
:1004A000DC0C18BF033202EBDC02C2F1200300FABD
:1004B00003FC20FA02F001FA03FE40EA0E0021FAE2
:1004C00002F11444BDE600BF70B54FF0FF0C4CF4D0
:1004D000E06C1CEA11541DBF1CEA135594EA0C0F82
:1004E00095EA0C0F00F0DEF82C4481EA030621EABD
:1004F0004C5123EA4C5350EA013518BF52EA0335F8
:1005000041F4801143F4801338D0A0FB02CE4FF0A9
:100510000005E1FB02E506F00042E0FB03E54FF0D9
:100520000006E1FB03569CF0000F18BF4EF0010ED1
:10053000A4F1FF04B6F5007F64F5407404D25FEACD
:100540004E0E6D4146EB060642EAC62141EA555180
:100550004FEAC52040EA5E504FEACE2EB4F1FD0CC2
:1005600088BFBCF5E06F1ED8BEF1004F08BF5FEA40
:10057000500E50F1000041EB045170BD06F00046F2
:1005800046EA010140EA020081EA0301B4EB5C049F
:10059000C2BFD4EB0C0541EA045170BD41F4801197
:1005A0004FF0000E013C00F3AB8014F1360FDEBFBC
:1005B000002001F0004170BDC4F10004203C35DA98
:1005C0000C341BDC04F11404C4F1200500FA05F31B
:1005D00020FA04F001FA05F240EA020001F00042BC
:1005E00021F0004110EBD37021FA04F642EB060132
:1005F0005EEA430E08BF20EAD37070BDC4F10C045C
:10060000C4F1200500FA04F320FA05F001FA04F21F
:1006100040EA020001F0004110EBD37041F100010B
:100620005EEA430E08BF20EAD37070BDC4F1200516
:1006300000FA05F24EEA020E20FA04F301FA05F27E
:1006400043EA020321FA04F001F0004121FA04F226
:1006500020EA020000EBD3705EEA430E08BF20EAF6
:10066000D37070BD94F0000F0FD101F00046400030
:1006700041EB010111F4801F08BF013CF7D041EAB2
:10068000060195F0000F18BF704703F000465200B6
:1006900043EB030313F4801F08BF013DF7D043EA87
:1006A0000603704794EA0C0F0CEA135518BF95EA3D
:1006B0000C0F0CD050EA410618BF52EA4306D1D1C4
:1006C00081EA030101F000414FF0000070BD50EAE3
:1006D000410606BF1046194652EA430619D094EA6D
:1006E0000C0F02D150EA013613D195EA0C0F05D157
:1006F00052EA03361CBF104619460AD181EA0301AB
:1007000001F0004141F0FE4141F470014FF0000062
:1007100070BD41F0FE4141F4780170BD70B54FF0FD
:10072000FF0C4CF4E06C1CEA11541DBF1CEA13557D
:1007300094EA0C0F95EA0C0F00F0A7F8A4EB05045F
:1007400081EA030E52EA03354FEA013100F0888056
:100750004FEA03334FF0805545EA131343EA12631F
:100760004FEA022245EA111545EA10654FEA0026D4
:100770000EF000419D4208BF964244F1FD0404F58D
:10078000407402D25B084FEA3202B61A65EB0305E9
:100790005B084FEA32024FF480104FF4002CB6EBA6
:1007A000020E75EB030E22BFB61A754640EA0C0026
:1007B0005B084FEA3202B6EB020E75EB030E22BF66
:1007C000B61A754640EA5C005B084FEA3202B6EBA7
:1007D000020E75EB030E22BFB61A754640EA9C0066
:1007E0005B084FEA3202B6EB020E75EB030E22BF36
:1007F000B61A754640EADC0055EA060E18D04FEAF4
:10080000051545EA16754FEA06164FEAC30343EA93
:1008100052734FEAC2025FEA1C1CC0D111F4801F60
:100820000BD141EA00014FF000004FF0004CB6E759
:1008300011F4801F04BF01430020B4F1FD0C88BFF8
:10084000BCF5E06F3FF6AFAEB5EB030C04BFB6EB03
:10085000020C5FEA500C50F1000041EB045170BDF6
:100860000EF0004E4EEA113114EB5C04C2BFD4EB23
:100870000C0541EA045170BD41F480114FF0000EA7
:10088000013C90E645EA060E8DE60CEA135594EA23
:100890000C0F08BF95EA0C0F3FF43BAF94EA0C0F26
:1008A0000AD150EA01347FF434AF95EA0C0F7FF49B
:1008B00025AF104619462CE795EA0C0F06D152EAEF
:1008C00003353FF4FDAE1046194622E750EA4106D3
:1008D00018BF52EA43067FF4C5AE50EA41047FF4E4
:1008E0000DAF52EA43057FF4EBAE12E74FF0FF3C49
:1008F00006E000BF4FF0010C02E000BF4FF0010C1A
:100900004DF804CD4FEA410C7FEA6C5C4FEA430C92
:1009100018BF7FEA6C5C1BD001B050EA410C0CBFE1
:1009200052EA430C91EA030F02BF90EA020F002043
:10093000704710F1000F91EA030F58BF994208BFAA
:1009400090422CBFD8176FEAE37040F00100704767
:100950004FEA410C7FEA6C5C02D150EA013C07D1BE
:100960004FEA430C7FEA6C5CD6D152EA033CD3D009
:100970005DF8040B704700BF8446104662468C4603
:100980001946634600E000BF01B5FFF7B7FF002836
:1009900048BF10F1000F01BD4DF808EDFFF7F4FF5F
:1009A0000CBF012000205DF808FB00BF4DF808EDEA
:1009B000FFF7EAFF34BF012000205DF808FB00BF0D
:1009C0004DF808EDFFF7E0FF94BF012000205DF82F
:1009D00008FB00BF4DF808EDFFF7CEFF94BF0120E4
:1009E00000205DF808FB00BF4DF808EDFFF7C4FFDD
:1009F00034BF012000205DF808FB00BF4FEA410C26
:100A00007FEA6C5C02D150EA013C0AD14FEA430C08
:100A10007FEA6C5C02D152EA033C02D14FF0000045
:100A200070474FF0010070474FEA4102B2F1E043D6
:100A300024BFB3F5001CDCF1FE5C0DD901F0004CC5
:100A40004FEAC0024CEA5070B2F1004F40EB830015
:100A500008BF20F00100704711F0804F21D113F141
:100A60003872BCBF01F00040704741F480114FEA7A
:100A70005252C2F11802C2F1200C10FA0CF320FA03
:100A800002F018BF40F001004FEAC1234FEAD32320
:100A900003FA0CFC40EA0C0023FA02F34FEA43038A
:100AA000CCE77FEA625307D150EA01331EBF4FF013
:100AB000FE4040F44000704701F0004040F0FE402E
:100AC00040F40000704700BF80F0004002E000BF2B
:100AD00081F0004142001FBF5FEA410392EA030F29
:100AE0007FEA226C7FEA236C6AD04FEA1262D2EB73
:100AF0001363C1BFD218414048404140B8BF5B4278
:100B0000192B88BF704710F0004F40F4000020F010
:100B10007F4018BF404211F0004F41F4000121F026
:100B20007F4118BF494292EA030F3FD0A2F1010270
:100B300041FA03FC10EB0C00C3F1200301FA03F1AE
:100B400000F0004302D5494260EB4000B0F5000FD1
:100B500013D3B0F1807F06D340084FEA310102F190
:100B60000102FE2A51D2B1F1004F40EBC25008BF42
:100B700020F0010040EA03007047490040EB00000C
:100B8000013A28BFB0F5000FEDD2B0FA80FCACF10D
:100B9000080CB2EB0C0200FA0CF0AABF00EBC2503A
:100BA00052421843BCBFD0401843704792F0000F28
:100BB00081F4000106BF80F400000132013BB5E77B
:100BC0004FEA41037FEA226C18BF7FEA236C21D0F1
:100BD00092EA030F04D092F0000F08BF0846704756
:100BE00090EA010F1CBF0020704712F07F4F04D124
:100BF000400028BF40F00040704712F100723CBF37
:100C000000F50000704700F0004343F0FE4040F460
:100C1000000070477FEA226216BF08467FEA23631E
:100C20000146420206BF5FEA412390EA010F40F409
:100C3000800070474FF0000304E000BF10F0004355
:100C400048BF40425FEA000C08BF704743F096433C
:100C500001464FF000001CE050EA010208BF704757
:100C60004FF000030AE000BF50EA010208BF7047DE
:100C700011F0004302D5404261EB41015FEA010CF3
:100C800002BF84460146002043F0B64308BFA3F1EB
:100C90008053A3F50003BCFA8CF2083AA3EBC253CD
:100CA00010DB01FA02FC634400FA02FCC2F12002EC
:100CB000BCF1004F20FA02F243EB020008BF20F023
:100CC0000100704702F1200201FA02FCC2F1200289
:100CD00050EA4C0021FA02F243EB020008BF20EA7E
:100CE000DC7070474FF0FF0C1CEAD0521EBF1CEAAC
:100CF000D15392EA0C0F93EA0C0F6FD01A4480EA9A
:100D0000010C400218BF5FEA41211ED04FF0006382
:100D100043EA501043EA5111A0FB01310CF00040AE
:100D2000B1F5000F3EBF490041EAD3715B0040EAD4
:100D3000010062F17F02FD2A1DD8B3F1004F40EBA4
:100D4000C25008BF20F00100704790F0000F0CF077
:100D5000004C08BF49024CEA502040EA51207F3A3B
:100D6000C2BFD2F1FF0340EAC250704740F4000016
:100D70004FF00003013A5DDC12F1190FDCBF00F007
:100D800000407047C2F10002410021FA02F1C2F1B5
:100D9000200200FA02FC5FEA310040F1000053EA51
:100DA0004C0308BF20EADC70704792F0000F00F09F
:100DB000004C02BF400010F4000F013AF9D040EAA5
:100DC0000C0093F0000F01F0004C02BF490011F439
:100DD000000F013BF9D041EA0C018FE70CEAD15337
:100DE00092EA0C0F18BF93EA0C0F0AD030F0004CB7
:100DF00018BF31F0004CD8D180EA010000F000406B
:100E0000704790F0000F17BF90F0004F084691F028
:100E1000000F91F0004F14D092EA0C0F01D1420262
:100E20000FD193EA0C0F03D14B0218BF084608D12B
:100E300080EA010000F0004040F0FE4040F4000075
:100E4000704740F0FE4040F4400070474FF0FF0C08
:100E50001CEAD0521EBF1CEAD15392EA0C0F93EA4F
:100E60000C0F69D0A2EB030280EA010C49024FEAA1
:100E7000402037D04FF0805343EA111143EA10135A
:100E80000CF000408B4238BF5B0042F17D024FF412
:100E9000000C8B4224BF5B1A40EA0C00B3EB510FED
:100EA00024BFA3EB510340EA5C00B3EB910F24BFD6
:100EB000A3EB910340EA9C00B3EBD10F24BFA3EB5B
:100EC000D10340EADC001B0118BF5FEA1C1CE0D123
:100ED000FD2A3FF650AF8B4240EBC25008BF20F0D6
:100EE000010070470CF0004C4CEA50207F32C2BF2A
:100EF000D2F1FF0340EAC250704740F400004FF0C7
:100F00000003013A37E792F0000F00F0004C02BFF7
:100F1000400010F4000F013AF9D040EA0C0093F0C1
:100F2000000F01F0004C02BF490011F4000F013B1B
:100F3000F9D041EA0C0195E70CEAD15392EA0C0F83
:100F400008D142027FF47DAF93EA0C0F7FF470AFBB
:100F5000084676E793EA0C0F04D14B023FF44CAFFE
:100F600008466EE730F0004C18BF31F0004CCAD193
:100F700030F000427FF45CAF31F000437FF43CAFCF
:100F80005FE700BF42000ED2B2F1FE4F0BD34FF02D
:100F90009E03B3EB126209D44FEA002343F00043EF
:100FA00023FA02F070474FF00000704712F1610F12
:100FB00001D1420202D14FF0FF3070474FF00000E4
:100FC000704700BF80B483B000AF78607B681B6857
:100FD000084A934209D1084B93F80931DBB2002B40
:100FE00003D1054B012283F8092100BF0C37BD4610
:100FF00080BC7047004400409007002080B582B05C
:1010000000AF78607B681B680D4A934206D101F0FF
:10101000FFFB01220B490C4805F0FDFC7B681B68B7
:101020000A4A934207D10A4800F0E4F8012209492C
:10103000094805F0F0FC00BF0837BD4680BD00BF81
:101040000038014000030020040C00200044004050
:1010500090070020240A00202C0D002080B588B0C5
:1010600000AF78607B681B78FB76FB7E0233FB77F2
:101070000023BB835A4BB3F90C30BB82584BB3F9F6
:101080000E30FB82564BB3F910303B83544B5B69F7
:1010900054491846FFF726FE03461846FFF772FF2D
:1010A00003469BB2BB814E4B9B694E491846FFF7E6
:1010B00019FE03461846FFF765FF03469BB2FB8106
:1010C000474BDB6947491846FFF70CFE03461846B5
:1010D000FFF758FF03469BB23B82FB7E5A1CD2B2FD
:1010E000FA761A46404B13443A2283F89421FB7E49
:1010F0005A1CD2B2FA761A463B4B1344222283F88A
:101100009421FB7E5A1CD2B2FA761A46364B13440F
:10111000422283F89421354B1B785A1CD1B2334AB2
:101120001170FA7E511CC9B2F97611462E4A0A4452
:1011300082F89431FB7E5A1CD2B2FA761A462A4BB8
:1011400013440C2283F89421B7F9142007F11B03F0
:101150001946274801F0F7FCB7F9162007F11B03E1
:101160001946234801F0EFFCB7F9182007F11B03DB
:1011700019461F4801F0E7FCBA8907F11B0319461D
:101180001B4801F09DFCFA8907F11B03194618481A
:1011900001F096FC3A8A07F11B031946144801F046
:1011A0008FFC0BE0FB7F5A1CFA771A460E4B134458
:1011B00093F894319AB2BB8B1344BB83FB7EFA7FC6
:1011C0009A42EFD3BA8B07F11B031946084801F086
:1011D00077FCFA7E7B681A7000BF2037BD4680BD61
:1011E0007007002000401C46900700208C00002063
:1011F0002409002080B584B000AF78607B685B78FC
:10120000072B00F2098101A252F823F02D120008E9
:101210005F12000891120008B7120008DD120008E2
:101220000313000865130008B11300087B6893F8E6
:1012300094323A2B08D17B6893F894227B689A7099
:101240007B6801225A70E7E07B68D3F89C325A1C15
:101250007B68C3F89C227B6800225A70DCE07B68C4
:1012600093F89432222B08D17B6893F894227B6800
:10127000DA707B6802225A70CEE07B6800225A70D6
:101280007B68D3F89C325A1C7B68C3F89C22C3E06D
:101290007B6893F894227B685A717B6893F8943248
:1012A0009AB2B14B1B8813449AB2AF4B1A807B6839
:1012B00003225A70B0E07B6893F894227B681A711D
:1012C0007B6893F894329AB2A74B1B8813449AB266
:1012D000A54B1A807B6804225A709DE07B6893F8C6
:1012E00094227B689A717B6893F894329AB29E4BF1
:1012F0001B8813449AB29C4B1A807B6805225A7053
:101300008AE07B689B79002B06D17B6800225A70AB
:10131000964B00221A707AE0944B1B7819467B6832
:1013200093F894227B680B44DA71904B1B7801335D
:10133000DAB28E4B1A707B6893F894329AB28A4B69
:101340001B8813449AB2884B1A807B689A79874B22
:101350001B789A425BD17B6806225A70834B00222D
:101360001A7054E07B6893F894321A467E4B1B88BF
:10137000DBB29A4209D17B6893F894227B6883F8A8
:1013800006217B6807225A7043E07B68D3F89832C5
:101390005A1C7B68C3F898227B6800225A70724BF3
:1013A00000221A807B68D3F89832642B31D9FEE78B
:1013B0007B6893F894321A466B4B1B881B0A9BB2CE
:1013C000DBB29A4210D17B6893F894227B6883F851
:1013D0000721654B00221A807B6800225A707B68C7
:1013E000012283F8082116E07B68D3F898325A1C52
:1013F0007B68C3F898227B6800225A705A4B0022FF
:101400001A807B68D3F89832642B04D9FEE700BFBA
:1014100002E000BF00E000BF7B6893F80831DBB258
:10142000002B00F0FB827B68002283F80821002358
:10143000BB7300237B737B685B79373B2C2B00F2FB
:10144000ED8201A252F823F0511500081D1A000880
:101450001D1A0008751500081D1A00081D1A00083D
:101460001D1A00081D1A00081D1A00081D1A000880
:101470001D1A0008FD1400081D1A00081D1A000896
:101480001D1A00081D1A00081D1A00081D1A000860
:101490001D1A00081D1A00081D1A00081D1A000850
:1014A0003B1500081D1A00081D1A00081D1A000827
:1014B0001D1A00081D1A00081D1A00081D1A000830
:1014C0001D1A00081D1A00081D1A000889180008B6
:1014D000A91700081D1A00081D1A00081D1A000887
:1014E0001D1A00081D1A00081D1A00081D1A000800
:1014F0001D1A00081D1A00083F1600087B68D81D39
:101500007B6803F5867207F10D03194601F05EFB57
:101510007B6893F80C31002B40F07F8207F10E03BB
:101520001846FFF79BFD7B6803F5CA71BB7B9AB237
:101530000A230F4805F0DDF96FE27B68D81D7B6850
:1015400003F20D1207F10D03194601F03FFB65E2AE
:101550007B68D81D7B6803F5877207F10D03194678
:1015600001F034FB5AE200BF8E0000209000002002
:101570002C0D00207B68D81D7B6803F5907207F165
:101580000D03194601F068FA7B68D81D7B6803F5E6
:101590008E7207F10D03194601F05EFA7B68D81DC3
:1015A0007B6803F5887207F10D03194601F054FAC0
:1015B0007B68D81D7B6803F58A7207F10D03194615
:1015C00001F04AFA7B68D81D7B6803F58C7207F13D
:1015D0000D03194601F040FA7B68D81D7B6803F5BE
:1015E000987207F10D03194601F036FA7B68D81D91
:1015F0007B6803F5967207F10D03194601F02CFA8A
:101600007B68D81D7B6803F5947207F10D031946BA
:1016100001F022FA7B68D81D7B6803F5927207F10E
:101620000D03194601F018FA7B68D81D7B6803F595
:101630009A7207F10D03194601F00EFAEEE17B688C
:10164000D81D7B6803F59C7207F10D03194601F064
:1016500003FA7B68D81D7B6803F59E7207F10D03C2
:10166000194601F0F9F97B68D81D7B6803F5A07273
:1016700007F10D03194601F0EFF97B68D81D7B686F
:1016800003F5A27207F10D03194601F0E5F97B6835
:10169000D81D7B6803F5A47207F10D03194601F00C
:1016A000DBF97B68D81D7B6803F5A67207F10D0393
:1016B000194601F0D1F97B68D81D7B6803F5A87243
:1016C00007F10D03194601F0C7F97B68D81D7B6847
:1016D00003F5AA7207F10D03194601F0BDF97B6805
:1016E000D81D7B6803F5AC7207F10D03194601F0B4
:1016F000B3F97B68D81D7B6803F5B07207F10D0361
:10170000194601F0A9F97B68D81D7B6803F5B27210
:1017100007F10D03194601F09FF97B68D81D7B681E
:1017200003F5B47207F10D03194601F095F97B68D2
:10173000D81D7B6803F5BE7207F10D03194601F051
:101740008BF97B68D81D7B6803F5C07207F10D0328
:10175000194601F081F97B68D81D7B6803F5C272D8
:1017600007F10D03194601F077F97B68D81D7B68F6
:1017700003F5C47207F10D03194601F06DF97B689A
:10178000D81D7B6803F5C67207F10D03194601F0F9
:1017900063F97B68D81D7B6803F5C87207F10D03F8
:1017A000194601F059F939E17B68073307F10D015A
:1017B0009C4A184601F00AFA0023FB735EE07B683E
:1017C000D81DFA7B13465B001344DB00964A1A448B
:1017D00007F10D03194601F0F9F97B68D81DFA7B72
:1017E00013465B001344DB008F4A13441A1D07F1B4
:1017F0000D03194601F030F97B68D81DFA7B1346BA
:101800005B001344DB000833874A1A4407F10D03D9
:10181000194601F021F97B68D81DFA7B13465B005D
:101820001344DB000833804A13441A1D07F10D03EB
:10183000194601F066F97B68D81DFA7B13465B00F8
:101840001344DB000833784A13449A1D07F10D0353
:10185000194601F0BBF97B68D81DFA7B13465B0083
:101860001344DB000833704A1344DA1D07F10D03FB
:10187000194601F0ABF9FB7B0133FB73694B1B7815
:10188000FA7B9A429BD3C9E07B68073307F10D01CD
:10189000664A184601F078F97B68073307F10D01B5
:1018A000634A184601F070F97B68073307F10D01B0
:1018B000604A184601F068F97B68073307F10D01AB
:1018C0005D4A184601F060F97B68073307F10D01A6
:1018D0005A4A184601F058F97B68073307F10D01A1
:1018E000574A184601F050F97B68073307F10D019C
:1018F000544A184601F0B0F87B68073307F10D0130
:10190000514A184601F0A8F87B68073307F10D012A
:101910004E4A184601F0A0F87B68073307F10D0125
:101920004B4A184601F0EDF87B68073307F10D01CB
:10193000484A184601F0E5F87B68073307F10D01C6
:10194000454A184601F0DDF87B68073307F10D01C1
:10195000424A184601F0D5F87B68073307F10D01BC
:101960003F4A184601F0CDF87B68073307F10D01B7
:101970003C4A184601F0C5F87B68073307F10D01B2
:10198000394A184601F0BDF87B68073307F10D01AD
:10199000364A184601F0B5F87B68073307F10D01A8
:1019A000334A184601F0ADF87B68073307F10D01A3
:1019B000304A184601F0A5F87B68073307F10D019E
:1019C0002D4A184601F09DF87B68073307F10D0199
:1019D0002A4A184601F095F87B68073307F10D0194
:1019E000274A184601F08DF87B68073307F10D018F
:1019F000244A184601F085F87B68073307F10D018A
:101A0000214A184601F07DF87B68073307F10D0184
:101A10001E4A184601F075F800E000BF00BF1037FD
:101A2000BD4680BDE806002014030020E60000202B
:101A3000E8000020EA0000207C0700207E0700204C
:101A40008007002084070020880700208C070020E2
:101A5000B00A0020B20A0020AC0A0020AE0A002022
:101A6000B40A0020B60A0020B80A0020BA0A0020F2
:101A7000BC0A0020BE0A0020C00A0020C20A0020C2
:101A8000C40A0020C60A0020C80A0020CA0A002092
:101A900080B400AF094B002283F82620074B0022B8
:101AA00083F86D20054B002283F89120034B002220
:101AB00083F8CD2000BFBD4680BC704700010020E8
:101AC00080B485B000AF78600023FB730023BB8136
:101AD0000023FB730AE0FB7B7A6813441B789AB2FD
:101AE000BB891344BB81FB7B0133FB73FB7B042B62
:101AF000F1D9BB8918461437BD4680BC7047000039
:101B0000B0B592B000AF78607B681B7887F83C3046
:101B10007B685B7887F83D307B689B7887F83E3040
:101B20007B68DB7887F83F307B681B7987F840302B
:101B30007B685B7987F841307B689B7987F8423016
:101B40007B68DB7987F843307B681B7A87F8443001
:101B50007B685B7A87F84530002387F8303016E0E1
:101B600097F8303007F14802134413F80C3C97F80B
:101B700030201146303BDAB207F148030B4403F83A
:101B80000C2C97F830300133DBB287F8303097F8FF
:101B90003030092BE4D997F83C301A4692001344B0
:101BA0005B00DAB297F83D301344DBB23B7297F832
:101BB0003E301A4613469B0013445B001A4697F8C2
:101BC0003F3013441846FEF715FC02460B46C7E9A2
:101BD000042397F841301A4642F2107303FB02F2D5
:101BE00097F8423019464FF47A7303FB01F31A4415
:101BF00097F843301946642303FB01F31A4497F81E
:101C0000443019460B469B000B445B00134497F885
:101C1000452013441846FEF7EDFB02460B46C7E984
:101C20000823D7E90445D7E908011BA3D3E900231A
:101C3000FEF74AFC02460B461046194618A3D3E9A4
:101C40000023FEF741FC02460B4620462946FEF7DC
:101C500085FA02460B46C7E906233B7A1846FEF78B
:101C6000C9FB04460D46D7E906014FF000020E4BB2
:101C7000FEF754FD02460B4620462946FEF76EFA53
:101C800002460B46C7E90A23D7E90A23104619463C
:101C90004837BD46B0BD00BF7B14AE47E17A843FF4
:101CA000FCA9F1D24D62503F00004E400000000000
:101CB000B0B592B000AF78607B681B7887F83C3095
:101CC0007B685B7887F83D307B689B7887F83E308F
:101CD0007B68DB7887F83F307B681B7987F840307A
:101CE0007B685B7987F841307B689B7987F8423065
:101CF0007B68DB7987F843307B681B7A87F8443050
:101D00007B685B7A87F845307B689B7A87F846303A
:101D1000002387F8303016E097F8303007F148029A
:101D2000134413F80C3C97F830201146303BDAB2DC
:101D300007F148030B4403F80C2C97F830300133BB
:101D4000DBB287F8303097F830300A2BE4D997F8B7
:101D50003C301A46920013441A4691001A460B462C
:101D600013449B00DAB297F83D30194689000B44C2
:101D70005B00DBB21344DAB297F83E301344DBB2B7
:101D80003B7297F83F301A4613469B0013445B00A2
:101D90001A4697F8403013441846FEF72BFB0246CC
:101DA0000B46C7E9042397F842301A4642F21073F3
:101DB00003FB02F297F8433019464FF47A7303FBA2
:101DC00001F31A4497F844301946642303FB01F3E6
:101DD0001A4497F8453019460B469B000B445B00AC
:101DE000134497F8462013441846FEF703FB0246B7
:101DF0000B46C7E90823D7E90445D7E908011CA326
:101E0000D3E90023FEF760FB02460B461046194655
:101E100019A3D3E90023FEF757FB02460B462046E1
:101E20002946FEF79BF902460B46C7E906233B7A93
:101E30001846FEF7DFFA04460D46D7E906014FF0D3
:101E400000020F4BFEF76AFC02460B46204629466D
:101E5000FEF784F902460B46C7E90A23D7E90A23AD
:101E6000104619464837BD46B0BD00BFAFF30080ED
:101E70007B14AE47E17A843FFCA9F1D24D62503F1A
:101E800000004E400000000080B588B000AF7860D0
:101E90007B681B783B727B685B787B727B689B7886
:101EA000BB727B68DB78FB727B681B793B737B685A
:101EB0005B797B730023FB770023BB774FF0000334
:101EC000BB6100237B612C4B3B610023FB771AE055
:101ED000FB7F07F12002134413F8183C2E2B01D18D
:101EE000FB7FBB77FB7F07F12002134413F8182C0C
:101EF000FB7F303AD2B207F120010B4403F8182CD3
:101F0000FB7F0133FB77FB7F052BE1D920E0BB7F13
:101F10007A699A4219D007F108027B6913441B7849
:101F20001846FEF78BFE034639691846FEF7DAFEBF
:101F300003461946B869FEF7CDFD0346BB610F495C
:101F40003869FEF783FF03463B617B6901337B61A0
:101F50003869FEF761FA06A3D3E90023FEF73AFDDC
:101F60000346002BD3D1BB6918462037BD4680BD40
:101F70009A9999999999B93F0000C8420000204167
:101F800080B485B000AF78607B681B783B737B685A
:101F90005B787B730023FB7310E0FB7B07F110027F
:101FA000134413F8042CFB7B303AD2B207F1100132
:101FB0000B4403F8042CFB7B0133FB73FB7B012BED
:101FC000EBD93B7B1A46920013445B00DAB27B7B71
:101FD0001344BB73BB7B18461437BD4680BC7047A7
:101FE000B0B588B000AF78607B681B783B727B68C7
:101FF0005B787B727B689B78BB727B68DB78FB725B
:102000007B681B793B737B685B797B737B689B790F
:10201000BB730023BB774FF00003BB610123FB754B
:102020000023FB7722E0FB7F07F12002134413F823
:10203000183C002B17D0FB7F07F12002134413F844
:10204000183C2E2B01D1FB7FBB77FB7F07F12002D1
:10205000134413F8182CFB7F303AD2B207F1200159
:102060000B4403F8182CFB7F0133FB77FB7F062B17
:10207000D9D900233B6144E0BB7F3A699A420AD137
:10208000FB7D012B07D1BB7F0133BB773B6901335C
:102090003B610023FB7507F108023B6913441B7881
:1020A0001846FEF7A7F904460D46BA7F3B69D31AD6
:1020B000013B1846FEF79EF902460B464FF0000022
:1020C000154905F0F9F802460B4620462946FEF769
:1020D000FBF902460B4614461D46B869FEF79CF90B
:1020E00002460B4620462946FEF738F802460B46C4
:1020F00010461946FEF798FC0346BB613B69013365
:102100003B613B69062BB7DD0123FB75BB691846B4
:102110002037BD46B0BD00BF0000244080B483B06E
:1021200000AF0346FB71FB79082B00F2848001A20B
:1021300052F823F0592100087D2100088921000868
:10214000AF210008BB210008E1210008ED210008B3
:102150001322000829220008394B93F826301A462A
:10216000374B93F80012364B9954354B93F8263081
:102170000133DAB2324B83F826205CE0304B93F81F
:1021800000222F4B1A7256E02D4B93F82630194639
:102190002B4B93F800222A4B0B445A72284B93F88E
:1021A00026300133DAB2264B83F8262043E0244B55
:1021B00093F80022224B5A743DE0214B93F82630CD
:1021C00019461F4B93F800221D4B0B449A741C4B6D
:1021D00093F826300133DAB2194B83F826202AE02F
:1021E000174B93F80022164B9A7624E0144B93F881
:1021F00026301946124B93F80022114B0B44DA7625
:102200000F4B93F826300133DAB20D4B83F82620BA
:1022100011E00B4B012283F82520094B93F8002293
:10222000074B83F8232006E0054B93F80022044B6C
:1022300083F8242000BF00BF0C37BD4680BC704728
:102240000001002080B483B000AF0346FB71FB792E
:102250000D2B00F2FE8001A252F823F09522000817
:10226000BD220008E5220008F32200081B23000815
:102270002923000837230008672300088F2300085C
:10228000B7230008CD230008F52300080324000825
:102290002B240008714B93F86D3019466F4B93F85F
:1022A00000226E4B0B4483F827206C4B93F86D3063
:1022B0000133DAB2694B83F86D20CAE0674B93F8BB
:1022C0006D301946654B93F80022644B0B4483F83C
:1022D0003120624B93F86D300133DAB25F4B83F8F3
:1022E0006D20B6E05D4B93F800225C4B83F83B20F9
:1022F000AFE05A4B93F86D301946584B93F80022D3
:10230000564B0B4483F83C20544B93F86D3001330B
:10231000DAB2524B83F86D209BE0504B93F80022C9
:102320004E4B83F8472094E04C4B93F800224B4BE4
:1023300083F848208DE0494B93F86D301946474BA0
:1023400093F80022454B0B4483F84920434B01226C
:1023500083F86C20414B93F86D300133DAB23F4B78
:1023600083F86D2075E03D4B93F86D3019463B4B7B
:1023700093F80022394B0B4483F84B20374B93F8EA
:102380006D300133DAB2354B83F86D2061E0334BA9
:1023900093F86D301946314B93F800222F4B0B44C4
:1023A00083F84F202D4B93F86D300133DAB22B4B6D
:1023B00083F86D204DE0294B012283F86B20274BD9
:1023C00093F80022254B83F8562042E0234B93F8E4
:1023D0006D301946214B93F80022204B0B4483F8B3
:1023E00057201E4B93F86D300133DAB21B4B83F844
:1023F0006D202EE0194B93F80022184B83F86120D2
:1024000027E0164B93F86D301946144B93F80022D1
:10241000124B0B4483F86220104B93F86D3001335C
:10242000DAB20E4B83F86D2013E00C4B93F86D304D
:1024300019460A4B93F80022084B0B4483F8672097
:10244000064B93F86D300133DAB2044B83F86D20FC
:1024500000BF00BF0C37BD4680BC704700010020A4
:1024600080B483B000AF0346FB71FB79062B69D8BB
:1024700001A252F823F000BF95240008BD240008F3
:10248000CB240008F32400080125000829250008B2
:10249000372500082E4B93F8913019462C4B93F8B2
:1024A00000222B4B0B4483F86E20294B93F891307C
:1024B0000133DAB2264B83F8912043E0244B93F8A2
:1024C0000022234B83F878203CE0214B93F8913095
:1024D00019461F4B93F800221D4B0B4483F87920BB
:1024E0001B4B93F891300133DAB2194B83F89120EA
:1024F00028E0174B93F80022154B83F8842021E045
:10250000134B93F891301946114B93F80022104B5E
:102510000B4483F885200E4B93F891300133DAB2E7
:102520000B4B83F891200DE0094B93F80022084BE8
:1025300083F88F2006E0064B93F80022044B83F8C3
:10254000902000BF00BF0C37BD4680BC704700BF65
:102550000001002080B483B000AF0346FB71FB791B
:102560000B2B00F2D28001A252F823F09D25000827
:10257000C5250008D3250008FB2500081126000802
:10258000392600084F260008772600089F260008F5
:10259000C7260008EF260008FD2600085D4B93F8CB
:1025A000CD3019465B4B93F800225A4B0B4483F80D
:1025B0009220584B93F8CD300133DAB2554B83F863
:1025C000CD20A2E0534B93F80022524B83F89C207D
:1025D0009BE0504B93F8CD3019464E4B93F80022B8
:1025E0004C4B0B4483F89D204A4B93F8CD3001337C
:1025F000DAB2484B83F8CD2087E0464B012283F8BE
:10260000CB20444B93F80022424B83F8A7207CE078
:10261000404B93F8CD3019463E4B93F800223D4B8A
:102620000B4483F8A8203B4B93F8CD300133DAB24A
:10263000384B83F8CD2068E0364B012283F8CC205C
:10264000344B93F80022334B83F8B3205DE0314BD9
:1026500093F8CD3019462F4B93F800222D4B0B44A5
:1026600083F8B4202B4B93F8CD300133DAB2294BE9
:1026700083F8CD2049E0274B93F8CD301946254B00
:1026800093F80022234B0B4483F8B920214B93F895
:10269000CD300133DAB21F4B83F8CD2035E01D4B2E
:1026A00093F8CD3019461B4B93F80022194B0B447D
:1026B00083F8BE20174B93F8CD300133DAB2154BB7
:1026C00083F8CD2021E0134B93F8CD301946114B00
:1026D00093F800220F4B0B4483F8C4200D4B93F862
:1026E000CD300133DAB20B4B83F8CD200DE0094B2E
:1026F00093F80022074B83F8C92006E0054B93F8B6
:102700000022044B83F8CA2000BF00BF0C37BD462F
:1027100080BC70470001002080B582B000AF034646
:10272000FB803A4B93F800322C2B0ED1374B93F8A9
:10273000CE30012B09D0354B93F801310133DAB299
:10274000324B83F80121FFF7A3F9304B93F80032A5
:102750002A2B0ED12D4B93F8CE30012B09D02B4BC9
:10276000012283F8FA20294B002283F80121FFF788
:102770008FF9264B93F800322C2B41D0234B93F842
:10278000FA30012B3CD0FB8840F29512934232D0B4
:10279000B3F5CB7F35DAB3F5C37F10D0B3F5C37F84
:1027A0002FDC40F2771293421ED0B3F5BC7F28DABB
:1027B000B3F5B27F0AD0B3F5BA7F0ED021E0134B48
:1027C00093F801311846FFF7A9FC1AE00F4B93F874
:1027D00001311846FFF736FD13E00C4B93F8013139
:1027E0001846FFF73DFE0CE0084B93F80131184600
:1027F000FFF7B0FE05E0054B012283F8CE2000E094
:1028000000BF00BF0837BD4680BD00BF00010020EB
:1028100080B500AF894B93F80032242B0CD1874B45
:1028200093F8F930012B07D1844B002283F8F8206C
:10283000824B002283F8F920804B93F8F830002B6C
:1028400002D0012B3DD044E07C4B93F800322C2B7E
:102850001CD07A4B93F80032242B17D0774B93F887
:10286000FC30042B12D8754B93F8FC301946734B8F
:1028700093F80022714B0B4483F801226F4B93F8BD
:10288000FC300133DAB26D4B83F8FC206B4B93F8CC
:1028900000322C2B1CD1694B93F8FC30052B17D13F
:1028A0006748FFF70DF903461A46644BA3F8062262
:1028B000624B002283F8FC20604B012283F8F82051
:1028C00006E05E4BB3F806321846FFF725FF00E03E
:1028D00000BF5A4BB3F9FE301946584B93F800220B
:1028E000564B0B4483F80221544BB3F9FE30013BA5
:1028F000524A134493F802310D2B1ED14F4BB3F9BA
:10290000FE301A464D4B134493F802310A2B14D172
:102910004A4B012283F8F920484B002283F8FA2021
:10292000464B002283F8CE20444B0022A3F8062217
:10293000424B4FF6FF72A3F8FE20404BB3F9FE3036
:102940009BB201339BB21AB23C4BA3F8FE203B4B27
:10295000B3F9FE30FD2B03DD384B0022A3F8FE2037
:10296000364B93F8CB30012B10D1344B93F8A13078
:102970002E2B0BD1314B002283F8CB203148FFF7AF
:10298000BFF802460B462D49C1E934232B4B93F87F
:10299000CC30012B10D1294B93F8AD302E2B0BD11D
:1029A000264B002283F8CC202748FFF781F9024606
:1029B0000B462249C1E93623204B93F86B30012B9B
:1029C0000FD11E4B002283F86B202048FFF75CFAE2
:1029D00003461846FDF720FD02460B461749C1E99C
:1029E0003823164B93F86C30012B0FD1134B002278
:1029F00083F86C20114B012283F808221448FFF75A
:102A0000BFFA03461A460D4B83F8F0200B4B93F8A0
:102A10002530012B0FD1094B002283F825200D48CA
:102A2000FFF7DEFA03461846FDF7F6FC02460B46B2
:102A30000249C1E93A2300BF80BD00BF0001002068
:102A4000010300209D010020A80100204F0100206B
:102A5000490100201B01002080B485B000AFF86060
:102A6000B9607A60BB681B781A46FB6813441A7811
:102A70007B681A70BB681B780133FA681A447B685C
:102A8000013312781A70BB681B780233FA681A4453
:102A90007B68023312781A70BB681B780333FA68BC
:102AA0001A447B68033312781A70BB681B780433AE
:102AB000DAB2BB681A7000BF1437BD4680BC7047DD
:102AC00080B485B000AFF860B9601346FB80BA1DD2
:102AD000BB681B781946FB680B4412781A70BB68F8
:102AE0001B780133FA681344FA791A70BB681B78B3
:102AF0000233DAB2BB681A7000BF1437BD4680BC1F
:102B0000704780B485B000AFF860B9607A60BB6888
:102B10001B781A46FB6813441A787B681A70BB68E6
:102B20001B780133FA681A447B68013312781A70F3
:102B3000BB681B780233DAB2BB681A7000BF143767
:102B4000BD4680BC704780B485B000AFF860B96006
:102B50001346FB80BA1DBB681B781946FB680B4403
:102B600012781A70BB681B780133FA681344FA793B
:102B70001A70BB681B780233DAB2BB681A7000BFE8
:102B80001437BD4680BC704780B485B000AFF86094
:102B9000B9607A60BB681B781A46FB6813441A78E0
:102BA0007B681A70BB681B780133FA681A447B682B
:102BB000013312781A70BB681B780233DAB2BB6833
:102BC0001A7000BF1437BD4680BC704780B485B012
:102BD00000AFF860B9607A60BB681B781A46FB6882
:102BE00013441A787B681A70BB681B780133DAB219
:102BF000BB681A7000BF1437BD4680BC7047000028
:102C000080B582B000AF78607B681B68964A9342BB
:102C100040F04381954B9B6803F04003002B00F08C
:102C200029817B681B68596A914BDB8C1A4689B2F3
:102C30008F4B23F812108E4BDB8C013B082B00F2DC
:102C40000C8101A252F823F06D2C0008A72C00087B
:102C5000E12C00081B2D0008552D00088F2D0008C1
:102C6000C72D0008FF2D0008372E0008804B5A881A
:102C70007F4B1B88D31A9AB27D4B9A827C4BDB8C9C
:102C800001339AB27A4BDA84794B9B8A40F6B83298
:102C9000934240F2F180764B5A88754B1A80744B00
:102CA0000122DA84E8E0724B9A88714B5B88D31A70
:102CB0009AB26F4BDA826E4BDB8C01339AB26C4B5B
:102CC000DA846B4BDB8A40F6B832934240F2D6800E
:102CD000674B9A88664B1A80654B0122DA84CDE0F7
:102CE000634BDA88624B9B88D31A9AB2604B1A8383
:102CF0005F4BDB8C01339AB25D4BDA845C4B1B8BF0
:102D000040F6B832934240F2BB80594BDA88584BB8
:102D10001A80574B0122DA84B2E0554B1A89544B82
:102D2000DB88D31A9AB2524B5A83514BDB8C013356
:102D30009AB24F4BDA844E4B5B8B40F6B8329342DB
:102D400040F2A0804A4B1A89494B1A80484B012215
:102D5000DA8497E0464B5A89454B1B89D31A9AB2BD
:102D6000434B9A83424BDB8C01339AB2404BDA845B
:102D70003F4B9B8B40F6B832934240F285803C4BF0
:102D80005A893B4B1A803A4B0122DA847CE0384B5B
:102D90009A89374B5B89D31A9AB2354BDA83344B15
:102DA000DB8C01339AB2324BDA84314BDB8B40F649
:102DB000B83293426AD92E4B9A892D4B1A802C4BEC
:102DC0000122DA8462E02A4BDA89294B9B89D31AE3
:102DD0009AB2274B1A84264BDB8C01339AB2244BD0
:102DE000DA84234B1B8C40F6B832934250D9204BE7
:102DF000DA891F4B1A801E4B0122DA8448E01C4BF3
:102E00001A8A1B4BDB89D31A9AB2194B5A84184B76
:102E1000DB8C01339AB2164BDA84154B5B8C40F68F
:102E2000B832934236D9124B1A8A114B1A80104B82
:102E30000122DA842EE00E4B5A8A0D4B1B8AD31ADC
:102E40009AB20B4B9A840A4B00221A80084B01223B
:102E5000DA84054B00225A621DE0054BDB8C0133FE
:102E60009AB2034BDA8416E00004004000080140E7
:102E7000840A002000BF0EE000BF0CE000BF0AE0A3
:102E800000BF08E000BF06E000BF04E000BF02E0B2
:102E900000BF00E000BF00F005F800BF0837BD46E6
:102EA00080BD00BF80B400AF1F4BDB8B40F2B63259
:102EB000934209D91C4BDB8B40F21942934203D851
:102EC0001A4B00221A7002E0184B04221A70174B9A
:102ED0001B78042B23D1144B1B8C40F2B632934247
:102EE00009D9114B1B8C40F21942934203D80F4B66
:102EF00001221A7013E00C4B1B8C40F2AA52934231
:102F000009D9094B1B8C40F20D62934203D8074B41
:102F100002221A7003E0054B03221A70FFE700BF7C
:102F2000BD4680BC704700BF840A0020B800002066
:102F300080B500AF00F05AFE00F017F800F0CEFAAE
:102F400000F0AEFA00F06EF800F0E6F800F0B6F827
:102F500000F0FCF800F030F900F07EF900F0D0F954
:102F600000F04AFA00F072FAFEE780B594B000AFC4
:102F700007F1280328220021184605F055F907F12A
:102F8000140300221A605A609A60DA601A613B1DCD
:102F900000221A605A609A60DA600923BB624FF41B
:102FA0008033FB6200233B630123BB6301233B644B
:102FB00002237B644FF48033BB644FF4E013FB6463
:102FC00007F12803184601F0C5FE0346002B01D087
:102FD00000F00AFB0F237B610223BB610023FB612E
:102FE0004FF480633B6200237B6207F114030221EC
:102FF000184602F02FF90346002B01D000F0F4FA36
:1030000002237B604FF40043FB603B1D184602F037
:10301000BBFA0346002B01D000F0E6FA00BF5037A0
:10302000BD4680BD80B584B000AF3B1D00221A6054
:103030005A609A601F4B204A1A601E4B4FF48072F0
:103040009A601C4B01221A731A4B00221A75194BF5
:103050004FF46022DA61174B00225A60154B0222AE
:103060001A61144800F024FE0346002B01D000F042
:10307000BBFA00237B600123BB600023FB603B1D88
:1030800019460C4800F0ECFE0346002B01D000F07E
:10309000ABFA0223BB603B1D1946064800F0E0FE78
:1030A0000346002B01D000F09FFA00BF1037BD4649
:1030B00080BD00BFD40B00200024014080B500AFCC
:1030C000124B134A1A60114B124A5A600F4B0022DE
:1030D0009A600E4B0022DA600C4B4FF480421A616A
:1030E0000A4B00225A61094B00229A61074B0022C9
:1030F000DA61064B00221A62044801F0A5FC03467F
:10310000002B01D000F070FA00BF80BD380B00200A
:1031100000580040801A060080B500AF094B0A4AEB
:103120001A60084B00225A60064B4FF47A729A607C
:10313000044801F0CDFD0346002B01D000F054FA05
:1031400000BF80BD2C0B00200030004080B500AFD8
:10315000174B184A1A60164B4FF482725A60144B80
:1031600000229A60124B0022DA60114B00221A6191
:103170000F4B00225A610E4B4FF400729A610C4BB8
:103180000822DA610A4B00221A62094B00225A62B5
:10319000074B00229A62064B0A22DA62044802F0C8
:1031A000A9FA0346002B01D000F01EFA00BF80BD33
:1031B000D40C00200030014080B586B000AF07F18C
:1031C000080300221A605A609A60DA603B460022C7
:1031D0001A605A601E4B1F4A1A601D4B47225A60E4
:1031E0001B4B00229A601A4B4FF6FF72DA60184BA5
:1031F00000221A61164B00225A61154B00229A6177
:10320000134802F0FBFA0346002B01D000F0ECF962
:103210004FF48053BB6007F1080319460C4802F0D5
:1032200035FE0346002B01D000F0DEF900233B60A1
:1032300000237B603B461946054803F09DFA034690
:10324000002B01D000F0D0F900BF1837BD4680BD7B
:103250008C0C0020002C014080B586B000AF07F137
:10326000100300221A605A603B4600221A605A601E
:103270009A60DA60204B214A1A601F4B47225A603D
:103280001D4B00229A601C4B4FF6FF72DA601A4BFE
:1032900000221A61184B00229A61174802F04CFB79
:1032A0000346002B01D000F09FF900233B6100236F
:1032B0007B6107F1100319460F4803F05DFA0346DE
:1032C000002B01D000F090F900233B6001237B60CC
:1032D0000023BB600023FB603B46002219460648E2
:1032E00002F081FC0346002B01D000F07DF900BF05
:1032F0001837BD4680BD00BF8C0B00200004004085
:1033000080B58AB000AF07F1200300221A605A602E
:103310003B1D00221A605A609A60DA601A615A6195
:103320009A61334B334A1A60314B47225A60304B13
:1033300000229A602E4B44F62062DA602C4B002269
:103340001A612B4B00229A61294802F0A6FA034623
:10335000002B01D000F048F900233B6200237B6280
:1033600007F120031946224803F006FA0346002B12
:1033700001D000F039F960237B604FF47A73BB60B1
:103380000023FB6000237B613B1D00221946184887
:1033900002F0BEFC0346002B01D000F025F93B1DD6
:1033A00004221946124802F0B3FC0346002B01D058
:1033B00000F01AF93B1D082219460D4802F0A8FC3E
:1033C0000346002B01D000F00FF93B1D0C221946DB
:1033D000074802F09DFC0346002B01D000F004F9E1
:1033E000034800F0BFFA00BF2837BD4680BD00BFCC
:1033F000E40A00200008004080B500AF114B124ADB
:103400001A60104B4FF416525A600E4B00229A600D
:103410000C4B0022DA600B4B00221A61094B0C2284
:103420005A61084B00229A61064B0022DA61054876
:1034300003F012FA0346002B01D000F0D5F800BFCC
:1034400080BD00BF040C00200038014080B500AFF3
:10345000114B124A1A60104B4FF461425A600E4BE6
:1034600000229A600C4B0022DA600B4B00221A619A
:10347000094B0C225A61084B00229A61064B00222C
:10348000DA61054803F0E8F90346002B01D000F0AB
:10349000ABF800BF80BD00BF2C0D002000440040F1
:1034A00080B582B000AF0C4B5B690B4A43F001035F
:1034B0005361094B5B6903F001037B607B68002269
:1034C00000210B2000F0DDFE0B2000F0F6FE00BF17
:1034D0000837BD4680BD00BF0010024080B588B0EF
:1034E00000AF07F1100300221A605A609A60DA6098
:1034F000394B9B69384A43F010039361364B9B6903
:1035000003F01003FB60FB68334B9B69324A43F0C6
:1035100020039361304B9B6903F02003BB60BB68C1
:103520002D4B9B692C4A43F0040393612A4B9B6902
:1035300003F004037B607B68274B9B69264A43F0BA
:1035400008039361244B9B6903F008033B603B68CD
:1035500000224FF40051214801F05EFA00224FF49E
:10356000C0411F4801F058FA00224FF400411D48A5
:1035700001F052FA4FF400533B6101237B610023B9
:10358000BB610223FB6107F110031946134801F0E8
:10359000BFF84FF4C0433B6101237B610023BB6153
:1035A0000223FB6107F1100319460D4801F0B0F842
:1035B0004FF400433B6101237B610023BB61022385
:1035C000FB6107F110031946064801F0A1F800BF9E
:1035D0002037BD4680BD00BF0010024000100140F2
:1035E000000C01400008014080B400AF72B600BF7B
:1035F000FEE7000080B485B000AF154B9B69144A0C
:1036000043F001039361124B9B6903F00103BB601C
:10361000BB680F4BDB690E4A43F08053D3610C4B00
:10362000DB6903F080537B607B680A4B5B68FB605F
:10363000FB6823F0E063FB60FB6843F00073FB6012
:10364000044AFB68536000BF1437BD4680BC704716
:10365000001002400000014080B588B000AF7860E3
:1036600007F1100300221A605A609A60DA607B68E2
:103670001B68294A93424AD1284B9B69274A43F445
:1036800000739361254B9B6903F40073FB60FB6837
:10369000224B9B69214A43F0040393611F4B9B69B2
:1036A00003F00403BB60BB6803233B6103237B611E
:1036B00007F1100319461A4801F02AF8194B1A4A63
:1036C0001A60184B00225A60164B00229A60154B64
:1036D0008022DA60134B4FF480721A61114B4FF461
:1036E00080625A610F4B00229A610E4B4FF40052D8
:1036F000DA610C4800F0FCFD0346002B01D0FFF717
:1037000073FF7B68074A1A62064A7B68536200BFF0
:103710002037BD4680BD00BF00240140001002409C
:1037200000080140480C00200800024080B588B025
:1037300000AF786007F1100300221A605A609A60A7
:10374000DA607B681B68164A934224D1154B9B694B
:10375000144A43F008039361124B9B6903F008037A
:10376000FB60FB684FF440633B6112237B610323E2
:10377000FB6107F1100319460B4800F0C9FF094B24
:10378000DB69084A43F48003D361064BDB6903F429
:103790008003BB60BB6800BF2037BD4680BD00BF53
:1037A0000058004000100240000C014080B58AB073
:1037B00000AF786007F1140300221A605A609A6023
:1037C000DA607B681B68224A93423DD1214B9B699A
:1037D000204A43F4805393611E4B9B6903F480534A
:1037E0003B613B691B4B9B691A4A43F00803936199
:1037F000184B9B6903F00803FB60FB6828237B617F
:103800000223BB6103233B6207F1140319461248EC
:1038100000F07EFF10237B610023BB610023FB616E
:1038200007F1140319460C4800F072FF0B4B5B685C
:103830007B627B6A43F0E0637B627B6A43F0010357
:103840007B62064A7B6A536000BF2837BD4680BD55
:103850000030014000100240000C01400000014017
:1038600080B485B000AF78607B681B68094A9342DA
:103870000BD1094B9B69084A43F400639361064BE3
:103880009B6903F40063FB60FB6800BF1437BD460F
:1038900080BC7047002C01400010024080B588B009
:1038A00000AF786007F1100300221A605A609A6036
:1038B000DA607B681B68194A93422BD1184BDB698D
:1038C000174A43F00203D361154BDB6903F002038F
:1038D000FB60FB68124B9B69114A43F00403936140
:1038E0000F4B9B6903F00403BB60BB6840233B6143
:1038F00000237B610023BB6107F1100319460948CF
:1039000000F006FF002200211D2000F0BAFC1D205F
:1039100000F0D3FC00BF2037BD4680BD000400404E
:10392000001002400008014080B485B000AF78600C
:103930007B681B68094A93420BD1094BDB69084A33
:1039400043F00403D361064BDB6903F00403FB601F
:10395000FB6800BF1437BD4680BC704700080040BC
:103960000010024080B588B000AF786007F1100306
:1039700000221A605A609A60DA607B681B68104AFD
:10398000934218D10F4B9B690E4A43F00803936191
:103990000C4B9B6903F00803FB60FB684FF47073EA
:1039A0003B6102237B610223FB6107F1100319468F
:1039B000054800F0ADFE00BF2037BD4680BD00BF0A
:1039C0000008004000100240000C014080B58AB0A1
:1039D00000AF786007F1180300221A605A609A60FD
:1039E000DA607B681B683F4A93423AD13E4B9B6941
:1039F0003D4A43F4804393613B4B9B6903F480430E
:103A00007B617B69384B9B69374A43F004039361C0
:103A1000354B9B6903F004033B613B694FF4007332
:103A2000BB610223FB6103237B6207F11803194684
:103A30002E4800F06DFE4FF48063BB610023FB61F4
:103A400000233B6207F118031946284800F060FE86
:103A500000220021252000F014FC252000F02DFC80
:103A60003CE07B681B68224A934237D11E4BDB69DE
:103A70001D4A43F40033D3611B4BDB6903F400336D
:103A8000FB60FB68184B9B69174A43F00403936182
:103A9000154B9B6903F00403BB60BB680423BB6147
:103AA0000223FB6103237B6207F1180319460F48C9
:103AB00000F02EFE0823BB610023FB6100233B6264
:103AC00007F118031946094800F022FE00220021E0
:103AD000262000F0D6FB262000F0EFFB00BF2837A1
:103AE000BD4680BD00380140001002400008014082
:103AF0000044004080B400AFFEE780B400AFFEE7B2
:103B000080B400AFFEE780B400AFFEE780B400AF42
:103B1000FEE780B400AF00BFBD4680BC704780B4F4
:103B200000AF00BFBD4680BC704780B400AF00BF8F
:103B3000BD4680BC704780B500AF00F09DF800BF67
:103B400080BD000080B500AF024800F0DBFC00BF84
:103B500080BD00BF480C002080B500AF024801F0D6
:103B60003AFF00BF80BD00BF8C0B002080B500AFC6
:103B7000024802F081FF00BF80BD00BF040C00209E
:103B800080B500AF024802F077FF00BF80BD00BFE4
:103B90002C0D002080B400AF00BFBD4680BC704734
:103BA0000C480D490D4A002302E0D458C450043398
:103BB000C4188C42F9D30A4A0A4C002301E013606E
:103BC0000432A242FBD3FFF7E5FF04F009FBFFF745
:103BD000AFF970470000002070000020C882000884
:103BE00070000020740D0020FEE7000080B500AFDB
:103BF000084B1B68074A43F010031360032000F0D2
:103C000035FB0F2000F008F8FFF7F4FC00231846FE
:103C100080BD00BF0020024080B582B000AF786058
:103C2000124B1A68124B1B7819464FF47A73B3FB88
:103C3000F1F3B2FBF3F3184600F04DFB0346002B03
:103C400001D001230EE07B680F2B0AD8002279688F
:103C50004FF0FF3000F015FB064A7B68136000232D
:103C600000E0012318460837BD4680BD0000002053
:103C7000080000200400002080B400AF054B1B7832
:103C80001A46054B1B681344034A136000BFBD4628
:103C900080BC704708000020700D002080B400AF89
:103CA000024B1B681846BD4680BC7047700D002053
:103CB00080B586B000AF78600023FB7500233B61C0
:103CC0000023BB600023FB607B68002B01D1012334
:103CD000BEE07B689B68002B7B689B6A002B09D148
:103CE0007B680022DA627B68002283F824207868EF
:103CF000FFF7B2FC786800F0ABF90346FB757B6810
:103D00009B6A03F01003002B40F09980FB7D002B91
:103D100040F095807B689B6A23F4885323F002036C
:103D200043F002027B689A627B685A687B68DB69B1
:103D30001A437B681B7B5B001343BA681343BB6069
:103D40007B689B68B3F5807F03D07B689B68012B01
:103D500002D14FF4807300E000233A6913433B61C2
:103D60007B681B7D012B19D17B681B7B002B09D144
:103D70007B689B69013B5A033B69134343F400632F
:103D80003B610BE07B689B6A43F020027B689A6290
:103D90007B68DB6A43F001027B68DA627B681B6840
:103DA0005B6823F469417B681B683A690A435A607F
:103DB0007B681B689A68284B13407A681268B96858
:103DC0000B4393607B689B68B3F5807F03D07B686F
:103DD0009B68012B04D17B681B69013B1B05FB60C1
:103DE0007B681B68DB6A23F470017B681B68FA68D8
:103DF0000A43DA627B681B689A68184B1340BA68FA
:103E00009A420BD17B680022DA627B689B6A23F0BE
:103E1000030343F001027B689A6218E07B689B6AA7
:103E200023F0120343F010027B689A627B68DB6A1E
:103E300043F001027B68DA620123FB7507E07B68CF
:103E40009B6A43F010027B689A620123FB75FB7D3D
:103E500018461837BD4680BDFDF7E1FFFE0E1FFF77
:103E600080B485B000AF786039600023FB73002315
:103E7000BB607B6893F82430012B01D10223DCE086
:103E80007B68012283F824203B685B68062B1CD8E2
:103E90007B681B68596B3B685A6813469B00134448
:103EA000053B1F2202FA03F3DB4319403B68186805
:103EB0003B685A6813469B001344053B00FA03F223
:103EC0007B681B680A435A633CE03B685B680C2BC9
:103ED0001CD87B681B68196B3B685A6813469B00AB
:103EE0001344233B1F2202FA03F3DB4319403B68D0
:103EF00018683B685A6813469B001344233B00FA3A
:103F000003F27B681B680A431A631BE07B681B682B
:103F1000D96A3B685A6813469B001344413B1F22F1
:103F200002FA03F3DB4319403B6818683B685A68A0
:103F300013469B001344413B00FA03F27B681B6865
:103F40000A43DA623B681B68092B1CD97B681B6833
:103F5000D9683B681A6813465B0013441E3B07226E
:103F600002FA03F3DB4319403B6898683B681A6820
:103F700013465B0013441E3B00FA03F27B681B6888
:103F80000A43DA6019E07B681B6819693B681A68A4
:103F900013465B001344072202FA03F3DB43194084
:103FA0003B6898683B681A6813465B00134400FA44
:103FB00003F27B681B680A431A613B681B68102B7D
:103FC00003D03B681B68112B32D17B681B681D4AEC
:103FD000934225D17B681B689B6803F40003002B88
:103FE00026D17B681B689A687B681B6842F40002D4
:103FF0009A603B681B68102B1AD1134B1B68134A3D
:10400000A2FB03239A0C13469B0013445B00BB6086
:1040100002E0BB68013BBB60BB68002BF9D107E045
:104020007B689B6A43F020027B689A620123FB73E2
:104030007B68002283F82420FB7B18461437BD469A
:1040400080BC7047002401400000002083DE1B4339
:1040500080B584B000AF78600023FB607B681B688C
:104060009B6803F00103012B2ED17B681B689A68C3
:104070007B681B6822F001029A60FFF70FFEF86070
:104080001BE0FFF70BFE0246FB68D31A022B14D984
:104090007B681B689B6803F00103012B0DD17B68D3
:1040A0009B6A43F010027B689A627B68DB6A43F08C
:1040B00001027B68DA62012307E07B681B689B686A
:1040C00003F00103012BDCD0002318461037BD4656
:1040D00080BD000080B485B000AF78607B6803F0DD
:1040E0000703FB600C4BDB68BB60BA684FF6FF034D
:1040F0001340BB60FB681A02BB68134343F0BF6305
:1041000043F40033BB60044ABB68D36000BF14377C
:10411000BD4680BC704700BF00ED00E080B400AF3A
:10412000044BDB681B0A03F007031846BD4680BC3E
:10413000704700BF00ED00E080B483B000AF0346DD
:10414000FB7197F90730002B0BDBFB7903F01F02A3
:10415000064997F907305B09012000FA02F241F89D
:10416000232000BF0C37BD4680BC704700E100E053
:1041700080B483B000AF03463960FB7197F9073014
:10418000002B0ADB3B68DAB20C4997F907301201C1
:10419000D2B20B4483F800230AE03B68DAB2084944
:1041A000FB7903F00F03043B1201D2B20B441A76E1
:1041B00000BF0C37BD4680BC704700BF00E100E087
:1041C00000ED00E080B489B000AFF860B9607A60BB
:1041D000FB6803F00703FB61FB69C3F10703042BD2
:1041E00028BF0423BB61FB690433062B02D9FB699A
:1041F000033B00E000237B614FF0FF32BB6902FA12
:1042000003F3DA43BB681A407B699A404FF0FF31F1
:104210007B6901FA03F3D9437B680B4013431846CB
:104220002437BD4680BC704780B582B000AF78604F
:104230007B68013BB3F1807F01D301230FE00A4A81
:104240007B68013B53600F214FF0FF30FFF790FF79
:10425000054B00229A60044B07221A60002318467F
:104260000837BD4680BD00BF10E000E080B582B0D9
:1042700000AF78607868FFF72DFF00BF0837BD46B4
:1042800080BD80B586B000AF0346B9607A60FB732D
:1042900000237B61FFF742FF78617A68B96878692B
:1042A000FFF790FF024697F90F3011461846FFF7C7
:1042B0005FFF00BF1837BD4680BD80B582B000AF3C
:1042C0000346FB7197F907301846FFF735FF00BF2B
:1042D0000837BD4680BD80B582B000AF7860786891
:1042E000FFF7A2FF034618460837BD4680BD000011
:1042F00080B485B000AF78600023FB607B68002B42
:1043000001D1012343E07B681B681A46224B13440A
:10431000224AA2FB03231B099A007B681A647B686C
:104320001F4ADA637B68022283F821207B681B68BE
:104330001B68FB60FB6823F47F5323F03003FB60B2
:104340007B685A687B689B681A437B68DB681A4302
:104350007B681B691A437B685B691A437B689B69AE
:104360001A437B68DB691343FA681343FB607B687D
:104370001B68FA681A607B6800229A637B680122D6
:1043800083F821207B68002283F820200023184630
:104390001437BD4680BC7047F8FFFDBFCDCCCCCCF8
:1043A0000000024080B485B000AF78600023FB734A
:1043B0007B6893F82130022B08D07B6804229A6333
:1043C0007B68002283F82020012320E07B681B68A3
:1043D0001A687B681B6822F00E021A607B681B68F3
:1043E0001A687B681B6822F001021A607B681A6CED
:1043F0007B68DB6B012101FA02F25A607B680122C3
:1044000083F821207B68002283F82020FB7B18465C
:104410001437BD4680BC704780B584B000AF78606B
:104420000023FB737B6893F82130022B05D07B6857
:1044300004229A630123FB7351E07B681B681A68AE
:104440007B681B6822F00E021A607B681B681A6882
:104450007B681B6822F001021A607B681B68224A95
:10446000934229D07B681B68204A934222D07B6804
:104470001B681F4A93421AD07B681B681D4A9342EF
:1044800012D07B681B681C4A93420AD07B681B6869
:104490001A4A934202D14FF480130EE04FF080731A
:1044A0000BE04FF4803308E04FF4805305E04FF405
:1044B000807302E0102300E00123114A53607B68FF
:1044C000012283F821207B68002283F820207B686A
:1044D0005B6B002B03D07B685B6B78689847FB7B3A
:1044E00018461037BD4680BD080002401C0002403F
:1044F0003000024044000240580002406C0002407C
:104500000000024080B584B000AF78607B68DB6B50
:104510001B68FB607B681B681B68BB607B681B6C4F
:1045200004229A40FB681340002B4FD0BB6803F075
:104530000403002B4AD07B681B681B6803F0200330
:10454000002B07D17B681B681A687B681B6822F008
:1045500004021A607B681B68664A934229D07B6814
:104560001B68654A934222D07B681B68634A93426A
:104570001AD07B681B68624A934212D07B681B6822
:10458000604A93420AD07B681B685F4A934202D11B
:104590004FF480030EE04FF080630BE04FF4802374
:1045A00008E04FF4804305E04FF4806302E04023CD
:1045B00000E00423554A53607B68DB6A002B00F05F
:1045C00094807B68DB6A786898478EE07B681B6C18
:1045D00002229A40FB681340002B56D0BB6803F0C0
:1045E0000203002B51D07B681B681B6803F020037B
:1045F000002B0BD17B681B681A687B681B6822F054
:104600000A021A607B68012283F821207B681B68FC
:10461000384A934229D07B681B68374A934222D09C
:104620007B681B68354A93421AD07B681B68344A02
:10463000934212D07B681B68324A93420AD07B684F
:104640001B68314A934202D14FF400130EE04FF041
:1046500000730BE04FF4003308E04FF4005305E023
:104660004FF4007302E0202300E00223274A536046
:104670007B68002283F820207B689B6A002B34D063
:104680007B689B6A786898472FE07B681B6C0822E0
:104690009A40FB681340002B28D0BB6803F0080346
:1046A000002B23D07B681B681A687B681B6822F08C
:1046B0000E021A607B681A6C7B68DB6B012101FAC1
:1046C00002F25A607B6801229A637B68012283F8B8
:1046D00021207B68002283F820207B681B6B002B45
:1046E00004D07B681B6B7868984700BF00BF103709
:1046F000BD4680BD080002401C0002403000024060
:1047000044000240580002406C0002400000024099
:1047100080B48BB000AF7860396000237B620023E7
:104720003B6269E101227B6A02FA03F3FB613B68A9
:104730001B68FA691340BB61BA69FB699A4240F091
:1047400058813B685B689A4A93425ED0984A93428C
:1047500075D8984A934258D0964A93426FD8964A51
:10476000934252D0944A934269D8944A93424CD08F
:10477000924A934263D8924A934246D0904A9342D7
:104780005DD8122B2AD8122B59D801A252F823F047
:104790000B480008E5470008F747000839480008BB
:1047A0003F4800083F4800083F4800083F480008CD
:1047B0003F4800083F4800083F4800083F480008BD
:1047C0003F4800083F4800083F4800083F480008AD
:1047D0003F480008ED47000801480008794A934225
:1047E00013D02CE03B68DB683B6229E03B68DB6868
:1047F00004333B6224E03B68DB6808333B621FE024
:104800003B68DB680C333B621AE03B689B68002B1B
:1048100002D104233B6213E03B689B68012B05D166
:1048200008233B627B68FA691A6109E008233B624E
:104830007B68FA695A6103E000233B6200E000BF35
:10484000BB69FF2B01D87B6801E07B6804337B6187
:10485000BB69FF2B02D87B6A9B0002E07B6A083BA6
:104860009B003B617B691A680F213B6901FA03F3E6
:10487000DB431A40396A3B6901FA03F31A437B6947
:104880001A603B685B6803F08053002B00F0B18036
:104890004D4B9B694C4A43F0010393614A4B9B6922
:1048A00003F00103BB60BB68484A7B6A9B08023384
:1048B00052F82330FB607B6A03F003039B000F2256
:1048C00002FA03F3DB43FA681340FB607B68404A5B
:1048D000934213D07B683F4A93420DD07B683E4A97
:1048E000934207D07B683D4A934201D1032306E0FF
:1048F000042304E0022302E0012300E000237A6A9B
:1049000002F0030292009340FA681343FB602F49C0
:104910007B6A9B080233FA6841F823203B685B6896
:1049200003F48033002B06D02D4B1A682C49BB6949
:1049300013430B6006E02A4B1A68BB69DB43284926
:1049400013400B603B685B6803F40033002B06D018
:10495000234B5A682249BB6913434B6006E0204B46
:104960005A68BB69DB431E4913404B603B685B6878
:1049700003F48013002B06D0194B9A681849BB69C1
:1049800013438B6006E0164B9A68BB69DB431449FE
:1049900013408B603B685B6803F40013002B21D04D
:1049A0000F4BDA680E49BB691343CB6021E000BFAF
:1049B0000000321000003110000022100000211011
:1049C0000000121000001110001002400000014011
:1049D00000080140000C014000100140001401409B
:1049E000000401400B4BDA68BB69DB430949134003
:1049F000CB607B6A01337B623B681A687B6A22FA70
:104A000003F3002B7FF48EAE00BF00BF2C37BD46F2
:104A100080BC70470004014080B483B000AF786070
:104A20000B467B8013467B707B78002B03D07A8803
:104A30007B681A6103E07B881A047B681A6100BFF7
:104A40000C37BD4680BC704780B584B000AF78603D
:104A50007B68002B01D101232BE17B6893F83D306B
:104A6000DBB2002B06D17B68002283F83C207868FB
:104A7000FEF75CFE7B68242283F83D207B681B6880
:104A80001A687B681B6822F001021A607B681B6849
:104A90001A687B681B6842F400421A607B681B68D6
:104AA0001A687B681B6822F400421A6000F026FD39
:104AB000F8607B685B68814A934207D8FB68804A4C
:104AC000934294BF01230023DBB206E0FB687D4ADA
:104AD000934294BF01230023DBB2002B01D00123BA
:104AE000E7E0FB68784AA2FB03239B0CBB607B6872
:104AF0001B685B6823F03F017B681B68BA680A4348
:104B00005A607B681B681B6A23F03F017B685B6807
:104B10006A4A934202D8BB68013309E0BB684FF48C
:104B2000967202FB03F3694AA2FB03239B0901333C
:104B30007A6812680B4313627B681B68DB6923F495
:104B40004F4222F0FF027B685B685C498B4219D8B8
:104B5000FB68591E7B685B685B00B1FBF3F3591C73
:104B600040F6FC730B40002B0AD0FB68591E7B6893
:104B70005B685B00B1FBF3F30133C3F30B0351E05C
:104B800004234FE07B689B68002B11D1FB68581E03
:104B90007B6859680B465B000B44B0FBF3F30133B1
:104BA000C3F30B03002B0CBF01230023DBB212E085
:104BB000FB68581E7B6859680B469B000B449900A4
:104BC0000B44B0FBF3F30133C3F30B03002B0CBF17
:104BD00001230023DBB2002B01D0012322E07B68FC
:104BE0009B68002B0ED1FB68581E7B6859680B46EA
:104BF0005B000B44B0FBF3F30133C3F30B0343F44B
:104C000000430FE0FB68581E7B6859680B469B0009
:104C10000B4499000B44B0FBF3F30133C3F30B03D4
:104C200043F44043796809681343CB617B681B6890
:104C30001B6823F0C0017B68DA697B681B6A1A4332
:104C40007B681B680A431A607B681B689B6823F4B7
:104C5000034323F0FF037A6811697A68D26811432D
:104C60007A6812680B4393607B681B68DB6823F0EB
:104C7000FF017B685A697B689B691A437B681B68E4
:104C80000A43DA607B681B681A687B681B6842F01D
:104C900001021A607B6800221A647B68202283F874
:104CA0003D207B6800221A637B68002283F83E2047
:104CB000002318461037BD4680BD00BFA086010006
:104CC0007F841E00FF083D0083DE1B43D34D62102E
:104CD00080B584B000AF78607B68002B01D10123E0
:104CE00034E07B681B684CF6CC421A607B681B681A
:104CF00045F255521A607B681B687A6852685A60A0
:104D00007B681B687A6892689A60FEF7C7FFF86054
:104D10000FE0FEF7C3FF0246FB68D31A272B08D922
:104D20007B681B68DB6803F00303002B01D00323BF
:104D30000CE07B681B68DB6803F00303002BE8D101
:104D40007B681B684AF6AA221A60002318461037AF
:104D5000BD4680BD80B586B000AF78607B68002B13
:104D600001D101236CE27B681B6803F00103002B77
:104D700000F08780924B5B6803F00C03042B0CD08F
:104D80008F4B5B6803F00C03082B12D18C4B5B68D4
:104D900003F48033B3F5803F0BD1894B1B6803F4D8
:104DA0000033002B6CD07B685B68002B68D101233B
:104DB00046E27B685B68B3F5803F06D1804B1B6899
:104DC0007F4A43F4803313602EE07B685B68002BDE
:104DD0000CD17B4B1B687A4A23F480331360784BE9
:104DE0001B68774A23F4802313601DE07B685B68AF
:104DF000B3F5A02F0CD1724B1B68714A43F480238A
:104E000013606F4B1B686E4A43F4803313600BE0F2
:104E10006B4B1B686A4A23F480331360684B1B6832
:104E2000674A23F4802313607B685B68002B13D0F0
:104E3000FEF734FF386108E0FEF730FF02463B69B9
:104E4000D31A642B01D90323FAE15D4B1B6803F4E9
:104E50000033002BF0D014E0FEF720FF386108E0AB
:104E6000FEF71CFF02463B69D31A642B01D90323CA
:104E7000E6E1534B1B6803F40033002BF0D100E054
:104E800000BF7B681B6803F00203002B63D04C4B10
:104E90005B6803F00C03002B0BD0494B5B6803F0FD
:104EA0000C03082B1CD1464B5B6803F48033002BAA
:104EB00016D1434B1B6803F00203002B05D07B681F
:104EC0001B69012B01D00123BAE13D4B1B6823F084
:104ED000F8027B685B69DB00394913430B603AE0F9
:104EE0007B681B69002B20D0364B01221A60FEF72D
:104EF000D5FE386108E0FEF7D1FE02463B69D31AC1
:104F0000022B01D903239BE12D4B1B6803F0020305
:104F1000002BF0D02A4B1B6823F0F8027B685B69FA
:104F2000DB00274913430B6015E0264B00221A6073
:104F3000FEF7B4FE386108E0FEF7B0FE02463B69BA
:104F4000D31A022B01D903237AE11D4B1B6803F00E
:104F50000203002BF0D17B681B6803F00803002BD1
:104F60003AD07B689B69002B19D0174B01221A603D
:104F7000FEF794FE386108E0FEF790FE02463B69BA
:104F8000D31A022B01D903235AE10D4B5B6A03F0BC
:104F90000203002BF0D0012000F0D8FA1CE00A4BED
:104FA00000221A60FEF77AFE38610FE0FEF776FE07
:104FB00002463B69D31A022B08D9032340E100BF04
:104FC0000010024000004242800442429E4B5B6A55
:104FD00003F00203002BE9D17B681B6803F0040394
:104FE000002B00F0A6800023FB75974BDB6903F0D4
:104FF0008053002B0DD1944BDB69934A43F08053CF
:10500000D361914BDB6903F08053BB60BB68012324
:10501000FB758E4B1B6803F48073002B18D18B4BF0
:105020001B688A4A43F480731360FEF737FE3861C9
:1050300008E0FEF733FE02463B69D31A642B01D920
:105040000323FDE0814B1B6803F48073002BF0D039
:105050007B68DB68012B06D17B4B1B6A7A4A43F0E5
:10506000010313622DE07B68DB68002B0CD1764BCB
:105070001B6A754A23F001031362734B1B6A724A61
:1050800023F0040313621CE07B68DB68052B0CD162
:105090006D4B1B6A6C4A43F0040313626A4B1B6A34
:1050A000694A43F0010313620BE0674B1B6A664ACF
:1050B00023F001031362644B1B6A634A23F0040369
:1050C00013627B68DB68002B15D0FEF7E7FD3861C3
:1050D0000AE0FEF7E3FD02463B69D31A41F288324B
:1050E000934201D90323ABE0574B1B6A03F0020341
:1050F000002BEED014E0FEF7D1FD38610AE0FEF798
:10510000CDFD02463B69D31A41F28832934201D960
:10511000032395E04C4B1B6A03F00203002BEED1F6
:10512000FB7D012B05D1484BDB69474A23F08053B7
:10513000D3617B68DB69002B00F08180424B5B68A8
:1051400003F00C03082B61D07B68DB69022B46D18E
:105150003F4B00221A60FEF7A1FD386108E0FEF720
:105160009DFD02463B69D31A022B01D9032367E058
:10517000354B1B6803F00073002BF0D17B681B6A72
:10518000B3F5803F08D1304B5B6823F400327B6875
:105190009B682D4913434B602B4B5B6823F47412BF
:1051A0007B68196A7B685B6A0B43274913434B6032
:1051B000274B01221A60FEF771FD386108E0FEF707
:1051C0006DFD02463B69D31A022B01D9032337E058
:1051D0001D4B1B6803F00073002BF0D02FE01C4B1D
:1051E00000221A60FEF75AFD386108E0FEF756FD0E
:1051F00002463B69D31A022B01D9032320E0124B4C
:105200001B6803F00073002BF0D118E07B68DB69AA
:10521000012B01D1012313E00B4B5B68FB60FB68A2
:1052200003F480327B681B6A9A4206D1FB6803F460
:1052300070127B685B6A9A4201D0012300E0002370
:1052400018461837BD4680BD00100240007000406F
:105250006000424280B584B000AF786039607B68FE
:10526000002B01D10123D0E06A4B1B6803F0070338
:105270003A689A4210D9674B1B6823F007026549C8
:105280003B6813430B60634B1B6803F007033A68EA
:105290009A4201D00123B8E07B681B6803F0020347
:1052A000002B20D07B681B6803F00403002B05D083
:1052B000594B5B68584A43F4E06353607B681B6852
:1052C00003F00803002B05D0534B5B68524A43F4AC
:1052D00060535360504B5B6823F0F0027B689B681F
:1052E0004D4913434B607B681B6803F00103002B9F
:1052F00040D07B685B68012B07D1474B1B6803F4E8
:105300000033002B15D101237FE07B685B68022B03
:1053100007D1414B1B6803F00073002B09D1012317
:1053200073E03D4B1B6803F00203002B01D1012306
:105330006BE0394B5B6823F003027B685B6836499E
:1053400013434B60FEF7AAFCF8600AE0FEF7A6FCE8
:105350000246FB68D31A41F28832934201D90323F3
:1053600053E02D4B5B6803F00C027B685B689B008D
:105370009A42EBD1274B1B6803F007033A689A4225
:1053800010D2244B1B6823F0070222493B681343C9
:105390000B60204B1B6803F007033A689A4201D068
:1053A000012332E07B681B6803F00403002B08D064
:1053B000194B5B6823F4E0627B68DB681649134392
:1053C0004B607B681B6803F00803002B09D0124B6D
:1053D0005B6823F460527B681B69DB000E49134352
:1053E0004B6000F021F802460B4B5B681B0903F091
:1053F0000F030A49CB5C22FA03F3094A1360094BF5
:105400001B681846FEF708FC002318461037BD46F7
:1054100080BD00BF002002400010024060820008F2
:10542000000000200400002090B48AB000AF2A4B96
:105430003C1D0FCB84E80F0040F201233B8000238A
:10544000FB610023BB6100237B6200237B6100239F
:105450003B62224B5B68FB61FB6903F00C03042B8E
:1054600002D0082B03D02DE01D4B3B622DE0FB69E1
:105470009B0C03F00F0307F12802134413F8243C9C
:105480007B61FB6903F48033002B13D0134B5B6803
:105490005B0C03F0010307F12802134413F8283CC6
:1054A000BB617B690E4A02FB03F2BB69B2FBF3F3FB
:1054B0007B6204E07B690B4A02FB03F37B627B6A3D
:1054C0003B6202E0064B3B6200BF3B6A184628374E
:1054D000BD4690BC704700BF5082000800100240DB
:1054E00000127A0000093D0080B400AF024B1B6837
:1054F0001846BD4680BC70470000002080B500AF54
:10550000FFF7F2FF0246054B5B681B0A03F0070337
:105510000349CB5C22FA03F3184680BD0010024019
:105520007082000880B500AFFFF7DEFF0246054B32
:105530005B68DB0A03F007030349CB5C22FA03F341
:10554000184680BD001002407082000880B485B00B
:1055500000AF78600A4B1B680A4AA2FB03235B0A70
:105560007A6802FB03F3FB6000BFFB685A1EFA6017
:10557000002BF9D100BF00BF1437BD4680BC704777
:1055800000000020D34D621080B586B000AF786077
:1055900000233B610023FB607B681B6803F0010371
:1055A000002B7DD00023FB754F4BDB6903F080534C
:1055B000002B0DD14C4BDB694B4A43F08053D36138
:1055C000494BDB6903F08053BB60BB680123FB756B
:1055D000464B1B6803F48073002B18D1434B1B68A8
:1055E000424A43F480731360FEF758FB386108E0C9
:1055F000FEF754FB02463B69D31A642B01D90323FF
:105600006DE03A4B1B6803F48073002BF0D0364BEF
:105610001B6A03F44073FB60FB68002B2ED07B6891
:105620005B6803F44073FA689A4227D02E4B1B6ADA
:1056300023F44073FB602E4B01221A602C4B002296
:105640001A60294AFB681362FB6803F00103002B10
:1056500014D0FEF723FB38610AE0FEF71FFB024679
:105660003B69D31A41F28832934201D9032336E0D1
:105670001D4B1B6A03F00203002BEED01A4B1B6A72
:1056800023F440727B685B68174913430B62FB7D10
:10569000012B05D1144BDB69134A23F08053D361EE
:1056A0007B681B6803F00203002B08D00E4B5B687D
:1056B00023F440427B689B680B4913434B607B6833
:1056C0001B6803F01003002B08D0074B5B6823F422
:1056D00080027B68DB68044913434B600023184653
:1056E0001837BD4680BD00BF00100240007000406A
:1056F0004004424280B582B000AF78607B68002BE6
:1057000001D1012376E07B685B6A002B08D17B68BE
:105710005B68B3F5827F09D07B680022DA6105E01F
:105720007B6800221A617B6800225A617B68002234
:105730009A627B6893F85130DBB2002B06D17B680C
:10574000002283F850207868FEF730F87B68022248
:1057500083F851207B681B681A687B681B6822F0FD
:1057600040021A607B685B6803F482727B689B6806
:1057700003F404431A437B68DB6803F400631A43B1
:105780007B681B6903F002031A437B685B6903F0C3
:1057900001031A437B689B6903F400731A437B6817
:1057A000DB6903F038031A437B681B6A03F080034C
:1057B00042EA03017B689B6A03F400527B681B6822
:1057C0000A431A607B689B691A0C7B681B6802F0AD
:1057D00004025A607B681B68DA697B681B6822F4E4
:1057E0000062DA617B6800225A657B68012283F8D7
:1057F0005120002318460837BD4680BD80B582B0D1
:1058000000AF78607B68002B01D1012341E07B6809
:1058100093F83D30DBB2002B06D17B68002283F881
:105820003C207868FEF71CF87B68022283F83D2054
:105830007B681A687B6804331946104600F00EFC3A
:105840007B68012283F846207B68012283F83E2092
:105850007B68012283F83F207B68012283F8402087
:105860007B68012283F841207B68012283F8422073
:105870007B68012283F843207B68012283F844205F
:105880007B68012283F845207B68012283F83D2054
:10589000002318460837BD4680BD80B582B000AFF2
:1058A00078607B68002B01D1012341E07B6893F88D
:1058B0003D30DBB2002B06D17B68002283F83C2010
:1058C0007868FEF731F87B68022283F83D207B6818
:1058D0001A687B6804331946104600F0BFFB7B68EA
:1058E000012283F846207B68012283F83E207B68F2
:1058F000012283F83F207B68012283F840207B68E7
:10590000012283F841207B68012283F842207B68D2
:10591000012283F843207B68012283F844207B68BE
:10592000012283F845207B68012283F83D20002373
:1059300018460837BD4680BD80B582B000AF78609C
:105940007B68002B01D1012341E07B6893F83D3057
:10595000DBB2002B06D17B68002283F83C207868FC
:10596000FDF79CFF7B68022283F83D207B681A6864
:105970007B6804331946104600F070FB7B680122F7
:1059800083F846207B68012283F83E207B68012251
:1059900083F83F207B68012283F840207B68012246
:1059A00083F841207B68012283F842207B68012232
:1059B00083F843207B68012283F844207B6801221E
:1059C00083F845207B68012283F83D200023184698
:1059D0000837BD4680BD80B582B000AF78607B6877
:1059E0001B681B6903F00203022B22D17B681B6832
:1059F000DB6803F00203022B1BD17B681B686FF08E
:105A000002021A617B6801221A777B681B689B6916
:105A100003F00303002B03D07868FDF7F1F805E0ED
:105A2000786800F000FB786800F006FB7B680022D5
:105A30001A777B681B681B6903F00403042B22D1CF
:105A40007B681B68DB6803F00403042B1BD17B68B5
:105A50001B686FF004021A617B6802221A777B6868
:105A60001B689B6903F44073002B03D07868FDF733
:105A7000C7F805E0786800F0D6FA786800F0DCFA3C
:105A80007B6800221A777B681B681B6903F0080398
:105A9000082B22D17B681B68DB6803F00803082B06
:105AA0001BD17B681B686FF008021A617B680422B7
:105AB0001A777B681B68DB6903F00303002B03D0B4
:105AC0007868FDF79DF805E0786800F0ACFA786832
:105AD00000F0B2FA7B6800221A777B681B681B69AA
