:020000040800F2
:1000000000500020B1290008692900086B29000868
:100010006D2900086F290008712900080000000000
:10002000000000000000000000000000732900082C
:1000300075290008000000007729000879290008C8
:10004000F9290008F9290008F9290008F929000808
:10005000F9290008F9290008F9290008F9290008F8
:10006000F9290008F9290008F92900087D29000864
:10007000F9290008F9290008F9290008F9290008D8
:10008000F9290008F9290008F9290008F9290008C8
:10009000F9290008F9290008F9290008F9290008B8
:1000A000F9290008F9290008F9290008F9290008A8
:1000B000F929000889290008F9290008F929000808
:1000C000F9290008F9290008F9290008F929000888
:1000D000F929000895290008A1290008F929000834
:1000E000F9290008F9290008F92900080000000092
:1000F0000000000000000000000000000000000000
:0C01000000000000000000005FF808F1A3
:1001100010B5054C237833B9044B13B10448AFF341
:1001200000800123237010BD780000200000000033
:100130005856000808B5034B1BB103490348AFF3F9
:10014000008008BD000000007C0000205856000818
:1001500081F0004102E000BF83F0004330B54FEA78
:1001600041044FEA430594EA050F08BF90EA020FE5
:100170001FBF54EA000C55EA020C7FEA645C7FEA78
:10018000655C00F0E2804FEA5454D4EB5555B8BF9B
:100190006D420CDD2C4480EA020281EA030382EA0C
:1001A000000083EA010180EA020281EA0303362D9E
:1001B00088BF30BD11F0004F4FEA01314FF4801C71
:1001C0004CEA113102D0404261EB410113F0004F83
:1001D0004FEA03334CEA133302D0524263EB43033A
:1001E00094EA050F00F0A780A4F10104D5F1200ED8
:1001F0000DDB02FA0EFC22FA05F2801841F1000133
:1002000003FA0EF2801843FA05F359410EE0A5F106
:1002100020050EF1200E012A03FA0EFC28BF4CF037
:10022000020C43FA05F3C01851EBE37101F00045ED
:1002300007D54FF0000EDCF1000C7EEB00006EEBFA
:100240000101B1F5801F1BD3B1F5001F0CD3490884
:100250005FEA30004FEA3C0C04F101044FEA4452DB
:1002600012F5800F80F09A80BCF1004F08BF5FEA62
:10027000500C50F1000041EB045141EA050130BD42
:100280005FEA4C0C404141EB0101013C28BFB1F554
:10029000801FE9D291F0000F04BF01460020B1FA9F
:1002A00081F308BF2033A3F10B03B3F120020CDA72
:1002B0000C3208DD02F1140CC2F10C0201FA0CF050
:1002C00021FA02F10CE002F11402D8BFC2F1200CB5
:1002D00001FA02F120FA0CFCDCBF41EA0C0190406B
:1002E000E41AA2BF01EB0451294330BD6FEA0404B4
:1002F0001F3C1CDA0C340EDC04F11404C4F120029F
:1003000020FA04F001FA02F340EA030021FA04F3B0
:1003100045EA030130BDC4F10C04C4F1200220FA07
:1003200002F001FA04F340EA0300294630BD21FA45
:1003300004F0294630BD94F0000F83F4801306BF0B
:1003400081F480110134013D4EE77FEA645C18BFFF
:100350007FEA655C29D094EA050F08BF90EA020F96
:1003600005D054EA000C04BF1946104630BD91EA8E
:10037000030F1EBF0021002030BD5FEA545C05D191
:100380004000494128BF41F0004130BD14F58004D0
:100390003CBF01F5801130BD01F0004545F0FE4144
:1003A00041F470014FF0000030BD7FEA645C1ABF79
:1003B000194610467FEA655C1CBF0B46024650EAB0
:1003C000013406BF52EA033591EA030F41F40021DC
:1003D00030BD00BF90F0000F04BF0021704730B562
:1003E0004FF4806404F132044FF000054FF0000137
:1003F00050E700BF90F0000F04BF0021704730B5F8
:100400004FF4806404F1320410F0004548BF4042CC
:100410004FF000013EE700BF42004FEAE2014FEA21
:1004200031014FEA02701FBF12F07F4393F07F4FFC
:1004300081F06051704732F07F4208BF704793F0FF
:100440007F4F04BF41F40021704730B54FF4607412
:1004500001F0004521F000411CE700BF50EA010215
:1004600008BF704730B54FF000050AE050EA0102BE
:1004700008BF704730B511F0004502D5404261EB2E
:1004800041014FF4806404F132045FEA915C3FF46F
:10049000D8AE4FF003025FEADC0C18BF03325FEA0C
:1004A000DC0C18BF033202EBDC02C2F1200300FABD
:1004B00003FC20FA02F001FA03FE40EA0E0021FAE2
:1004C00002F11444BDE600BF70B54FF0FF0C4CF4D0
:1004D000E06C1CEA11541DBF1CEA135594EA0C0F82
:1004E00095EA0C0F00F0DEF82C4481EA030621EABD
:1004F0004C5123EA4C5350EA013518BF52EA0335F8
:1005000041F4801143F4801338D0A0FB02CE4FF0A9
:100510000005E1FB02E506F00042E0FB03E54FF0D9
:100520000006E1FB03569CF0000F18BF4EF0010ED1
:10053000A4F1FF04B6F5007F64F5407404D25FEACD
:100540004E0E6D4146EB060642EAC62141EA555180
:100550004FEAC52040EA5E504FEACE2EB4F1FD0CC2
:1005600088BFBCF5E06F1ED8BEF1004F08BF5FEA40
:10057000500E50F1000041EB045170BD06F00046F2
:1005800046EA010140EA020081EA0301B4EB5C049F
:10059000C2BFD4EB0C0541EA045170BD41F4801197
:1005A0004FF0000E013C00F3AB8014F1360FDEBFBC
:1005B000002001F0004170BDC4F10004203C35DA98
:1005C0000C341BDC04F11404C4F1200500FA05F31B
:1005D00020FA04F001FA05F240EA020001F00042BC
:1005E00021F0004110EBD37021FA04F642EB060132
:1005F0005EEA430E08BF20EAD37070BDC4F10C045C
:10060000C4F1200500FA04F320FA05F001FA04F21F
:1006100040EA020001F0004110EBD37041F100010B
:100620005EEA430E08BF20EAD37070BDC4F1200516
:1006300000FA05F24EEA020E20FA04F301FA05F27E
:1006400043EA020321FA04F001F0004121FA04F226
:1006500020EA020000EBD3705EEA430E08BF20EAF6
:10066000D37070BD94F0000F0FD101F00046400030
:1006700041EB010111F4801F08BF013CF7D041EAB2
:10068000060195F0000F18BF704703F000465200B6
:1006900043EB030313F4801F08BF013DF7D043EA87
:1006A0000603704794EA0C0F0CEA135518BF95EA3D
:1006B0000C0F0CD050EA410618BF52EA4306D1D1C4
:1006C00081EA030101F000414FF0000070BD50EAE3
:1006D000410606BF1046194652EA430619D094EA6D
:1006E0000C0F02D150EA013613D195EA0C0F05D157
:1006F00052EA03361CBF104619460AD181EA0301AB
:1007000001F0004141F0FE4141F470014FF0000062
:1007100070BD41F0FE4141F4780170BD70B54FF0FD
:10072000FF0C4CF4E06C1CEA11541DBF1CEA13557D
:1007300094EA0C0F95EA0C0F00F0A7F8A4EB05045F
:1007400081EA030E52EA03354FEA013100F0888056
:100750004FEA03334FF0805545EA131343EA12631F
:100760004FEA022245EA111545EA10654FEA0026D4
:100770000EF000419D4208BF964244F1FD0404F58D
:10078000407402D25B084FEA3202B61A65EB0305E9
:100790005B084FEA32024FF480104FF4002CB6EBA6
:1007A000020E75EB030E22BFB61A754640EA0C0026
:1007B0005B084FEA3202B6EB020E75EB030E22BF66
:1007C000B61A754640EA5C005B084FEA3202B6EBA7
:1007D000020E75EB030E22BFB61A754640EA9C0066
:1007E0005B084FEA3202B6EB020E75EB030E22BF36
:1007F000B61A754640EADC0055EA060E18D04FEAF4
:10080000051545EA16754FEA06164FEAC30343EA93
:1008100052734FEAC2025FEA1C1CC0D111F4801F60
:100820000BD141EA00014FF000004FF0004CB6E759
:1008300011F4801F04BF01430020B4F1FD0C88BFF8
:10084000BCF5E06F3FF6AFAEB5EB030C04BFB6EB03
:10085000020C5FEA500C50F1000041EB045170BDF6
:100860000EF0004E4EEA113114EB5C04C2BFD4EB23
:100870000C0541EA045170BD41F480114FF0000EA7
:10088000013C90E645EA060E8DE60CEA135594EA23
:100890000C0F08BF95EA0C0F3FF43BAF94EA0C0F26
:1008A0000AD150EA01347FF434AF95EA0C0F7FF49B
:1008B00025AF104619462CE795EA0C0F06D152EAEF
:1008C00003353FF4FDAE1046194622E750EA4106D3
:1008D00018BF52EA43067FF4C5AE50EA41047FF4E4
:1008E0000DAF52EA43057FF4EBAE12E74FF0FF3C49
:1008F00006E000BF4FF0010C02E000BF4FF0010C1A
:100900004DF804CD4FEA410C7FEA6C5C4FEA430C92
:1009100018BF7FEA6C5C1BD001B050EA410C0CBFE1
:1009200052EA430C91EA030F02BF90EA020F002043
:10093000704710F1000F91EA030F58BF994208BFAA
:1009400090422CBFD8176FEAE37040F00100704767
:100950004FEA410C7FEA6C5C02D150EA013C07D1BE
:100960004FEA430C7FEA6C5CD6D152EA033CD3D009
:100970005DF8040B704700BF8446104662468C4603
:100980001946634600E000BF01B5FFF7B7FF002836
:1009900048BF10F1000F01BD4DF808EDFFF7F4FF5F
:1009A0000CBF012000205DF808FB00BF4DF808EDEA
:1009B000FFF7EAFF34BF012000205DF808FB00BF0D
:1009C0004DF808EDFFF7E0FF94BF012000205DF82F
:1009D00008FB00BF4DF808EDFFF7CEFF94BF0120E4
:1009E00000205DF808FB00BF4DF808EDFFF7C4FFDD
:1009F00034BF012000205DF808FB00BF4FEA410C26
:100A00007FEA6C5C02D150EA013C0AD14FEA430C08
:100A10007FEA6C5C02D152EA033C02D14FF0000045
:100A200070474FF0010070474FEA4102B2F1E043D6
:100A300024BFB3F5001CDCF1FE5C0DD901F0004CC5
:100A40004FEAC0024CEA5070B2F1004F40EB830015
:100A500008BF20F00100704711F0804F21D113F141
:100A60003872BCBF01F00040704741F480114FEA7A
:100A70005252C2F11802C2F1200C10FA0CF320FA03
:100A800002F018BF40F001004FEAC1234FEAD32320
:100A900003FA0CFC40EA0C0023FA02F34FEA43038A
:100AA000CCE77FEA625307D150EA01331EBF4FF013
:100AB000FE4040F44000704701F0004040F0FE402E
:100AC00040F40000704700BF80F0004002E000BF2B
:100AD00081F0004142001FBF5FEA410392EA030F29
:100AE0007FEA226C7FEA236C6AD04FEA1262D2EB73
:100AF0001363C1BFD218414048404140B8BF5B4278
:100B0000192B88BF704710F0004F40F4000020F010
:100B10007F4018BF404211F0004F41F4000121F026
:100B20007F4118BF494292EA030F3FD0A2F1010270
:100B300041FA03FC10EB0C00C3F1200301FA03F1AE
:100B400000F0004302D5494260EB4000B0F5000FD1
:100B500013D3B0F1807F06D340084FEA310102F190
:100B60000102FE2A51D2B1F1004F40EBC25008BF42
:100B700020F0010040EA03007047490040EB00000C
:100B8000013A28BFB0F5000FEDD2B0FA80FCACF10D
:100B9000080CB2EB0C0200FA0CF0AABF00EBC2503A
:100BA00052421843BCBFD0401843704792F0000F28
:100BB00081F4000106BF80F400000132013BB5E77B
:100BC0004FEA41037FEA226C18BF7FEA236C21D0F1
:100BD00092EA030F04D092F0000F08BF0846704756
:100BE00090EA010F1CBF0020704712F07F4F04D124
:100BF000400028BF40F00040704712F100723CBF37
:100C000000F50000704700F0004343F0FE4040F460
:100C1000000070477FEA226216BF08467FEA23631E
:100C20000146420206BF5FEA412390EA010F40F409
:100C3000800070474FF0000304E000BF10F0004355
:100C400048BF40425FEA000C08BF704743F096433C
:100C500001464FF000001CE050EA010208BF704757
:100C60004FF000030AE000BF50EA010208BF7047DE
:100C700011F0004302D5404261EB41015FEA010CF3
:100C800002BF84460146002043F0B64308BFA3F1EB
:100C90008053A3F50003BCFA8CF2083AA3EBC253CD
:100CA00010DB01FA02FC634400FA02FCC2F12002EC
:100CB000BCF1004F20FA02F243EB020008BF20F023
:100CC0000100704702F1200201FA02FCC2F1200289
:100CD00050EA4C0021FA02F243EB020008BF20EA7E
:100CE000DC7070474FF0FF0C1CEAD0521EBF1CEAAC
:100CF000D15392EA0C0F93EA0C0F6FD01A4480EA9A
:100D0000010C400218BF5FEA41211ED04FF0006382
:100D100043EA501043EA5111A0FB01310CF00040AE
:100D2000B1F5000F3EBF490041EAD3715B0040EAD4
:100D3000010062F17F02FD2A1DD8B3F1004F40EBA4
:100D4000C25008BF20F00100704790F0000F0CF077
:100D5000004C08BF49024CEA502040EA51207F3A3B
:100D6000C2BFD2F1FF0340EAC250704740F4000016
:100D70004FF00003013A5DDC12F1190FDCBF00F007
:100D800000407047C2F10002410021FA02F1C2F1B5
:100D9000200200FA02FC5FEA310040F1000053EA51
:100DA0004C0308BF20EADC70704792F0000F00F09F
:100DB000004C02BF400010F4000F013AF9D040EAA5
:100DC0000C0093F0000F01F0004C02BF490011F439
:100DD000000F013BF9D041EA0C018FE70CEAD15337
:100DE00092EA0C0F18BF93EA0C0F0AD030F0004CB7
:100DF00018BF31F0004CD8D180EA010000F000406B
:100E0000704790F0000F17BF90F0004F084691F028
:100E1000000F91F0004F14D092EA0C0F01D1420262
:100E20000FD193EA0C0F03D14B0218BF084608D12B
:100E300080EA010000F0004040F0FE4040F4000075
:100E4000704740F0FE4040F4400070474FF0FF0C08
:100E50001CEAD0521EBF1CEAD15392EA0C0F93EA4F
:100E60000C0F69D0A2EB030280EA010C49024FEAA1
:100E7000402037D04FF0805343EA111143EA10135A
:100E80000CF000408B4238BF5B0042F17D024FF412
:100E9000000C8B4224BF5B1A40EA0C00B3EB510FED
:100EA00024BFA3EB510340EA5C00B3EB910F24BFD6
:100EB000A3EB910340EA9C00B3EBD10F24BFA3EB5B
:100EC000D10340EADC001B0118BF5FEA1C1CE0D123
:100ED000FD2A3FF650AF8B4240EBC25008BF20F0D6
:100EE000010070470CF0004C4CEA50207F32C2BF2A
:100EF000D2F1FF0340EAC250704740F400004FF0C7
:100F00000003013A37E792F0000F00F0004C02BFF7
:100F1000400010F4000F013AF9D040EA0C0093F0C1
:100F2000000F01F0004C02BF490011F4000F013B1B
:100F3000F9D041EA0C0195E70CEAD15392EA0C0F83
:100F400008D142027FF47DAF93EA0C0F7FF470AFBB
:100F5000084676E793EA0C0F04D14B023FF44CAFFE
:100F600008466EE730F0004C18BF31F0004CCAD193
:100F700030F000427FF45CAF31F000437FF43CAFCF
:100F80005FE700BF42000ED2B2F1FE4F0BD34FF02D
:100F90009E03B3EB126209D44FEA002343F00043EF
:100FA00023FA02F070474FF00000704712F1610F12
:100FB00001D1420202D14FF0FF3070474FF00000E4
:100FC000704700BF0268054B9A4206D1044B93F864
:100FD000092112B9012283F8092170470044004019
:100FE000900700202DE9F04F464C85B0B4F90C2055
:100FF000B4F90E30057844490746606900930192C0
:10100000FFF770FEFFF7BEFF3F491FFA80FAA069A5
:10101000FFF768FEFFF7B6FF3B491FFA80F9E0696A
:10102000FFF760FEFFF7AEFF1FFA80F83A20B4F931
:1010300010B0364CAE1C611981F894012220691C55
:10104000C9B2214481F894014220F6B2A11981F875
:1010500094012F49019A087800F1010C81F800C031
:10106000E91CC9B2214481F89401691D8DF80F1063
:101070000C210435EDB2254404F5CA7085F89411AD
:101080000DF10F0100F0D3FF009B04F5CA701A4662
:101090000DF10F0100F0CBFF04F5CA705A460DF1B7
:1010A0000F0100F0C4FF04F5CA7052460DF10F01A4
:1010B00000F0A7FF04F5CA704A460DF10F0100F0D9
:1010C000A0FF42460DF10F0104F5CA7000F099FF30
:1010D000002206F5CA739DF80F101C44B1420AD8CD
:1010E0000C480DF10F0100F08CFF9DF80F303B70A4
:1010F00005B0BDE8F08F14F8013B01361A44F6B292
:1011000092B2EBE77007002000401C4690070020D9
:1011100097000020240900202DE9F7434378044676
:10112000072B13D8DFE803F0042E3D464F58718794
:1011300090F894323A2B17BFD0F89C328370013369
:10114000C0F89C320CBF01230023637094F808316F
:10115000ABB10026637984F808614D2B8DF80660E9
:101160008DF8076000F03D8100F281803A2B00F09D
:101170004381422B00F01C81372B00F03A8103B0F1
:10118000BDE8F08390F89432222B02D1C370022381
:10119000DBE700234370D0F89C320133C0F89C3267
:1011A000D4E7B94A90F89432118843710B44138004
:1011B0000323CAE7B44A90F89432118803710B44B0
:1011C00013800423C1E7B04A90F8943211888371E8
:1011D0000B4413800523B8E78179AC4A11B94170FB
:1011E0001170B3E7137890F89402E518E871A64DF2
:1011F00001332E88DBB23044994213702880A5D188
:101200000623637000231370A0E79F4A90F894327E
:1012100011788B4203D180F80631072395E700212E
:10122000D0F8983241700133642BC0F8983201D85D
:1012300011808BE7FEE7944990F894220B88B2EB7B
:10124000132F4FF0000307D10B804370012380F868
:10125000072180F8083179E7D0F8982243700132ED
:10126000642AC0F8982201D80B806FE7FEE7592B5B
:1012700000F0BD81632B00F03F81582B7FF47FAFDE
:10128000073420460DF10701814A00F0DBFE2046BD
:101290000DF107017F4A00F0D5FE20460DF1070150
:1012A0007D4A00F0CFFE20460DF107017B4A00F099
:1012B000C9FE20460DF10701794A00F0C3FE204621
:1012C0000DF10701774A00F0BDFE20460DF1070140
:1012D000754A00F083FE20460DF10701734A00F0C5
:1012E0007DFE20460DF10701714A00F077FE204691
:1012F0000DF107016F4A00F08FFE20460DF1070146
:101300006D4A00F089FE20460DF107016B4A00F09E
:1013100083FE20460DF10701694A00F07DFE20465C
:101320000DF10701674A00F077FE20460DF1070135
:10133000654A00F071FE20460DF10701634A00F096
:101340006BFE20460DF10701614A00F065FE204664
:101350000DF107015F4A00F05FFE20460DF1070125
:101360005D4A00F059FE20460DF107015B4A00F08E
:1013700053FE20460DF10701594A00F04DFE20466C
:101380000DF10701574A00F047FE20460DF1070115
:10139000554A00F041FE20460DF10701534A00F086
:1013A0003BFE2046524A0DF1070100F035FEE6E60D
:1013B00004F586720DF10701E01D00F04EFE94F871
:1013C0000C31002B7FF4DBAE0DF10600FFF70AFEB7
:1013D0000A239DF8062004F5CA71464802F098FFDA
:1013E000CDE604F20D120DF10701E01D00F035FE0F
:1013F000C5E604F58772F6E7E51D284604F5907208
:101400000DF1070100F0EAFD284604F58E720DF19A
:10141000070100F0E3FD284604F588720DF107018D
:1014200000F0DCFD284604F58A720DF1070100F09A
:10143000D5FD284604F58C720DF1070100F0CEFDB4
:10144000284604F598720DF1070100F0C7FD284603
:1014500004F596720DF1070100F0C0FD284604F571
:1014600094720DF1070100F0B9FD04F5927228465F
:101470000DF1070100F0B2FD04F59A7228460DF156
:10148000070100F0ABFD7AE69400002096000020F2
:10149000E6000020E8000020EA0000207C07002091
:1014A0007E07002080070020840700208807002096
:1014B0008C070020B00A0020B20A0020AC0A0020ED
:1014C000AE0A0020B40A0020B60A0020B80A0020A4
:1014D000BA0A0020BC0A0020BE0A0020C00A002070
:1014E000C20A0020C40A0020C60A0020C80A002040
:1014F000CA0A00202C0D0020E51D284604F59C7228
:101500000DF1070100F06AFD284604F59E720DF109
:10151000070100F063FD284604F5A0720DF10701F4
:1015200000F05CFD284604F5A2720DF1070100F001
:1015300055FD284604F5A4720DF1070100F04EFD9B
:10154000284604F5A6720DF1070100F047FD284674
:1015500004F5A8720DF1070100F040FD284604F5DE
:10156000AA720DF1070100F039FD284604F5AC72AE
:101570000DF1070100F032FD284604F5B0720DF1BF
:10158000070100F02BFD284604F5B2720DF10701AA
:1015900000F024FD284604F5B4720DF1070100F0B7
:1015A0001DFD284604F5BE720DF1070100F016FD81
:1015B000284604F5C0720DF1070100F00FFD284622
:1015C00004F5C2720DF1070100F008FD284604F58C
:1015D000C4720DF1070100F001FD04F5C672284642
:1015E0000DF1070100F0FAFC04F5C87246E7073474
:1015F0002046204A0DF1070100F02FFD4FF0180999
:10160000DFF870801C4F98F80030F5B2AB427FF6DF
:10161000B6AD09FB05F520467A190DF1070100F07A
:101620001CFD2A1D20463A440DF1070100F0D6FCAE
:1016300005F1080220463A440DF1070100F0CEFC06
:1016400005F10C0220463A440DF1070100F0E4FCDC
:1016500005F10E0220463A440DF1070100F0FDFCB1
:1016600005F10F0220463A440DF1070100F0F5FCA8
:101670000136C8E7E80600201403002002680D4B7D
:1016800010B59A42044606D100F0F4FB01220A4943
:101690000A4803F008F82268094B9A4209D1094820
:1016A000FFF73AFDBDE8104001220749074802F064
:1016B000FABF10BD0038014000030020040C0020D8
:1016C0000044004090070020240A00202C0D002038
:1016D0000022054B83F8262083F86D2083F89120A3
:1016E00083F8CD20704700BF00010020421E031D7B
:1016F000002012F8011F08449A4280B2F9D17047C5
:101700007FB5037801AA8DF8043043788DF8053051
:1017100083788DF80630C3788DF8073003798DF81B
:10172000083043798DF8093083798DF80A30C37910
:101730008DF80B30037A8DF80C30437A8DF80D302C
:101740000A231178013B303913F0FF0302F8011B23
:10175000F7D14FF47A709DF80A209DF80930504374
:1017600042F2107202FB030364220A269DF80B006A
:1017700002FB00309DF80C3006FB03039DF80D00C2
:101780001844FEF737FE1AA3D3E90023FEF79CFEA8
:1017900019A3D3E90023FEF797FE9DF8073004460E
:1017A0009DF806000D4606FB0030FEF723FE0246BC
:1017B0000B4620462946FEF7D1FC0022104BFEF7CF
:1017C000ADFF9DF8043004469DF8050003EB83034C
:1017D00000EB4300C0B20D46FEF70CFE02460B467E
:1017E00020462946FEF7BAFC04B070BDAFF3008076
:1017F0007B14AE47E17A843FFCA9F1D24D62503FA1
:1018000000004E40000000007FB5037801AA8DF86B
:10181000043043788DF8053083788DF80630C3782E
:101820008DF8073003798DF8083043798DF8093049
:1018300083798DF80A30C3798DF80B30037A8DF8EF
:101840000C30437A8DF80D30837A8DF80E300B23EF
:101850001178013B303913F0FF0302F8011BF7D177
:101860004FF47A709DF80B209DF80A30504342F2F5
:10187000107202FB030364220A269DF80C0002FB8F
:1018800000309DF80D3006FB03039DF80E00184450
:10189000FEF7B0FD1EA3D3E90023FEF715FE1EA33D
:1018A000D3E90023FEF710FE9DF8083004469DF8AA
:1018B00007000D4606FB0030FEF79CFD02460B4676
:1018C00020462946FEF74AFC0022154BFEF726FF6C
:1018D0009DF80430044603EB830303EB83009DF87B
:1018E00005300D4603EB83035B0003EB80039DF89B
:1018F00006001844C0B2FEF77DFD02460B462046A6
:101900002946FEF72BFC04B070BD00BFAFF300808A
:101910007B14AE47E17A843FFCA9F1D24D62503F7F
:1019200000004E40000000002DE9F74F00266A46F7
:10193000037817468DF8003043788DF801308378AE
:101940008DF80230C3788DF8033003798DF80430B8
:1019500043798DF80530334611782E2908BF1E468D
:101960000133DBB23039062B02F8011BF4D10FF240
:101970005809D9E900894FF0000A0025144CDFF816
:1019800054B0564510D017F80A00FFF757F9214612
:10199000FFF7A8F901462846FFF79CF85946054687
:1019A0002046FFF753FA04462046FEF735FD42462F
:1019B0004B460AF1010AFFF70DF80028E1D128464D
:1019C00003B0BDE8F08F00BF9A9999999999B93FF2
:1019D0000000C8420000204103784078303B03EB10
:1019E0008303303800EB4300C0B270472DE9F74F56
:1019F0000025037869468DF8003043788DF8013072
:101A000083788DF80230C3788DF8033003798DF830
:101A1000043043798DF8053083798DF806302B46F4
:101A200011F8012B2AB12E2A08BF1D46303A01F8C1
:101A3000012C0133DBB2072BF2D100240127002651
:101A40004FF0000ADFF864B0A54203D117B10027B8
:101A50006C1CE5B202AB234413F8080CFEF7CAFC79
:101A60008046281B01388946FEF7C4FC02460B4617
:101A70005046594602F030FE02460B464046494663
:101A8000FEF722FD804630468946FEF7C5FC024639
:101A90000B4640464946FEF761FBFEF7C5FF0134A1
:101AA000062C0646D0DD03B0BDE8F08F00002440D0
:101AB000082845D8DFE800F0050F141C21292E3630
:101AC0003F00204B93F8262093F8001299540132DE
:101AD00083F8262070471B4B93F800221A72704738
:101AE000184B93F8262093F8000299184872EEE7F5
:101AF000144B93F800225A747047124B93F8262027
:101B000093F8000299188874E1E70E4B93F80022CD
:101B10009A7670470B4B93F8262093F80002991899
:101B2000C876D4E70122074B83F8252093F80022DA
:101B300083F823207047034B93F8002283F8242076
:101B4000704700BF000100200D2844D8DFE800F0F6
:101B500007111A20292F35444D565F686E773C4B8C
:101B600093F86D2093F80002991881F8270001324C
:101B70002FE0374B93F86D2093F80002991881F805
:101B80003100F4E7324B93F8002283F83B20704792
:101B90002F4B93F86D2093F80002991881F83C00C0
:101BA000E5E72B4B93F8002283F847207047284B3A
:101BB00093F8002283F848207047254B93F86D2056
:101BC00093F80002991881F84900012183F86C10FC
:101BD0000A4483F86D2070471D4B93F86D2093F8ED
:101BE0000002991881F84B00C1E7194B93F86D205A
:101BF00093F80002991881F84F00B8E70122144BBE
:101C000083F86B2093F8002283F856207047104B1E
:101C100093F86D2093F80002991881F85700A6E711
:101C20000B4B93F8002283F861207047084B93F820
:101C30006D2093F80002991881F8620097E7044B31
:101C400093F86D2093F80002991881F867008EE7E9
:101C50000001002006283AD8DFE800F00410161F23
:101C6000252E34001A4B93F8912093F8000299180E
:101C700081F86E00013283F891207047144B93F87D
:101C8000002283F878207047114B93F8912093F845
:101C90000002991881F87900ECE70D4B93F80022C7
:101CA00083F8842070470A4B93F8912093F8000240
:101CB000991881F88500DDE7054B93F8002283F839
:101CC0008F207047024B93F8002283F890207047D2
:101CD000000100200B286CD8DFE800F00612182164
:101CE0002A333C454E576066324B93F8CD2093F82B
:101CF0000002991881F89200013283F8CD207047D4
:101D00002C4B93F8002283F89C207047294B93F8C2
:101D1000CD2093F80002991881F89D00ECE701228C
:101D2000244B83F8CB2093F8002283F8A720704738
:101D3000204B93F8CD2093F80002991881F8A80061
:101D4000DAE701221B4B83F8CC2093F8002283F8BA
:101D5000B3207047174B93F8CD2093F800029918E1
:101D600081F8B400C8E7134B93F8CD2093F8000234
:101D7000991881F8B900BFE70E4B93F8CD2093F87E
:101D80000002991881F8BE00B6E70A4B93F8CD20FF
:101D900093F80002991881F8C400ADE7054B93F859
:101DA000002283F8C9207047024B93F8002283F881
:101DB000CA2070470001002008B52D4991F8003273
:101DC0002C2B0AD191F8CE30012B12D091F8013191
:101DD000013381F80131FFF77BFC91F800322A2BA7
:101DE00010D191F8CE30012B04D191F8FA30012BAB
:101DF0000DD108BD012381F8FA30002381F80131AB
:101E0000FFF766FC91F800322C2BEED1F1E740F29F
:101E10007713984225D0B0F5BC7F0BD2B0F5B27FD6
:101E200019D0B0F5BA7FE4D1BDE8084091F80101BE
:101E3000FFF710BFB0F5C37F07D040F2951398426B
:101E4000D7D1012381F8CE30D3E791F80101BDE865
:101E50000840FFF72DBE91F80101BDE80840FFF7EB
:101E600073BE91F80101BDE80840FFF733BF00BF22
:101E70000001002038B5524C94F80022242A75D174
:101E800094F8F930012B71D10023A4F8F830B4F99B
:101E9000FE3094F80022234483F8022193F80131A4
:101EA0000D2B0FD10A2A0DD1012384F8F93000231C
:101EB00084F8FA3084F8CE30A4F806324FF6FF7377
:101EC000A4F8FE30B4F8FE3001331BB2FD2BC8BFBE
:101ED0000023A4F8FE3094F8CB30012B0BD194F8FA
:101EE000A1302E2B07D10023364884F8CB30FFF7E2
:101EF00007FCC4E9340194F8CC30012B0BD194F8E1
:101F0000AD302E2B07D100232F4884F8CC30FFF7BB
:101F10007BFCC4E9360194F86B30012B09D1002316
:101F20002A4884F86B30FFF7FFFCFEF775FAC4E926
:101F3000380194F86C30012B09D10022244884F830
:101F40006C2084F80832FFF747FD84F8F00094F81D
:101F50002530012B09D100231E4884F82530FFF7D6
:101F600045FDFEF759FAC4E93A0138BD94F8F85036
:101F700035B1012D8BD1B4F80602FFF71DFF86E7BE
:101F80002C2A0DD0242A82D094F8FC30042B3FF662
:101F90007EAFE118013381F8012284F8FC3076E746
:101FA00094F8FC30052B7FF472AF0B48FFF79EFBD3
:101FB0000123A4F8060284F8FC5084F8F83066E7A0
:101FC000000100209D010020A80100204F010020F9
:101FD000490100201B010020010300200B78C35C95
:101FE00013700B7803445B7853700B7803449B7831
:101FF00093700B781844C378D3700B7804330B704C
:1020000070470B78C2540B78C2F307221844427011
:102010000B7802330B7070470B78C35C13700B782E
:102020001844437853700B7802330B7070470B7869
:10203000C2540B78C2F30722184442700B78023363
:102040000B7070470B78C35C13700B78184443789F
:1020500053700B7802330B7070470B78C35C1370AE
:102060000B7801330B7070470C4AD38BA3F2B73354
:102070009BB2622B0A4B0BD9128CA2F2B7316229A8
:1020800009D9A2F2AB52622A94BF0222032200E0D5
:1020900000221A7070470122FBE700BF840A00206B
:1020A000B80000200368334A934261D102F58232BE
:1020B0009268520658D5596A2F4BDA8C23F81210C1
:1020C000511E082952D8DFE801F005141B222930DF
:1020D000373E4500022059881A888A1A92B29A829D
:1020E000D88440F6B83082423ED901221980DA8481
:1020F0003AE099885A8803208A1A92B2DA82EFE786
:10210000D9889A8804208A1A92B21A83E8E7198932
:10211000DA8805208A1A92B25A83E1E759891A8926
:1021200006208A1A92B29A83DAE799895A89072097
:102130008A1A92B2DA83D3E7D9899A8908208A1A4F
:1021400092B21A84CCE7198ADA8909208A1A92B2E3
:102150005A84C5E7198A5A8A521A9A8401210022A0
:10216000D9841A80034B5A62FFF77EBF0132BEE763
:10217000704700BF00040040840A002010B51422FC
:10218000002494B021460DEB02000D940F9403F04F
:102190005BFA1022214601A803F056FA4FF480336F
:1021A00009220C940224CDE90A23CDE9114301222E
:1021B0004FF4E0130AA80E921092139301F0C6F8A0
:1021C00008B172B6FEE70F23CDE905344FF4806302
:1021D0000790CDE90830214605A801F08DFA08B135
:1021E00072B6FEE74FF4004301A80194039301F097
:1021F0003FFB08B172B6FEE714B010BD80B5A94C24
:102200008EB000F01FFCFFF7B9FF1022002107A8D5
:1022100003F01AFAA369002243F01003A361A36933
:102220004FF4005103F010030193019BA3699E48F2
:1022300043F02003A361A369002503F02003029368
:10224000029BA369012743F00403A361A36902264B
:1022500003F004030393039BA36943F00803A36102
:10226000A36903F008030493049B00F099FF002284
:102270004FF4C0418D4800F093FF00224FF400411D
:102280008B4800F08DFF4FF40053874807A9CDE934
:102290000737CDE9095600F0A7FE4FF4C043834845
:1022A00007A9CDE90737CDE9095600F09DFE4FF4A7
:1022B00000437F4807A9CDE90737CDE9095600F06B
:1022C00093FE63692A463B436361636929463B4049
:1022D0000B200093009B00F00DFD0B2000F03CFD57
:1022E000744C754B204623604FF48073A3604FF409
:1022F0006023CDE90755099527732575E36165606E
:10230000266100F067FC08B172B6FEE7CDE9070769
:10231000099007A9204600F0B9FB08B172B6FEE7A4
:10232000204607A9089600F0B1FB034608B172B633
:10233000FEE76248624AC0E900234FF47A73836083
:1023400000F0DCFF034608B172B6FEE75D48DFF837
:102350009CE15D4AC0E90233C0E900E24FF48042EB
:10236000C0E90633C0E90423036200F01FFF0346FF
:1023700008B172B6FEE74FF482725448544F4FF4DE
:10238000007CC0E90072C0E902330822C0E90433CE
:10239000C0E9083383620A23C0E906C2C36201F0C0
:1023A000DFFA054608B172B6FEE747274FF6FF761B
:1023B000484C0146102207A803F046F9464B204638
:1023C000CDE90555C4E90037C4E90365C4E90555FD
:1023D000A56001F06FFC08B172B6FEE74FF48053C0
:1023E000204607A9079301F029FE08B172B6FEE75F
:1023F000CDE9050005A9204601F0B4FE044608B168
:1024000072B6FEE70146CDE90500102207A803F0E9
:102410001BF93248324BC0E90246C0E9003704617B
:10242000846101F09FFC08B172B6FEE700232B48DF
:1024300005A9CDE9053301F095FE024608B172B653
:10244000FEE701230790CDE908300A9007A9234849
:1024500001F066FD054608B172B6FEE71C22014692
:10246000CDE905000DEB020003F0EEF847231D4C0B
:102470001D4E2046C4E9006344F62063A560C4E90C
:102480000335A56101F042FC08B172B6FEE7CDE963
:10249000050005A9204601F065FE024640B372B66C
:1024A000FEE700BF0010024000100140000C014098
:1024B00000080140D40B0020002401402C0B002018
:1024C00000300040380B0020801A0600D40C002099
:1024D000003001408C0C0020002C01408C0B0020AF
:1024E00000040040E40A00200008004000580040BA
:1024F00060254FF47A7309900B9007A92046CDE927
:10250000075301F087FC08B172B6FEE704222046AB
:1025100007A901F07FFC08B172B6FEE70822204649
:1025200007A901F077FC08B172B6FEE70C2220463D
:1025300007A901F06FFC054608B172B6FEE7204618
:1025400000F072F94FF416531148124CC0E90255CD
:10255000C0E900430C240561C0E90545C56101F0EF
:10256000A9FE034608B172B6FEE74FF461420A487D
:102570000A49C0E90233C0E90012C0E90434C0E9E5
:10258000063301F097FE08B172B6FEE7FEE700BF22
:10259000040C0020003801402C0D002000440040B5
:1025A00072B6FEE70E4B82B09A6942F001029A6160
:1025B0009A6902F001020092009ADA6942F08052B0
:1025C000DA61DB69074A03F080530193019B53688A
:1025D00023F0E06343F00073536002B0704700BF24
:1025E000001002400000014030B5054687B01022BF
:1025F000002102A803F028F82A681D4B9A4234D122
:1026000003F56C439A691B4842F400729A619A6917
:1026100002A902F400720092009A9A69164C42F0E4
:1026200004029A619B6903F004030193019B032355
:10263000CDE9023300F0D8FC0023104A8021C4E920
:1026400000234FF48072C4E903124FF48062A36048
:10265000C4E905234FF400532046E36100F0A0FBDA
:1026600008B1FFF79DFF2C62656207B030BD00BF67
:102670000024014000080140480C002008000240EE
:1026800010B5044686B01022002102A802F0DCFF3B
:102690002268114B9A421DD1104C4FF44062A3693D
:1026A0000F4843F00803A361A36902A903F00803DC
:1026B0000093009B1223CDE902230323059300F02E
:1026C00093FCE36943F48003E361E36903F480036B
:1026D0000193019B06B010BD00580040001002405D
:1026E000000C014030B51024054687B02246002179
:1026F00002A802F0A9FF2A68184B9A422CD103F5D0
:1027000060439969164841F480519961996901F4CF
:1027100080510091009A9969282241F0080199613D
:102720009B6902A903F008030193019B0223CDE9F1
:1027300002230323059300F057FC0023084802A955
:10274000CDE90333029400F04FFC064A536843F08E
:10275000E06343F00103536007B030BD0030014037
:10276000000C0140000001400268084B82B09A4210
:102770000AD103F564439A6942F400629A619B6945
:1027800003F400630193019B02B07047002C0140E9
:1027900010B5044686B01022002102A802F054FFB2
:1027A0002268154B9A4224D103F50333DA690024D9
:1027B00042F00202DA61DA69104802F00202009285
:1027C000009A9A6902A942F004029A619B690494F2
:1027D00003F004030193019B4023CDE9023400F090
:1027E00003FC1D202246214600F084FA1D2000F043
:1027F000B3FA06B010BD00BF00040040000801405D
:102800000268084B82B09A420AD103F50233DA69B2
:1028100042F00402DA61DB6903F004030193019BD7
:1028200002B070470008004010B5044686B0102280
:10283000002102A802F008FF22680D4B9A4214D131
:1028400003F502339A690B4842F008029A619B69CA
:102850004FF4707203F008030193019B022302A955
:10286000CDE90223059300F0BFFB06B010BD00BF09
:1028700000080040000C0140102210B5044688B04A
:102880000DEB0200002102F0DFFE2368324A934282
:1028900031D1324B4FF400719A69314842F4804291
:1028A0009A619A69002402F480420092009A9A691F
:1028B00042F004029A619B6903F004030193019BB7
:1028C0000223CDE90413032304A9079300F08CFB32
:1028D0004FF48063224804A9CDE90434069400F043
:1028E00083FB25202246214600F004FA252000F033
:1028F00033FA08B010BD1B4A9342FAD1174B18485F
:10290000DA6904A942F40032DA61DA69002402F4D7
:1029100000320292029A9A6942F004029A619B691B
:10292000042203F004030393039B0223CDE9042351
:102930000323079300F058FB0823094804A9CDE9B5
:102940000434069400F050FB26202246214600F075
:10295000D1F92620CBE700BF00380140001002402B
:102960000008014000440040FEE7FEE7FEE7FEE706
:10297000FEE770477047704700F076B8014800F0F6
:10298000A1BA00BF480C0020014801F0B9B800BF4F
:102990008C0B0020014801F06DBD00BF040C00202D
:1029A000014801F067BD00BF2C0D002070470000FA
:1029B0000C480D490D4A002302E0D458C45004339A
:1029C000C4188C42F9D30A4A0A4C002301E0136070
:1029D0000432A242FBD3FFF7E9FF02F011FEFFF73A
:1029E0000DFC70470000002074000020E85600082D
:1029F00078000020740D0020FEE7000038B50E4B73
:102A0000054618784FF47A73B3FBF0F30B4A10685D
:102A1000B0FBF3F000F0AEF9044658B90F2D09D819
:102A2000024629464FF0FF3000F064F92046044B7F
:102A30001D6038BD0120FCE70400002000000020DC
:102A400008000020074A08B51368032043F010036C
:102A5000136000F03DF90F20FFF7D0FFFFF7A2FD54
:102A6000002008BD00200240034A044B11681B7877
:102A70000B441360704700BF700D0020040000205D
:102A8000014B1868704700BF700D0020002373B51C
:102A9000019390F824300446012B6CD0012380F878
:102AA00024304D680268062D086805EB850322D89E
:102AB0001F26556B053B9E4025EA060500FA03F3E9
:102AC0002B43536309288B6800EB40054FF0070147
:102AD00029D9D6681E3DA94026EA0101AB400B4327
:102AE000D360A0F11003012B25D90020002384F826
:102AF000243002B070BD0C2D4FF01F0509D8166BA5
:102B0000233B9D4026EA050500FA03F32B4313639C
:102B1000D8E7D66A413B9D4026EA050500FA03F353
:102B20002B43D362CEE71069A94020EA0101AB40F4
:102B30000B431361D9E7114B9A4216D193681B02DC
:102B4000D3D49368102843F400039360CDD10C4B89
:102B50000C4A1B68B3FBF2F20A2353430193019B17
:102B6000002BC2D0019B013BF8E7A36A012043F090
:102B70002003A362BAE70220BBE700BF00240140A4
:102B80000000002040420F0038B5036804469A68F0
:102B9000D10701D4002038BD9A6822F001029A6062
:102BA000FFF76EFF054623689B68DB07F2D5FFF74A
:102BB00067FF401B0228F6D923689B68DA07F2D525
:102BC000A36A012043F01003A362E36A43F0010308
:102BD000E362E0E7F8B5044600286ED0836A23B9C3
:102BE000C36280F82430FFF7FFFC2046FFF7CCFFDC
:102BF000A36A13F0100362D1002860D1A26AE569CC
:102C0000616822F4885222F0020242F00202294353
:102C1000A568A262227BB5F5807F41EA420137D0E8
:102C2000012D14BF00274FF48077267D012E06D199
:102C300082BBA269013A47EA423646F4006722683D
:102C4000B5F5807F566826F4694646EA0706566061
:102C500097681D4E06EA070646EA0106966001D00F
:102C6000012D02D12369013B1B05D56A25F47005AE
:102C70002B43D3629268154B1340994213D1002322
:102C8000E362A36A23F0030343F00103A362F8BDE8
:102C90002F46CAE7A26A42F02002A262E26A42F02C
:102CA0000102E262CBE7A36A23F0120343F01003B0
:102CB000A362E36A43F00103E3620120E7E7A36A4A
:102CC00043F01003A362F8E7FDF7E1FFFE0E1FFFDC
:102CD00007490302CA6803F4E06322F4E0621204C5
:102CE000120C134343F0BF6343F40033CB607047CF
:102CF00000ED00E0164B30B5DC68C4F30224C4F1EB
:102D00000703251D042B28BF0423062D4FF0FF3594
:102D100098BF002405FA03F388BF033C21EA0303AC
:102D2000A34005FA04F422EA0402002843EA02035D
:102D3000ACBF00F16040074A4FEA0313DBB2ABBF00
:102D400000F5614000F00F0080F80033135430BDEF
:102D500000ED00E014ED00E0002808DB012342094B
:102D600000F01F0003FA00F0014B43F82200704707
:102D700000E100E00138B0F1807F0AD2F021064B7B
:102D8000064A586082F823100020072298601A60D3
:102D900070470120704700BF10E000E000ED00E048
:102DA00010B520B314220168124B0B44B3FBF2F3AD
:102DB0009B000364104B0A68C363D0E901342343CA
:102DC000C46822F47F522343046922F03002234373
:102DD0004469234384692343C469234313430B6039
:102DE0004FF48072002302848363184610BD0120D3
:102DF000FCE700BFF8FFFDBF0000024090F8213063
:102E0000022B06D004238363002380F820300120A6
:102E1000704703681A6822F00E021A601A6822F0DE
:102E200001021A600123D0E90F218B4053604FF457
:102E3000807303840020704708B590F82130022B7E
:102E400003D004238363012008BD03681A6822F0BD
:102E50000E021A601A6822F001021A60174A9342A1
:102E60001CD0143293421BD0143293421AD0143225
:102E700093421AD0143293421AD0143293420CBFA8
:102E80004FF480134FF080730D4A53604FF48073FA
:102E90000384436B7BB198470020D5E70123F3E718
:102EA0001023F1E74FF48073EEE74FF48053EBE724
:102EB0004FF48033E8E71846C6E700BF0800024039
:102EC0000000024070B40425C66B026C34680368CD
:102ED00095402542196832D04D0730D51A689606BC
:102EE0005EBF1A6822F004021A603D4A934219D06C
:102EF0001432934218D01432934217D014329342B2
:102F000017D01432934217D0143293420CBF4FF4AF
:102F100080034FF08063334A5360C36A002B5CD058
:102F200070BC18470423F6E74023F4E74FF48063AE
:102F3000F1E74FF48043EEE74FF48023EBE70225FF
:102F40009540254235D08D0733D51A68940606D4AE
:102F50001A6822F00A021A60012280F82120204A11
:102F6000934219D01432934218D01432934217D09E
:102F70001432934217D01432934217D01432934232
:102F80000CBF4FF400134FF00073164A5360002338
:102F900080F82030836AC1E70223F6E72023F4E7B4
:102FA0004FF40073F1E74FF40053EEE74FF40033B2
:102FB000EBE70825954025420FD009070DD5196884
:102FC00021F00E011960012303FA02F2726083639B
:102FD0004FF480730384036BA0E770BC704700BF9D
:102FE00008000240000002402DE9F74F002216467B
:102FF000644BDFF8A0C1DFF8A0E10D6835FA06F4F4
:1030000002D103B0BDE8F08F4FF0010808FA06F8CE
:1030100005EA080438EA05057CD14D68032D07D878
:10302000013D022D00F28880DFE805F0969BA100AB
:10303000122D00F099806FD8112D00F08F80FF2C99
:1030400098BF82464FF00F0988BF00F1040A4FEA8B
:103050008605DAF8008088BF203D09FA05FB28EADA
:103060000B0802FA05F548EA0505CAF80050D1F840
:1030700004A01AF0805F4DD0434F26F00308BD69CD
:1030800008F1804845F00105BD61BD6908F580384B
:1030900005F00105019506F0030B019D4FEA8B0B2E
:1030A000D8F8085009FA0BF925EA0909374DA84262
:1030B00061D005F58065A8425FD005F58065A8421E
:1030C0005DD005F58065A8420CBF0325042505FAEF
:1030D0000BF545EA0905C8F808501D681AF4803F49
:1030E00014BF2543A5431D605D681AF4003F14BF5B
:1030F0002543A5435D609D681AF4801F14BF2543D6
:10310000A5439D60DD681AF4001F14BF2C4325EA17
:103110000404DC60013670E71D4FBD420CD017D8A7
:10312000DFF878904D4507D009F570294D4503D05B
:10313000A9F580194D4582D18A68D2B1012A08BF0C
:10314000C0F810804FF0080218BFC0F8148076E76E
:103150006545F1D07545EEE7CA6870E7CA68043284
:103160006DE7CA6808326AE7CA680C3267E700226E
:1031700065E7042263E70025A9E70125A7E7022503
:10318000A5E700BF00040140001002400008014014
:103190000000221000003110000032100000121058
:1031A0000AB1016170470904FBE7000070B50446ED
:1031B00008B9012070BD90F83D3003F0FF021BB943
:1031C00080F83C20FFF75CFA242384F83D30236824
:1031D0001A6822F001021A601A6842F400421A606A
:1031E0001A6822F400421A6000F022FB3F4A63682A
:1031F000934294BF3E4A3F4A90428CBF0022012234
:10320000002AD6D13C4E2268B0FBF6F65168013850
:1032100021F03F01314351603449156A8B4281BF2F
:103220004FF4967171434FF47A76B1FBF6F125F0C5
:103230003F0594BF711C013129431162D1692B4DA7
:1032400021F44F41AB4221F0FF0132D85B00B0FBCB
:10325000F3F0431C40F6FC70034242D0C3F30B036F
:103260000B43D3611168D4E9073021F0C001034357
:103270000B4313609168D4E9030321F40341034332
:1032800021F0FF010B439360D168D4E9053021F0B0
:10329000FF0103430B43D3601368002043F0010395
:1032A00013602023206484F83D30206384F83E00BE
:1032B00080E7A56855B903EB4303B0FBF3F3013393
:1032C000C3F30B037BB143F40043C9E719256B43F8
:1032D000B0FBF3F30133C3F30B0323B143F44043D7
:1032E000BEE70423BCE70123BAE700BFA0860100C4
:1032F0007F841E00FF083D0040420F0038B50446A1
:1033000008B34CF6CC4203681A6045F255521A6075
:1033100042685A6082689A60FFF7B2FB05462268ED
:10332000D06810F0030003D14AF6AA23136038BD19
:10333000FFF7A6FB401B2728F1D92368DB689B0712
:10334000EDD00320F3E70120F1E700002DE9F34180
:10335000054638B30368DB0710D42B689F075ED49B
:103360002B68190700F195802B685A0700F1BF8080
:10337000E869002840F02C81002029E08F4C636828
:1033800003F00C03042B07D0636803F00C03082B35
:103390000AD16368DE0307D523689C03DDD56B681B
:1033A000002BDAD1012013E06B68B3F5803F12D116
:1033B000236843F480332360FFF762FB06462368EB
:1033C0009803CAD4FFF75CFB801B6428F7D903205D
:1033D00002B0BDE8F0819BB9236823F480332360F9
:1033E000236823F480232360FFF74AFB0646236803
:1033F0009903B2D5FFF744FB801B6428F7D9E6E7B1
:10340000B3F5A02F236803D143F480232360CFE7D3
:1034100023F480332360236823F48023CBE7674CB5
:10342000636813F00C0F07D0636803F00C03082BDC
:1034300010D16368DA030DD423689B0702D52B698A
:10344000012BAFD123686A6923F0F80343EAC20372
:10345000236085E72A695A4B6AB101221A60FFF797
:103460000FFB064623689F07ECD4FFF709FB801B80
:103470000228F7D9ABE71A60FFF702FB064623687C
:1034800098077FF56DAFFFF7FBFA801B0228F6D98E
:103490009DE7AA69494E4B4BDAB101221A60FFF74A
:1034A000EFFA0446736A9B070DD54FF4FA52464B68
:1034B0001B68B3FBF2F3019300BF019B5A1E0192FC
:1034C000002BF9D150E7FFF7DBFA001B0228E9D9FE
:1034D0007DE71A60FFF7D4FA0446736A9F077FF509
:1034E00043AFFFF7CDFA001B0228F6D96FE7334C44
:1034F000E369D80024D40127E36943F08053E361F2
:10350000E36903F080530093009B304E3368D90584
:1035100018D5EB68012B26D1236A43F001032362FF
:10352000FFF7AEFA41F288380646236A9B073FD57B
:10353000002F3FF41DAFE36923F08053E36117E7E9
:103540000027E2E7336843F480733360FFF798FAAB
:1035500080463368DA05DCD4FFF792FAA0EB080066
:103560006428F6D933E7ABB9236A41F2883823F0EF
:1035700001032362236A23F004032362FFF780FA26
:103580000646236A9807D3D5FFF77AFA801B404591
:10359000F7D91CE7052B236A03D143F00403236208
:1035A000BAE723F001032362236A23F00403B6E79A
:1035B000FFF766FA801B4045B7D908E700100240C4
:1035C000000042428004424200000020007000409F
:1035D0002A4B5A681C4602F00C02082A3DD00023F0
:1035E000274E022833602BD1FFF74AFA074623689B
:1035F00099011FD42B6AB3F5803F05D16268A96891
:1036000022F400320A436260696A62680B4322F462
:1036100074121343636001233360FFF731FA0546E8
:1036200023689A013FF5A8AEFFF72AFA401B02284B
:10363000F6D9CCE6FFF724FAC01B0228D7D9C6E694
:10364000FFF71EFA054623689B017FF595AEFFF74D
:1036500017FA401B0228F6D9B9E601283FF4B8AEA4
:103660005B682A6A03F4803191427FF49BAE6A6AF8
:1036700003F4701393423FF47FAE93E600100240D0
:103680006000424230B5184B87B002AC03F1100520
:10369000224618685968083303C2AB421446F7D172
:1036A00040F201231149ADF804304B6803F00C02DD
:1036B000082A17D1C3F3834206A80244DB0312F899
:1036C000102C0CD54B680A48C3F34043504306AA5C
:1036D000134413F8143CB0FBF3F007B030BD0548B9
:1036E0005043FAE70248F8E7885600080010024005
:1036F00000127A0000093D002DE9F0410D46044614
:1037000010B90120BDE8F081444A136803F00703B3
:103710008B4228D321688E0730D4CA0743D43F4A4E
:10372000136803F00703AB4265D822683C4D12F0E2
:10373000040F6CD1130706D56B68226923F460531C
:1037400043EAC2036B60FFF79DFF6B68354AC3F322
:103750000313D35CD840344B1860344B1868FFF720
:103760004DF90020CEE7136823F007030B431360E5
:10377000136803F007038B42C3D1CBE7284B11F04A
:10378000040F1EBF5A6842F4E0625A60080742BF45
:103790005A6842F460525A605A68A06822F0F002F7
:1037A00002435A60B9E762681D4E012A33681AD194
:1037B00013F4003FA5D0736841F2883823F0030367
:1037C00013437360FFF75CF907467368626803F0A0
:1037D0000C03B3EB820FA2D0FFF752F9C01B404598
:1037E000F3D903208EE7022A02D113F0007FE1E72C
:1037F00013F0020FDEE7136823F007032B43136077
:10380000136803F00703AB427FF47BAF8DE76B686F
:10381000E16823F4E0630B436B608BE70020024018
:103820000010024070560008000000200800002030
:10383000044B054A5B68C3F30223D35C034A106858
:10384000D840704700100240805600080000002059
:10385000044B054A5B68C3F3C223D35C034A106878
:10386000D840704700100240805600080000002039
:1038700003682DE9F341D907054620D5354CE369A6
:10388000DA0032D40127E36943F08053E361E3694E
:1038900003F080530193019B2F4E3368DB0526D53F
:1038A000236A13F4407336D1236A6A6823F44073A1
:1038B000134323621FB1E36923F08053E361286857
:1038C000830706D52349AB684A6822F440421A436D
:1038D0004A6010F010001BD01E4AE96853680020AF
:1038E00023F480030B43536012E00027D4E73368CE
:1038F00043F480733360FFF7C3F880463368D8051C
:10390000CED4FFF7BDF8A0EB08006428F6D9032059
:1039100002B0BDE8F0816A6802F440729A42C3D0F6
:1039200001200E4A236A1060002023F440711060C9
:103930002162D907B8D5FFF7A3F841F288380646C7
:10394000236A9A07B0D4FFF79BF8801B4045F7D94C
:10395000DDE700BF0010024000700040400442421A
:1039600010B50446002851D0436A002B4AD1426862
:10397000B2F5827F00D0C3610023A36294F8513076
:1039800003F0FF0223B9204684F85020FEF7AAFE78
:103990000223226884F851301368A06823F04003A2
:1039A0001360636800F4044003F482730343E06827
:1039B000A16900F400600343206900F002000343A2
:1039C000606900F00100034301F400700343E06903
:1039D000090C00F038000343206A01F0040100F0F4
:1039E00080000343A06A00F4005003431360516059
:1039F000D369002023F40063D3610123606584F858
:103A0000513010BD0023C0E90433B5E70120F8E7C9
:103A1000036A70B523F001030362036A4468826994
:103A20000D6822F073022A438D6823F002032B43B2
:103A30000A4DA8420BD1CD6823F008032B4324F490
:103A40004074D1E90556354323F004032C43446008
:103A500082614A684263036270BD00BF002C01406E
:103A6000036A70B523F480730362036A4468C26911
:103A70000D6822F073022A438D6823F4007343EA31
:103A800005230B4DA8420DD1CD6823F4006343EA12
:103A9000052324F44054D1E90556354323F48063CB
:103AA00044EA05144460C2614A68C263036270BD9F
:103AB000002C0140036A30B523F480530362036A8B
:103AC0004468C2690D6822F4E64242EA05228D6824
:103AD00023F4005343EA0533064DA84202BF4D6963
:103AE00024F4804444EA85144460C2614A68026454
:103AF000036230BD002C014070477047704770472B
:103B0000036810B51A69044691070ED5DA68920762
:103B10000BD56FF002021A61012202779B699B07A5
:103B200077D0FEF7BFFA0023237723681A6950077E
:103B300010D5DA6851070DD56FF004021A61022220
:103B400022779B69204613F4407F68D0FEF7AAFADB
:103B50000023237723681A6912070FD5DA68100744
:103B60000CD56FF008021A6104222277DB69204627
:103B700099075AD0FEF796FA0023237723681A692B
:103B8000D20610D5DA68D0060DD56FF010021A6192
:103B900008222277DB69204613F4407F4BD0FEF7E2
:103BA00081FA0023237723681A69D10708D5DA68D8
:103BB000D20705D56FF0010220461A61FFF79CFF7E
:103BC00023681A69100608D5DA68110605D56FF062
:103BD000800220461A6100F0F4FA23681A6952063E
:103BE00008D5DA68500605D56FF0400220461A6104
:103BF000FFF785FF23681A69910622D5DA689206D5
:103C00001FD56FF020022046BDE810401A6100F079
:103C1000D7BAFFF772FF2046FFF770FF83E7FFF781
:103C20006CFF2046FFF76AFF92E7FFF766FF20462A
:103C3000FFF764FFA0E7FFF760FF2046FFF75EFF96
:103C4000AFE710BD1A4A036890420AD0B0F1804F26
:103C500007D0A2F59432904203D002F580629042E0
:103C600015D14A6823F070031343114A90420AD0D9
:103C7000B0F1804F07D0A2F59432904203D002F504
:103C80008062904203D1CA6823F4407313434A69A7
:103C900023F08003134303608B68C3620B68836265
:103CA000034B984204BF0B690363012343617047D0
:103CB000002C014010B5044630B390F83D3003F0BD
:103CC000FF021BB980F83C20FEF74EFD022320685E
:103CD00084F83D30211DFFF7B5FF0123002084F853
:103CE000463084F83E3084F83F3084F8403084F821
:103CF000413084F8423084F8433084F8443084F80A
:103D0000453084F83D3010BD0120FCE710B5044675
:103D100030B390F83D3003F0FF021BB980F83C202F
:103D2000FEF76EFD0223206884F83D30211DFFF769
:103D300089FF0123002084F8463084F83E3084F85F
:103D40003F3084F8403084F8413084F8423084F8C1
:103D5000433084F8443084F8453084F83D3010BD59
:103D60000120FCE710B5044630B390F83D3003F075
:103D7000FF021BB980F83C20FEF70AFD02232068F1
:103D800084F83D30211DFFF75DFF0123002084F8FA
:103D9000463084F83E3084F83F3084F8403084F870
:103DA000413084F8423084F8433084F8443084F859
:103DB000453084F83D3010BD0120FCE7036A70B542
:103DC00023F010030362036A446882690D6822F4D9
:103DD000E64242EA05228D6823F0200343EA0513F8
:103DE0000B4DA8420DD1CD6823F0800343EA0513A3
:103DF00024F44064D1E90556354323F0400344EAF6
:103E00008504446082614A688263036270BD00BFBA
:103E1000002C014038B590F83C300446012B52D0BC
:103E20000123082A80F83C303CD006D8C2B1042ACD
:103E300027D0002084F83C0038BD0C2AF9D1006856
:103E4000FFF738FE23680969DA6942F40062DA6133
:103E5000DA6922F48062DA61DA6942EA012230E04A
:103E60000068FFF7D5FD236809699A6942F00802E6
:103E70009A619A6922F004029A619A690A439A61E6
:103E8000D7E70068FFF79AFF236809699A6942F447
:103E900000629A619A6922F480629A619A6942EAA0
:103EA0000122ECE70068FFF7DBFD23680969DA69A6
:103EB00042F00802DA61DA6922F00402DA61DA69B2
:103EC0000A43DA61B5E70220B6E7000070B5046A7C
:103ED000124E24F001040462B0428469056A19D0CC
:103EE000B0F1804F16D0A6F59436B04212D006F548
:103EF0008066B0420ED044F001021B0122F0F002B5
:103F0000DBB2134301F00A0125F00A021143836179
:103F1000016270BD24F003042243EEE7002C01404F
:103F2000F8B590F83C300446012B0E46154679D082
:103F3000012380F83C30F368006806C975B9FFF7C3
:103F4000C5FF2368B1689A6922F00C029A619A69E8
:103F50000A439A61002084F83C00F8BD042DB6683D
:103F600022D1056A090125F0100505628769D0F89C
:103F700020E027F4407C1D034CEA022C2CF4704C0A
:103F8000ADB22EF0A00E01F0A00145EA0C0541EA09
:103F90000E0185610162836923F440638361836953
:103FA00043EA06268661D5E7082D056A1CD125F46B
:103FB00080750562C769056A27F0030717431B016F
:103FC0000902DBB227F0F00725F4007501F4007157
:103FD0001F432943C7610162C36923F00C03C36116
:103FE000C3691E43C661B5E725F480550562C569FE
:103FF000076A25F4407545EA02251B03090325F4E9
:1040000070459BB227F4005701F400512B4339430C
:10401000C3610162C36923F44063C361C36943EAB6
:104020000626DFE7022098E710B584680A4324F4E7
:104030007F4442EA03222243826010BD70B590F8AB
:104040003C300446012B4FF0020027D0012384F8B6
:104050003D00206884F83C30836823F47F4323F0DC
:10406000770383600B68602B4DD032D8402B62D031
:1040700015D8202B03D009D833F0100208D182685C
:1040800022F07002134343F0070320E0302BF6D0F8
:104090000123002084F83D3084F83C0070BD502B93
:1040A000F6D14A68CE68016A056A21F00A0125F056
:1040B0000105056283690A4323F0F00343EA06130E
:1040C00083610262836823F0700343F057038360C7
:1040D000DEE7702B0CD0B3F5005FD9D1CB68D1E906
:1040E0000121FFF7A1FF2268936843F4804308E0B1
:1040F000CB68D1E90121FFF797FF2268936843F06D
:1041000077039360C4E74D68CE68016A21F010011F
:1041100001628269036A22F4704223F0A00343EA39
:10412000051342EA063282610362836823F070035A
:1041300043F06703CBE74A68CE68016A056A21F05D
:104140000A0125F00105056283690A4323F0F003A3
:1041500043EA061383610262836823F0700343F02D
:104160004703B4E730B590F83C300246012B4FF0DE
:10417000020022D0136882F83D005C680D6824F0CC
:1041800070042C4398685C600C4CA3420AD0B3F1D5
:10419000804F07D0A4F59434A34203D004F5806483
:1041A000A34204D1496820F08000014399600123B3
:1041B000002082F83D3082F83C0030BD002C0140E8
:1041C000704770470368DA6822F49072DA605A69BF
:1041D00022F001025A61026B012A02BFDA6822F062
:1041E0001002DA60202380F83E300023036370471A
:1041F00010B504460368C1681A6922F440520A43A4
:104200001A6182680069D9680243606921F4B0517B
:1042100021F00C0102430A43DA605A69A16922F4D1
:1042200040720A435A610E4A934215D1FFF710FBC0
:1042300019234343626820689200B3FBF2F36422BF
:10424000B3FBF2F102FB11331B013233B3FBF2F388
:1042500003EB0113836010BDFFF7EAFAE8E700BF44
:1042600000380140F8B504460E4617461D46226840
:10427000136836EA030301D1002014E06B1CF7D069
:1042800095B923680320DA6822F4D072DA605A699B
:1042900022F001025A61202384F83D3084F83E3038
:1042A000002384F83C30F8BDFEF7EAFBC01B8542D2
:1042B000DDD2E6E710B5044640B390F83D3003F098
:1042C000FF021BB980F83C20FEF7D6FA24232268AF
:1042D00084F83D30D368204623F40053D360FFF7C1
:1042E00087FF236800201A6922F490421A615A69F4
:1042F00022F02A025A61DA6842F40052DA6020237E
:10430000206484F83D3084F83E3010BD0120FCE785
:104310002DE9F843994690F83D300446202B0E468F
:10432000174648D1002944D0002A42D090F83C30AA
:10433000012B40D00123002580F83C302123056467
:1043400080F83D30FEF79CFBA3688046B3F5805FA4
:10435000A784E78403D123690BB935461E460023A1
:1043600084F83C30E38C9BB253B94B464246402123
:104370002046FFF777FF50B9202384F83D3007E04F
:104380004B46424680212046FFF76CFF10B10320C8
:10439000BDE8F88322684EB935F8023BC3F3080341
:1043A0005360E18C013989B2E184DBE716F8013B07
:1043B000F6E70120ECE70220EAE7704708B50023A2
:1043C000406AC385C384FFF7F8FF08BD704713B583
:1043D00090F83E30222B49D18168836AB1F5805F25
:1043E000026833D10169002933D15268C2F308024F
:1043F00023F8022BC48D8362013CA4B2C4851CBB8C
:104400000368DA6822F02002DA60DA6822F4807247
:10441000DA605A6922F001025A61202280F83E20B7
:10442000026B012A1FD10463DA6822F01002DA60FD
:104430001A68D20605D501941A6801925B68019347
:10444000019B818DFFF7C2FF002010E039B901699F
:1044500029B95268D2B21A70836A0133CAE7526826
:1044600002F07F02F7E7FDF709F9EDE7022002B05D
:1044700010BD0000036837B51A68044612F00F0F2C
:10448000D9685D6908D195065FD58D065DD503B005
:10449000BDE83040FFF79BBF05F0010001F49075C7
:1044A000054352D0D50705D5CB0542BF236C43F059
:1044B00001032364550704D518B1236C43F00203AC
:1044C0002364930704D518B1236C43F004032364D9
:1044D000150707D501F0200303431EBF236C43F0EB
:1044E00008032364236C53B3920604D58B0602D5CC
:1044F0002046FFF76CFF236820465B69256C03F0BC
:10450000400305F008051D431BD0FFF75BFE236841
:104510005A69550610D55A69A06B22F040025A61BB
:1045200050B1534B4363FEF787FC40B1A06B436B24
:1045300003B0BDE8304018472046FFF73EFF03B008
:1045400030BDFFF73AFF2564F9E7206B012855D10C
:10455000D00653D5CD0651D5002101911A6801929C
:104560005A680192019A5A6912F040022AD0A06B4F
:104570000268526892B2002AE1D0A58D9542DED938
:10458000E2858269202A15D0DA6822F48072DA6026
:104590005A6922F001025A615A6922F040025A61B6
:1045A000202284F83E202163DA6822F01002DA60CB
:1045B000FEF724FCE38DA18DC91A89B22046FFF7CE
:1045C00005FFBCE7E18D88B2E18D89B20029B6D044
:1045D000A18D091A89B20029B1D0D86820F4907051
:1045E000D860586920F001005861202084F83E000E
:1045F0002263DA6822F01002DA60DFE7100626D5BF
:104600000D0624D594F83D20212A98D1A168226A6C
:10461000B1F5805F16D12169A1B932F8021BC1F34F
:10462000080159602262E28C013A92B2E284002AC7
:1046300085D1DA6822F08002DA60DA6842F040025E
:10464000DA607CE7511C216212785A60EBE7500671
:104650007FF575AF4A067FF572AFDA68204622F023
:104660004002DA60202384F83D30FCF7ABFC66E7BB
:10467000BD430008C2858285816203462222002054
:10468000186483F83C0083F83E201B68DA6842F423
:104690008072DA605A6942F001025A61DA6842F0C7
:1046A0002002DA60704770B490F83E60202E10D17E
:1046B00061B15AB190F83C40012C0AD0012480F835
:1046C0003C400024046370BCFFF7D4BF012070BCE1
:1046D00070470220FBE700002DE9F8431F468046A3
:1046E0008946164600F0A4F84D4B044693F9003075
:1046F0000D46013315D032463B4630463946FCF76D
:104700007DF970B942464B4640464946FCF776F97A
:104710000022002348B130463946FCF73DF9002815
:104720007BD120462946BDE8F88340464946FCF740
:1047300033F9E0B10022002330463946FCF72CF96A
:1047400000286AD13046394600F037FE0028E8D00C
:104750000022002330463946FCF728F90028E0D033
:1047600000F048FF2123002403602E4DD9E72046A6
:10477000294600F022FEA8BB4046494600F01DFE37
:1047800080B33046394600F018FE58B322462B4617
:1047900020462946FCF732F960B100F02BFF2123B7
:1047A00000220360002310461946FBF7B7FF0446BA
:1047B0000D46B6E700F01EFF2223002203604946A3
:1047C00000234046FCF7F2F8002448B13046394651
:1047D00000F000FE32463B46FCF7DEF80028C4D06D
:1047E000114D9EE70022002320462946FCF7D4F80D
:1047F000002896D04046494600F0DFFD002890D0C2
:104800003046394600F0D9FD00288AD000F0F2FE8B
:10481000222300240025036083E70024034D80E762
:104820000C0000200000F0FF0000F07F0000F03FCF
:104830002DE9F04F93B0CDE90223DDE9022626F001
:10484000004555EA02030746884600F0BF847E4BC8
:1048500021F000449C428946824609DC03D178B9A4
:10486000A54202DD0CE09D4202DC9D420ED16AB100
:1048700004F1404404F5801454EA0A0300F0A684CD
:10488000724813B0BDE8F04F00F09EBDB9F1000FC3
:1048900039DA6F4B9D4254DCA3F154739D4240F3CF
:1048A000A6842B15A3F2FF33142B0FDDC3F13403C1
:1048B00022FA03F101FA03F3934240F0988401F0E5
:1048C0000101C1F10203009382B15EE0002A5AD1D6
:1048D000C3F1140345FA03F101FA03F3AB4240F0CC
:1048E000838401F00101C1F102030093594B9D4201
:1048F00030D1002E80F274843A4643460020554958
:10490000FBF70CFF2FE000230093002A3DD14E4B14
:104910009D42EBD104F1404303F5801353EA0A03AF
:1049200000F054844C4B9C420DDD002E80F25484E8
:104930004FF0000B4FF0000C5846614613B0BDE835
:10494000F08F0223E0E7002EF2DADDE902B303F193
:10495000004CF1E7B6F1804F08D13A46434638465D
:104960004146FBF7B1FD83468C46E5E73B4B9E4253
:104970000BD1B9F1000F08DB3846414613B0BDE852
:10498000F04F00F06BBC002300933846414600F026
:1049900011FD83468C46BAF1000F29D124B12D4B6D
:1049A00029F040429A4223D1002E07DA5A46634644
:1049B00000202849FBF7B2FE83468C46B9F1000F70
:1049C000BADA009B04F1404404F58014234308D173
:1049D0005A46634658466146FBF7BEFB02460B4605
:1049E0008EE7009B012BA7D10CF100439C46A3E767
:1049F0004FEAD973013B0C930C9A009B134304D1EB
:104A00003A46434638464146E6E7154B9D4240F359
:104A1000F98003F104739D420F4B09DD9C420CDCCD
:104A2000002E85DA06A3D3E900231046194698E73D
:104A30009C42F5DB074B9C4214DD002EF2DC77E74D
:104A40009C7500883CE4377E0000F07F9856000893
:104A5000FFFF3F430000F03FFFFFEF3F0000E03F5C
:104A60000000E041614600225846614BFBF774FBB1
:104A700055A3D3E9002304460D46FBF725FD54A3B7
:104A8000D3E9002306460F4620462946FBF71CFDC6
:104A9000002282468B4620462946564BFBF714FDE2
:104AA00002460B464CA1D1E90001FBF755FB22461B
:104AB0002B46FBF709FD02460B4600204E49FBF74B
:104AC0004BFB22462B468046894620462946FBF76B
:104AD000FBFC02460B4640464946FBF7F5FC40A36B
:104AE000D3E90023FBF7F0FC02460B46504659463B
:104AF000FBF732FB4FF0000A02460B4604460D4618
:104B000030463946FBF72AFB32463B4650468B4639
:104B1000FBF722FB02460B4620462946FBF71CFB0F
:104B2000DDE90267009B0C9A013B13434FF000063E
:104B30004FF000020CBF314B2D4B04460D46DDE912
:104B40000201CDE9002332463B46FBF705FB524606
:104B50005B46FBF7B9FCDDE9022380468946204627
:104B60002946FBF7B1FC02460B4640464946FBF797
:104B7000F5FA32463B468046894650465946FBF791
:104B8000A3FC04460D460B46024649464046CDE985
:104B90000245FBF7E3FA1A4B824699420F460E464E
:104BA00040F3ED8201F13F4303F5E003034300F0DE
:104BB000E7810DA3D3E90023DDE90001FBF784FCC5
:104BC00009A3D3E90023CCE6000000604715F73FB6
:104BD00044DF5DF80BAE543E555555555555D53F00
:104BE000FE822B654715F73F9C7500883CE4377EB5
:104BF0000000F03F0000D03F0000E03F0000F0BFA9
:104C0000FFFF8F40D44B002209EA030343B9584603
:104C10006146D24BFBF758FC6FF0340283460C46DA
:104C20002315A3F2FF3313440B93CD4BC4F31304AA
:104C300044F07F559C4245F4401508DDC94B9C4229
:104C400040F39C810B9BA5F5801501330B93002647
:104C5000F3000D93C44B584603EBC603D3E900346D
:104C600029461A46CDE908342346FBF775FADA4699
:104C70002B465246CDE90E01DDE90801FBF76EFA3D
:104C800002460B460020B949FBF748FD02460B4699
:104C9000CDE91001DDE90E01FBF716FCCDE90601B7
:104CA000DDE90634CDE9043400230022AB466D1063
:104CB00045F00055049305F50025DDE9048905EB71
:104CC00086434046494614461D46FBF7FDFB024617
:104CD0000B46DDE90E01FBF73FFADDE90823064646
:104CE0000F4620462946FBF737FA02460B46504648
:104CF0005946FBF731FA42464B46FBF7E5FB0246C5
:104D00000B4630463946FBF727FADDE91023FBF75F
:104D1000DBFBDDE90623CDE9080110461946FBF768
:104D2000D3FB7BA3D3E9002304460D46FBF7CCFB62
:104D300079A3D3E90023FBF711FA22462B46FBF7B0
:104D4000C3FB77A3D3E90023FBF708FA22462B46DF
:104D5000FBF7BAFB74A3D3E90023FBF7FFF9224664
:104D60002B46FBF7B1FB72A3D3E90023FBF7F6F95F
:104D700022462B46FBF7A8FB6FA3D3E90023FBF7E2
:104D8000EDF9224606460F462B4620462946FBF7FC
:104D90009BFB02460B4630463946FBF795FB044623
:104DA0000D46DDE9060142464B46FBF7D7F9DDE942
:104DB0000823FBF789FB22462B46FBF7CFF9424637
:104DC00006460F464B4640464946FBF77DFB002210
:104DD000674B82468B46FBF7C1F932463B46FBF7F1
:104DE000BDF9049C0D4622460B4640464946FBF75A
:104DF0006BFB002280468946204629465C4BFBF728
:104E0000ABF952465B46FBF7A7F902460B46304624
:104E10003946FBF7A1F9DDE90623FBF755FB2246EE
:104E200006460F46DDE908012B46FBF74DFB02461F
:104E30000B4630463946FBF791F906460F460246C7
:104E40000B4640464946FBF789F93DA3D3E90023C9
:104E5000049C0D462046FBF737FB42464B46CDE906
:104E6000060120462946FBF777F902460B463046F5
:104E70003946FBF771F934A3D3E90023FBF724FB90
:104E800033A3D3E9002306460F4620462946FBF705
:104E90001BFB02460B4630463946FBF75FF90D9A7D
:104EA000344B1344D3E90023FBF758F980460B98A1
:104EB0008946FBF79FFA04460D460D9A2E4BDDE915
:104EC00006011344D3E9006742464B46FBF746F917
:104ED00032463B46FBF742F922462B46FBF73EF9AA
:104EE000DDF810A022462B4650468B46FBF734F9DE
:104EF00032463B46FBF730F9DDE90623FBF72CF998
:104F000002460B464046494608E600BFAFF3008024
:104F1000EF4E454A287ECA3F65DBC9934A86CD3F9E
:104F200001411DA96074D13F4D268F515555D53F84
:104F3000FFAB6FDBB66DDB3F033333333333E33F1C
:104F4000000000E009C7EE3FFD033ADC09C7EE3F71
:104F5000F5015B14E02F3EBE0000F07F00004043EF
:104F60008E98030079B60B00A05600080000F03FB1
:104F700000000840C0560008B0560008012667E649
:104F80009DA3D3E9002340464946FBF7E7F82246B4
:104F9000CDE904012B4650463946FBF7DDF80246C1
:104FA0000B46DDE90401FBF71FFD00287FF401AE8D
:104FB000A54A26F00043934240F303814FF4801A40
:104FC00000201B15A3F2FE334AFA03F33344C3F364
:104FD0000A529E4FA2F2FF321741C3F3130A23EA8B
:104FE0000701C2F114024AF4801A0B464AFA02FA87
:104FF000002E024629462046B8BFCAF1000AFBF738
:10500000ABF8CDE90201DDE90201002442464B463E
:10501000FBF7A4F87AA3D3E9002320460D46FBF75B
:1050200053FADDE9022306460F4620462946FBF7E0
:1050300093F802460B4640464946FBF78DF872A3AB
:10504000D3E90023FBF740FA71A3D3E9002380469C
:10505000894620462946FBF737FA02460B4640466A
:105060004946FBF77BF804460D4602460B463046A0
:105070003946FBF773F832463B4680468946FBF7D4
:105080006BF802460B4620462946FBF765F8424678
:1050900006460F464B4640464946FBF715FA5EA3C7
:1050A000D3E9002304460D46FBF70EFA5CA3D3E9CF
:1050B0000023FBF751F822462B46FBF705FA5AA3CB
:1050C000D3E90023FBF74AF822462B46FBF7FCF90D
:1050D00057A3D3E90023FBF73FF822462B46FBF703
:1050E000F3F955A3D3E90023FBF738F822462B4602
:1050F000FBF7EAF902460B4640464946FBF72CF817
:1051000004460D4602460B4640464946FBF7DCF98D
:105110000022CDE902014FF0804320462946FBF7EB
:105120001BF802460B46DDE90201FBF7F7FA3246AF
:1051300004460D463B4640464946FBF7C5F9324614
:105140003B46FBF70BF802460B4620462946FBF789
:1051500003F842464B46FAF7FFFF02460B46002093
:105160003B49FAF7F9FF01EB0A54B4F5801F2BDA3B
:10517000524600F0B9F9DDE90023FFF7F2BB354BE9
:1051800021F000479F427FF713AF334B0B4403439B
:105190000BD02BA3D3E90023DDE90001FBF794F941
:1051A00027A3D3E90023FFF7DCBB22462B46FAF7FF
:1051B000D3FF42464B46FBF70DFC00283FF4F8AE08
:1051C000E7E74FF0000A1EE72146D4E74FF0000B57
:1051D000DFF87CC0FFF7B0BBDDE902BCFFF7ACBB7A
:1051E00038464146FFF7BFBB0092FFF77FBB002365
:1051F000FFF769BBAFF30080FE822B654715973C34
:1052000000000000432EE63FEF39FAFE422EE63F53
:10521000396CA80C615C20BED0A4BE726937663EB2
:10522000F16BD2C541BDBB3E2CDE25AF6A56113FA6
:1052300093BDBE166CC1663F3E5555555555C53F8D
:1052400059F3F8C21F6EA5010000E03FFFFF0F00F9
:105250000000F03FFFCB904000346F3FDFF850C1BB
:105260002DE9F0413CEA010C0B4606460D460A4684
:10527000074604460ED10246FBF726F902460B46C6
:1052800030462946FAF76AFF06460D46304629465B
:10529000BDE8F08100290DDC21F0004C5CEA070735
:1052A000F4D039B10246FAF757FF02460B46FBF736
:1052B00035FAE9E7121574D00020D507C3F31303BC
:1052C00043F480115EBFE30F640003EB4101E30F81
:1052D000A2F2FF3603EB4103162501464FF40012FC
:1052E000761064008F189F42DEBFDB1BB918801850
:1052F0005B00013D03EBD4734FEA52024FEA4404D2
:10530000F0D12A464FF0200E4FF000478B4207EBBA
:10531000050C02DC13D1A44511D8BCF1000F0CEB35
:10532000070543DA002D41DB01F101085B1A414614
:10533000A44588BF03F1FF33A4EB0C043A445B009F
:10534000BEF1010E03EBD4734FEA57074FEA440452
:10535000DCD1234306D0541C0BBF7246013201300E
:1053600022F001024310C1074FEA520203F17F53BA
:1053700003F5001348BF42F00042104603EB06510C
:1053800082E7E30A15396405002BFAD0DE020AD55C
:10539000C2F1200024FA00F0551E944003434A1B3A
:1053A0008AE71146F0E75B000132EFE78846BDE788
:1053B0000000F07F21F00041704741F0004000F50F
:1053C0008010C00F7047000000200149704700BFE7
:1053D0000000F87FC1F30A5CF7B5ACF2FF37132F7A
:1053E00002460B460C4605464FEAD17659DC002FA3
:1053F0002ADA21F00041014322D0C3F31301014313
:105400004D420D4336495C0C2D0B05F40025640418
:1054100001EBC60145EA0403D1E9004520462946CF
:10542000FAF79CFECDE90001DDE900012B4622469A
:10543000FAF792FE21F0004343EAC67102460B469A
:105440001046194603B0F0BD2649394103EA010070
:105450001043F5D04B0804EA510152EA01050CD083
:1054600024EA03034FF48024132F0CBF4FF00045B0
:10547000002544FA07F743EA07041949234601EBDC
:10548000C6062A46D6E9004520462946FAF766FEB2
:10549000CDE90001DDE9000122462B46FAF75CFE6A
:1054A000CCE7332F05DDB7F5806FC9D1FAF756FE8B
:1054B000C4E74FF0FF31ACF2134C21FA0CF1084273
:1054C000BED010EA510218BF4FF080454FEA510399
:1054D0001EBF20EA030345FA0CFC43EA0C05CCE7A7
:1054E000D0560008FFFF0F00F8B5C1F30A56044676
:1054F0000D4617460B4696B921F00043034339D0B9
:10550000354B0022FAF7E0FF344B04469F420D462C
:105510000FDA2DA3D3E90023FAF7D6FF06E040F215
:10552000FF7296420AD10246FAF718FE04460D466B
:1055300020E00B46C1F30A51A1F1360640F2FE729B
:10554000B91991420EDD22A3D3E9002305F00044EE
:1055500044F0FC4141F45F1141F41051204841F006
:105560003C01D9E7002908DD23F0FF4323F4E003E1
:1055700043EA015520462946F8BD11F1350F16DAE8
:105580004CF250339F424FEAD57308DD154C144856
:1055900063F3DF740EA3D3E900232146BCE7124C6A
:1055A000124863F3DF7408A3D3E90023F5E723F07F
:1055B000FF43363123F4E00343EA015520462946F0
:1055C00000220B4BA8E700BF59F3F8C21F6EA501DC
:1055D0009C7500883CE4377E00005043B03CFFFFE0
:1055E0009C7500883CE4377E1F6EA50159F3F8C214
:1055F0000000903C014B1868704700BF100000206D
:1056000070B500260C4D0D4C641BA410A64209D1A8
:1056100000F022F800260A4D0A4C641BA410A64292
:1056200005D170BD55F8043B98470136EEE755F8B3
:10563000043B98470136F2E7E0560008E0560008C0
:10564000E0560008E456000803460244934200D1A5
:10565000704703F8011BF9E7F8B500BFF8BC08BCB8
:105660009E467047F8B500BFF8BC08BC9E46704720
:105670000000000000000000010203040607080902
:1056800000000000010203040203040506070809E4
:105690000A0B0C0D0E0F101000000000000000009F
:1056A000000000000000F03F000000000000F83F94
:1056B00000000000000000000000004003B8E23FCE
:1056C000000000000000000006D0CF43EBFD4C3E80
:1056D000000000000000304300000000000030C364
:0456E0003501000888
:0456E40011010008A8
:1056E8000024F4000100000010000000FF0000008A
:1056F800140000200000000000000000000000006E
:105708000000000000000000000000000000000091
:105718000000000000000000000000000000000081
:105728000000000000000000000000000000000071
:105738000000000000000000000000000000000061
:105748000000000000000000000000000000000051
:04575800000000004D
:04000005080029B115
:00000001FF
