:020000040800F2
:100000000050002081090008390900083B09000858
:100010003D0900083F0900084109000800000000F0
:10002000000000000000000000000000430900087C
:1000300045090008000000004709000849090008B8
:10004000C9090008C9090008C9090008C909000848
:10005000C9090008C9090008C9090008C909000838
:10006000C9090008C9090008C90900084D090008A4
:10007000C9090008C9090008C9090008C909000818
:10008000C9090008C9090008C9090008C909000808
:10009000C9090008C9090008C9090008C9090008F8
:1000A000C9090008C9090008C9090008C9090008E8
:1000B000C909000859090008C9090008C909000848
:1000C000C9090008C9090008C9090008C9090008C8
:1000D000C90900086509000871090008C909000874
:1000E000C9090008C9090008C90900080000000082
:1000F0000000000000000000000000000000000000
:0C01000000000000000000005FF808F1A3
:10010C0010B5054C237833B9044B13B10448AFF345
:10011C0000800123237010BD0C00002000000000A3
:10012C00A825000808B5034B1BB103490348AFF3DE
:10013C00008008BD0000000010000020A825000869
:10014C0010B51422002494B021460DEB02000D943E
:10015C000F9402F01BFA1022214601A802F016FAA5
:10016C004FF4803309220C940224CDE90A23CDE903
:10017C00114301224FF4E0130AA80E92109213932C
:10018C0001F0C6F808B172B6FEE70F23CDE90534CD
:10019C004FF480630790CDE90830214605A801F0A3
:1001AC008DFA08B172B6FEE74FF4004301A8019432
:1001BC00039301F03FFB08B172B6FEE714B010BD1B
:1001CC0080B5A94C8EB000F01FFCFFF7B9FF1022D0
:1001DC00002107A802F0DAF9A369002243F010030A
:1001EC00A361A3694FF4005103F010030193019B29
:1001FC00A3699E4843F02003A361A369002503F083
:10020C0020030293029BA369012743F00403A3611B
:10021C00A369022603F004030393039BA36943F031
:10022C000803A361A36903F008030493049B00F083
:10023C0099FF00224FF4C0418D4800F093FF00223B
:10024C004FF400418B4800F08DFF4FF4005387486A
:10025C0007A9CDE90737CDE9095600F0A7FE4FF401
:10026C00C043834807A9CDE90737CDE9095600F00B
:10027C009DFE4FF400437F4807A9CDE90737CDE930
:10028C00095600F093FE63692A463B436361636938
:10029C0029463B400B200093009B00F00DFD0B20EA
:1002AC0000F03CFD744C754B204623604FF480737A
:1002BC00A3604FF46023CDE9075509952773257585
:1002CC00E3616560266100F067FC08B172B6FEE779
:1002DC00CDE90707099007A9204600F0B9FB08B142
:1002EC0072B6FEE7204607A9089600F0B1FB03465C
:1002FC0008B172B6FEE76248624AC0E900234FF4C7
:10030C007A73836000F0DCFF034608B172B6FEE737
:10031C005D48DFF89CE15D4AC0E90233C0E900E2C8
:10032C004FF48042C0E90633C0E90423036200F0B5
:10033C001FFF034608B172B6FEE74FF482725448B1
:10034C00544F4FF4007CC0E90072C0E9023308221C
:10035C00C0E90433C0E9083383620A23C0E906C24A
:10036C00C36201F0DFFA054608B172B6FEE7472713
:10037C004FF6FF76484C0146102207A802F006F90A
:10038C00464B2046CDE90555C4E90037C4E9036561
:10039C00C4E90555A56001F071FC08B172B6FEE721
:1003AC004FF48053204607A9079301F02BFE08B1A8
:1003BC0072B6FEE7CDE9050005A9204601F0B6FEB0
:1003CC00044608B172B6FEE70146CDE905001022DD
:1003DC0007A802F0DBF83248324BC0E90246C0E90C
:1003EC0000370461846101F0A1FC08B172B6FEE72C
:1003FC0000232B4805A9CDE9053301F097FE0246F1
:10040C0008B172B6FEE701230790CDE908300A90D7
:10041C0007A9234801F068FD054608B172B6FEE74E
:10042C001C220146CDE905000DEB020002F0AEF8EE
:10043C0047231D4C1D4E2046C4E9006344F620633F
:10044C00A560C4E90335A56101F044FC08B172B69E
:10045C00FEE7CDE9050005A9204601F067FE02463E
:10046C0040B372B6FEE700BF00100240001001401E
:10047C00000C01400008014028000020002401402D
:10048C00F0000020003000409C000020801A060084
:10049C00FC0000200030014054010020002C0140E1
:1004AC009C01002000040040E401002000080040F2
:1004BC000058004060254FF47A7309900B9007A9FF
:1004CC002046CDE9075301F089FC08B172B6FEE76E
:1004DC000422204607A901F081FC08B172B6FEE7A0
:1004EC000822204607A901F079FC08B172B6FEE794
:1004FC000C22204607A901F071FC054608B172B622
:10050C00FEE7204600F072F94FF416531148124CD6
:10051C00C0E90255C0E900430C240561C0E905455A
:10052C00C56101F083FE034608B172B6FEE74FF4D5
:10053C0061420A480A49C0E90233C0E90012C0E925
:10054C000434C0E9063301F071FE08B172B6FEE75F
:10055C00FEE700BF2C020020003801407002002092
:10056C000044004072B6FEE70E4B82B09A6942F02E
:10057C0001029A619A6902F001020092009ADA690A
:10058C0042F08052DA61DB69074A03F08053019331
:10059C00019B536823F0E06343F00073536002B097
:1005AC00704700BF001002400000014030B5054606
:1005BC0087B01022002102A801F0E8FF2A681D4B29
:1005CC009A4234D103F56C439A691B4842F4007289
:1005DC009A619A6902A902F400720092009A9A69CF
:1005EC00164C42F004029A619B6903F004030193D8
:1005FC00019B0323CDE9023300F0D8FC0023104A01
:10060C008021C4E900234FF48072C4E903124FF433
:10061C008062A360C4E905234FF400532046E361D4
:10062C0000F0A0FB08B1FFF79DFF2C62656207B0DC
:10063C0030BD00BF002401400008014058000020DC
:10064C000800024010B5044686B01022002102A812
:10065C0001F09CFF2268114B9A421DD1104C4FF4B3
:10066C004062A3690F4843F00803A361A36902A980
:10067C0003F008030093009B1223CDE9022303230C
:10068C00059300F093FCE36943F48003E361E369B1
:10069C0003F480030193019B06B010BD0058004089
:1006AC0000100240000C014030B51024054687B004
:1006BC002246002102A801F069FF2A68184B9A42D1
:1006CC002CD103F560439969164841F48051996126
:1006DC00996901F480510091009A9969282241F09E
:1006EC00080199619B6902A903F008030193019B1E
:1006FC000223CDE902230323059300F057FC0023CA
:10070C00084802A9CDE90333029400F04FFC064AD5
:10071C00536843F0E06343F00103536007B030BD0E
:10072C0000300140000C0140000001400268084B01
:10073C0082B09A420AD103F564439A6942F400628A
:10074C009A619B6903F400630193019B02B07047AB
:10075C00002C014010B5044686B01022002102A8DE
:10076C0001F014FF2268154B9A4224D103F5033390
:10077C00DA69002442F00202DA61DA69104802F008
:10078C0002020092009A9A6902A942F004029A614C
:10079C009B69049403F004030193019B4023CDE96E
:1007AC00023400F003FC1D202246214600F084FA9E
:1007BC001D2000F0B3FA06B010BD00BF00040040CD
:1007CC00000801400268084B82B09A420AD103F536
:1007DC000233DA6942F00402DA61DB6903F00403E4
:1007EC000193019B02B070470008004010B504460D
:1007FC0086B01022002102A801F0C8FE22680D4B21
:10080C009A4214D103F502339A690B4842F008025C
:10081C009A619B694FF4707203F008030193019B7A
:10082C00022302A9CDE90223059300F0BFFB06B019
:10083C0010BD00BF00080040000C0140102210B594
:10084C00044688B00DEB0200002101F09FFE2368E6
:10085C00324A934231D1324B4FF400719A6931488C
:10086C0042F480429A619A69002402F48042009218
:10087C00009A9A6942F004029A619B6903F004039E
:10088C000193019B0223CDE90413032304A90793CD
:10089C0000F08CFB4FF48063224804A9CDE90434AA
:1008AC00069400F083FB25202246214600F004FA32
:1008BC00252000F033FA08B010BD1B4A9342FAD140
:1008CC00174B1848DA6904A942F40032DA61DA6984
:1008DC00002402F400320292029A9A6942F0040255
:1008EC009A619B69042203F004030393039B022384
:1008FC00CDE904230323079300F058FB0823094890
:10090C0004A9CDE90434069400F050FB26202246BD
:10091C00214600F0D1F92620CBE700BF003801407A
:10092C00001002400008014000440040FEE7FEE7D2
:10093C00FEE7FEE7FEE770477047704700F076B8B9
:10094C00014800F0A1BA00BF58000020014801F096
:10095C00BAB800BF9C010020014801F0F3BC00BFF5
:10096C002C020020014801F0EDBC00BF70020020F9
:10097C00704700000C480D490D4A002302E0D45882
:10098C00C4500433C4188C42F9D30A4A0A4C0023CD
:10099C0001E013600432A242FBD3FFF7E9FF01F040
:1009AC00D1FDFFF70DFC7047000000200C0000206B
:1009BC00F42500080C000020B8020020FEE700001F
:1009CC0038B50E4B054618784FF47A73B3FBF0F339
:1009DC000B4A1068B0FBF3F000F0AEF9044658B9BE
:1009EC000F2D09D8024629464FF0FF3000F064F96C
:1009FC002046044B1D6038BD0120FCE7040000209C
:100A0C000000002008000020074A08B513680320E6
:100A1C0043F01003136000F03DF90F20FFF7D0FFF7
:100A2C00FFF7A2FD002008BD00200240034A044B42
:100A3C0011681B780B441360704700BFB402002090
:100A4C0004000020014B1868704700BFB40200205E
:100A5C00002373B5019390F824300446012B6CD01D
:100A6C00012380F824304D680268062D086805EBD8
:100A7C00850322D81F26556B053B9E4025EA0605AB
:100A8C0000FA03F32B43536309288B6800EB4005F2
:100A9C004FF0070129D9D6681E3DA94026EA01016D
:100AAC00AB400B43D360A0F11003012B25D90020E0
:100ABC00002384F8243002B070BD0C2D4FF01F05BC
:100ACC0009D8166B233B9D4026EA050500FA03F373
:100ADC002B431363D8E7D66A413B9D4026EA0505B4
:100AEC0000FA03F32B43D362CEE71069A94020EA46
:100AFC000101AB400B431361D9E7114B9A4216D15C
:100B0C0093681B02D3D49368102843F400039360BA
:100B1C00CDD10C4B0C4A1B68B3FBF2F20A235343A6
:100B2C000193019B002BC2D0019B013BF8E7A36A08
:100B3C00012043F02003A362BAE70220BBE700BF09
:100B4C00002401400000002040420F0038B503682B
:100B5C0004469A68D10701D4002038BD9A6822F067
:100B6C0001029A60FFF76EFF054623689B68DB075E
:100B7C00F2D5FFF767FF401B0228F6D923689B6864
:100B8C00DA07F2D5A36A012043F01003A362E36AEB
:100B9C0043F00103E362E0E7F8B5044600286ED0A9
:100BAC00836A23B9C36280F82430FFF7FFFC204628
:100BBC00FFF7CCFFA36A13F0100362D1002860D1B9
:100BCC00A26AE569616822F4885222F0020242F0BE
:100BDC0002022943A568A262227BB5F5807F41EA17
:100BEC00420137D0012D14BF00274FF48077267DAA
:100BFC00012E06D182BBA269013A47EA423646F47D
:100C0C0000672268B5F5807F566826F4694646EA87
:100C1C000706566097681D4E06EA070646EA010667
:100C2C00966001D0012D02D12369013B1B05D56AC9
:100C3C0025F470052B43D3629268154B13409942EF
:100C4C0013D10023E362A36A23F0030343F00103EF
:100C5C00A362F8BD2F46CAE7A26A42F02002A26244
:100C6C00E26A42F00102E262CBE7A36A23F01203CC
:100C7C0043F01003A362E36A43F00103E362012033
:100C8C00E7E7A36A43F01003A362F8E7FDF7E1FF7F
:100C9C00FE0E1FFF07490302CA6803F4E06322F447
:100CAC00E0621204120C134343F0BF6343F40033AD
:100CBC00CB60704700ED00E0164B30B5DC68C4F338
:100CCC000224C4F10703251D042B28BF0423062D81
:100CDC004FF0FF3598BF002405FA03F388BF033C9F
:100CEC0021EA0303A34005FA04F422EA04020028D3
:100CFC0043EA0203ACBF00F16040074A4FEA03131A
:100D0C00DBB2ABBF00F5614000F00F0080F80033A0
:100D1C00135430BD00ED00E014ED00E0002808DBBA
:100D2C000123420900F01F0003FA00F0014B43F8C5
:100D3C002200704700E100E00138B0F1807F0AD258
:100D4C00F021064B064A586082F823100020072237
:100D5C0098601A6070470120704700BF10E000E0F7
:100D6C0000ED00E010B520B314220168124B0B44C7
:100D7C00B3FBF2F39B000364104B0A68C363D0E926
:100D8C0001342343C46822F47F522343046922F0C4
:100D9C00300223434469234384692343C4692343B6
:100DAC0013430B604FF48072002302848363184654
:100DBC0010BD0120FCE700BFF8FFFDBF00000240A2
:100DCC0090F82130022B06D004238363002380F893
:100DDC0020300120704703681A6822F00E021A6056
:100DEC001A6822F001021A600123D0E90F218B400E
:100DFC0053604FF4807303840020704708B590F85B
:100E0C002130022B03D004238363012008BD036827
:100E1C001A6822F00E021A601A6822F001021A6097
:100E2C00174A93421CD0143293421BD01432934273
:100E3C001AD0143293421AD0143293421AD014326C
:100E4C0093420CBF4FF480134FF080730D4A5360E4
:100E5C004FF480730384436B7BB198470020D5E734
:100E6C000123F3E71023F1E74FF48073EEE74FF41F
:100E7C008053EBE74FF48033E8E71846C6E700BF32
:100E8C00080002400000024070B40425C66B026CDE
:100E9C003468036895402542196832D04D0730D527
:100EAC001A6896065EBF1A6822F004021A603D4A60
:100EBC00934219D01432934218D01432934217D063
:100ECC001432934217D01432934217D014329342F7
:100EDC000CBF4FF480034FF08063334A5360C36AF6
:100EEC00002B5CD070BC18470423F6E74023F4E7D2
:100EFC004FF48063F1E74FF48043EEE74FF4802327
:100F0C00EBE702259540254235D08D0733D51A687D
:100F1C00940606D41A6822F00A021A60012280F89C
:100F2C002120204A934219D01432934218D0143203
:100F3C00934217D01432934217D01432934217D0E5
:100F4C00143293420CBF4FF400134FF00073164A47
:100F5C005360002380F82030836AC1E70223F6E750
:100F6C002023F4E74FF40073F1E74FF40053EEE75E
:100F7C004FF40033EBE70825954025420FD00907C5
:100F8C000DD5196821F00E011960012303FA02F244
:100F9C00726083634FF480730384036BA0E770BCAF
:100FAC00704700BF08000240000002402DE9F74FD7
:100FBC0000221646644BDFF8A0C1DFF8A0E10D68F3
:100FCC0035FA06F402D103B0BDE8F08F4FF00108FA
:100FDC0008FA06F805EA080438EA05057CD14D68DC
:100FEC00032D07D8013D022D00F28880DFE805F0C3
:100FFC00969BA100122D00F099806FD8112D00F056
:10100C008F80FF2C98BF82464FF00F0988BF00F1EC
:10101C00040A4FEA8605DAF8008088BF203D09FAF9
:10102C0005FB28EA0B0802FA05F548EA0505CAF89B
:10103C000050D1F804A01AF0805F4DD0434F26F039
:10104C000308BD6908F1804845F00105BD61BD6923
:10105C0008F5803805F00105019506F0030B019D9C
:10106C004FEA8B0BD8F8085009FA0BF925EA090955
:10107C00374DA84261D005F58065A8425FD005F5D3
:10108C008065A8425DD005F58065A8420CBF03259C
:10109C00042505FA0BF545EA0905C8F808501D6842
:1010AC001AF4803F14BF2543A5431D605D681AF4F4
:1010BC00003F14BF2543A5435D609D681AF4801F53
:1010CC0014BF2543A5439D60DD681AF4001F14BFAF
:1010DC002C4325EA0404DC60013670E71D4FBD4249
:1010EC000CD017D8DFF878904D4507D009F570294A
:1010FC004D4503D0A9F580194D4582D18A68D2B1EE
:10110C00012A08BFC0F810804FF0080218BFC0F8C1
:10111C00148076E76545F1D07545EEE7CA6870E74F
:10112C00CA6804326DE7CA6808326AE7CA680C32CA
:10113C0067E7002265E7042263E70025A9E701259C
:10114C00A7E70225A5E700BF0004014000100240FC
:10115C000008014000002210000031100000321085
:10116C00000012100AB1016170470904FBE700008E
:10117C0070B5044608B9012070BD90F83D3003F0FD
:10118C00FF021BB980F83C20FFF75CFA242384F89B
:10119C003D3023681A6822F001021A601A6842F482
:1011AC0000421A601A6822F400421A6000F022FB16
:1011BC003F4A6368934294BF3E4A3F4A90428CBF79
:1011CC0000220122002AD6D13C4E2268B0FBF6F652
:1011DC005168013821F03F01314351603449156A9F
:1011EC008B4281BF4FF4967171434FF47A76B1FB09
:1011FC00F6F125F03F0594BF711C013129431162B2
:10120C00D1692B4D21F44F41AB4221F0FF0132D873
:10121C005B00B0FBF3F0431C40F6FC70034242D081
:10122C00C3F30B030B43D3611168D4E9073021F0EE
:10123C00C00103430B4313609168D4E9030321F409
:10124C000341034321F0FF010B439360D168D4E9C0
:10125C00053021F0FF0103430B43D36013680020DA
:10126C0043F0010313602023206484F83D30206395
:10127C0084F83E0080E7A56855B903EB4303B0FB47
:10128C00F3F30133C3F30B037BB143F40043C9E71E
:10129C0019256B43B0FBF3F30133C3F30B0323B1F9
:1012AC0043F44043BEE70423BCE70123BAE700BF85
:1012BC00A08601007F841E00FF083D0040420F0005
:1012CC0038B5044608B34CF6CC4203681A6045F2B4
:1012DC0055521A6042685A6082689A60FFF7B2FBF6
:1012EC0005462268D06810F0030003D14AF6AA2301
:1012FC00136038BDFFF7A6FB401B2728F1D92368E4
:10130C00DB689B07EDD00320F3E70120F1E7000039
:10131C002DE9F341054638B30368DB0710D42B687D
:10132C009F075ED42B68190700F195802B685A072C
:10133C0000F1BF80E869002840F02C81002029E0F2
:10134C008F4C636803F00C03042B07D0636803F025
:10135C000C03082B0AD16368DE0307D523689C03B2
:10136C00DDD56B68002BDAD1012013E06B68B3F587
:10137C00803F12D1236843F480332360FFF762FB74
:10138C00064623689803CAD4FFF75CFB801B6428CD
:10139C00F7D9032002B0BDE8F0819BB9236823F490
:1013AC0080332360236823F480232360FFF74AFBF8
:1013BC00064623689903B2D5FFF744FB801B6428CB
:1013CC00F7D9E6E7B3F5A02F236803D143F48023C4
:1013DC002360CFE723F480332360236823F4802336
:1013EC00CBE7674C636813F00C0F07D0636803F00E
:1013FC000C03082B10D16368DA030DD423689B0708
:10140C0002D52B69012BAFD123686A6923F0F8034D
:10141C0043EAC203236085E72A695A4B6AB1012269
:10142C001A60FFF70FFB064623689F07ECD4FFF703
:10143C0009FB801B0228F7D9ABE71A60FFF702FB08
:10144C000646236898077FF56DAFFFF7FBFA801B04
:10145C000228F6D99DE7AA69494E4B4BDAB1012215
:10146C001A60FFF7EFFA0446736A9B070DD54FF429
:10147C00FA52464B1B68B3FBF2F3019300BF019B7E
:10148C005A1E0192002BF9D150E7FFF7DBFA001B33
:10149C000228E9D97DE71A60FFF7D4FA0446736A8B
:1014AC009F077FF543AFFFF7CDFA001B0228F6D953
:1014BC006FE7334CE369D80024D40127E36943F088
:1014CC008053E361E36903F080530093009B304E3B
:1014DC003368D90518D5EB68012B26D1236A43F064
:1014EC0001032362FFF7AEFA41F288380646236AFD
:1014FC009B073FD5002F3FF41DAFE36923F08053CA
:10150C00E36117E70027E2E7336843F48073336045
:10151C00FFF798FA80463368DA05DCD4FFF792FAC5
:10152C00A0EB08006428F6D933E7ABB9236A41F283
:10153C00883823F001032362236A23F00403236217
:10154C00FFF780FA0646236A9807D3D5FFF77AFA95
:10155C00801B4045F7D91CE7052B236A03D143F0C8
:10156C0004032362BAE723F001032362236A23F006
:10157C000403B6E7FFF766FA801B4045B7D908E7C6
:10158C000010024000004242800442420000002051
:10159C00007000402A4B5A681C4602F00C02082AC4
:1015AC003DD00023274E022833602BD1FFF74AFA97
:1015BC000746236899011FD42B6AB3F5803F05D1E8
:1015CC006268A96822F400320A436260696A626840
:1015DC000B4322F474121343636001233360FFF74F
:1015EC0031FA054623689A013FF5A8AEFFF72AFAAF
:1015FC00401B0228F6D9CCE6FFF724FAC01B0228C0
:10160C00D7D9C6E6FFF71EFA054623689B017FF57E
:10161C0095AEFFF717FA401B0228F6D9B9E6012858
:10162C003FF4B8AE5B682A6A03F4803191427FF4D0
:10163C009BAE6A6A03F4701393423FF47FAE93E659
:10164C00001002406000424230B5184B87B002AC2B
:10165C0003F11005224618685968083303C2AB42DF
:10166C001446F7D140F201231149ADF804304B6810
:10167C0003F00C02082A17D1C3F3834206A80244D4
:10168C00DB0312F8102C0CD54B680A48C3F340430B
:10169C00504306AA134413F8143CB0FBF3F007B004
:1016AC0030BD05485043FAE70248F8E7D825000852
:1016BC000010024000127A0000093D002DE9F041B3
:1016CC000D46044610B90120BDE8F081444A136868
:1016DC0003F007038B4228D321688E0730D4CA0746
:1016EC0043D43F4A136803F00703AB4265D8226822
:1016FC003C4D12F0040F6CD1130706D56B682269B0
:10170C0023F4605343EAC2036B60FFF79DFF6B68E1
:10171C00354AC3F30313D35CD840344B1860344BB5
:10172C001868FFF74DF90020CEE7136823F0070384
:10173C000B431360136803F007038B42C3D1CBE751
:10174C00284B11F0040F1EBF5A6842F4E0625A6035
:10175C00080742BF5A6842F460525A605A68A0683F
:10176C0022F0F00202435A60B9E762681D4E012A6A
:10177C0033681AD113F4003FA5D0736841F288384E
:10178C0023F0030313437360FFF75CF90746736898
:10179C00626803F00C03B3EB820FA2D0FFF752F98F
:1017AC00C01B4045F3D903208EE7022A02D113F067
:1017BC00007FE1E713F0020FDEE7136823F0070365
:1017CC002B431360136803F00703AB427FF47BAF2A
:1017DC008DE76B68E16823F4E0630B436B608BE788
:1017EC000020024000100240C0250008000000202C
:1017FC0008000020044B054A5B68C3F30223D35C4A
:10180C00034A1068D840704700100240D0250008E9
:10181C0000000020044B054A5B68C3F3C223D35C71
:10182C00034A1068D840704700100240D0250008C9
:10183C000000002003682DE9F341D907054620D5A7
:10184C00354CE369DA0032D40127E36943F0805365
:10185C00E361E36903F080530193019B2F4E3368DE
:10186C00DB0526D5236A13F4407336D1236A6A68E4
:10187C0023F44073134323621FB1E36923F08053B5
:10188C00E3612868830706D52349AB684A6822F4CC
:10189C0040421A434A6010F010001BD01E4AE968FF
:1018AC005368002023F480030B43536012E000279D
:1018BC00D4E7336843F480733360FFF7C3F8804692
:1018CC003368D805CED4FFF7BDF8A0EB0800642828
:1018DC00F6D9032002B0BDE8F0816A6802F44072C8
:1018EC009A42C3D001200E4A236A1060002023F4D0
:1018FC00407110602162D907B8D5FFF7A3F841F207
:10190C0088380646236A9A07B0D4FFF79BF8801BE9
:10191C004045F7D9DDE700BF0010024000700040E1
:10192C004004424210B50446002851D0436A002BB3
:10193C004AD14268B2F5827F00D0C3610023A36212
:10194C0094F8513003F0FF0223B9204684F850205C
:10195C00FEF7AAFE0223226884F851301368A068AF
:10196C0023F040031360636800F4044003F48273B3
:10197C000343E068A16900F400600343206900F0B0
:10198C0002000343606900F00100034301F400709E
:10199C000343E069090C00F038000343206A01F0AE
:1019AC00040100F080000343A06A00F400500343DC
:1019BC0013605160D369002023F40063D3610123C9
:1019CC00606584F8513010BD0023C0E90433B5E7DD
:1019DC000120F8E7036A70B523F001030362036A80
:1019EC00446882690D6822F073022A438D6823F0E3
:1019FC0002032B430A4DA8420BD1CD6823F00803F8
:101A0C002B4324F44074D1E90556354323F00403E9
:101A1C002C43446082614A684263036270BD00BF1C
:101A2C00002C0140036A70B523F480730362036ACF
:101A3C004468C2690D6822F073022A438D6823F44E
:101A4C00007343EA05230B4DA8420DD1CD6823F456
:101A5C00006343EA052324F44054D1E90556354389
:101A6C0023F4806344EA05144460C2614A68C2638B
:101A7C00036270BD002C0140036A30B523F480531F
:101A8C000362036A4468C2690D6822F4E64242EAC2
:101A9C0005228D6823F4005343EA0533064DA84212
:101AAC0002BF4D6924F4804444EA85144460C26149
:101ABC004A680264036230BD002C014070477047D5
:101ACC00704770477047036810B51A690446910750
:101ADC000ED5DA6892070BD56FF002021A6101225B
:101AEC0002779B699B0777D0FFF7EAFF00232377E8
:101AFC0023681A69500710D5DA6851070DD56FF0B5
:101B0C0004021A61022222779B69204613F4407F5B
:101B1C0068D0FFF7D5FF0023237723681A691207D3
:101B2C000FD5DA6810070CD56FF008021A61042281
:101B3C002277DB69204699075AD0FFF7C1FF0023B3
:101B4C00237723681A69D20610D5DA68D0060DD52A
:101B5C006FF010021A6108222277DB69204613F419
:101B6C00407F4BD0FFF7ACFF0023237723681A6923
:101B7C00D10708D5DA68D20705D56FF001022046E7
:101B8C001A61FFF79BFF23681A69100608D5DA68FB
:101B9C00110605D56FF0800220461A6100F0F5FAA7
:101BAC0023681A69520608D5DA68500605D56FF015
:101BBC00400220461A61FFF785FF23681A699106D7
:101BCC0022D5DA6892061FD56FF020022046BDE8B8
:101BDC0010401A6100F0D8BAFFF771FF2046FFF7EA
:101BEC0070FF83E7FFF76BFF2046FFF76AFF92E772
:101BFC00FFF765FF2046FFF764FFA0E7FFF75FFFE5
:101C0C002046FFF75EFFAFE710BD00001A4A0368DD
:101C1C0090420AD0B0F1804F07D0A2F59432904296
:101C2C0003D002F58062904215D14A6823F070030C
:101C3C001343114A90420AD0B0F1804F07D0A2F55D
:101C4C009432904203D002F58062904203D1CA686C
:101C5C0023F4407313434A6923F080031343036056
:101C6C008B68C3620B688362034B984204BF0B6999
:101C7C000363012343617047002C014010B50446F7
:101C8C0030B390F83D3003F0FF021BB980F83C20D4
:101C9C00FEF74CFD0223206884F83D30211DFFF730
:101CAC00B5FF0123002084F8463084F83E3084F8D8
:101CBC003F3084F8403084F8413084F8423084F866
:101CCC00433084F8443084F8453084F83D3010BDFE
:101CDC000120FCE710B5044630B390F83D3003F01A
:101CEC00FF021BB980F83C20FEF76CFD0223206834
:101CFC0084F83D30211DFFF789FF0123002084F873
:101D0C00463084F83E3084F83F3084F8403084F814
:101D1C00413084F8423084F8433084F8443084F8FD
:101D2C00453084F83D3010BD0120FCE710B5044669
:101D3C0030B390F83D3003F0FF021BB980F83C2023
:101D4C00FEF708FD0223206884F83D30211DFFF7C3
:101D5C005DFF0123002084F8463084F83E3084F87F
:101D6C003F3084F8403084F8413084F8423084F8B5
:101D7C00433084F8443084F8453084F83D3010BD4D
:101D8C000120FCE7036A70B523F010030362036AB9
:101D9C00446882690D6822F4E64242EA05228D68A5
:101DAC0023F0200343EA05130B4DA8420DD1CD6857
:101DBC0023F0800343EA051324F44064D1E905566B
:101DCC00354323F0400344EA8504446082614A6849
:101DDC008263036270BD00BF002C014038B590F8DF
:101DEC003C300446012B52D00123082A80F83C30A9
:101DFC003CD006D8C2B1042A27D0002084F83C007D
:101E0C0038BD0C2AF9D10068FFF736FE2368096942
:101E1C00DA6942F40062DA61DA6922F48062DA612A
:101E2C00DA6942EA012230E00068FFF7D3FD23684B
:101E3C0009699A6942F008029A619A6922F00402CF
:101E4C009A619A690A439A61D7E70068FFF79AFF8B
:101E5C00236809699A6942F400629A619A6922F4CA
:101E6C0080629A619A6942EA0122ECE70068FFF706
:101E7C00D9FD23680969DA6942F00802DA61DA6986
:101E8C0022F00402DA61DA690A43DA61B5E702206A
:101E9C00B6E7000070B5046A124E24F00104046227
:101EAC00B0428469056A19D0B0F1804F16D0A6F5FE
:101EBC009436B04212D006F58066B0420ED044F093
:101ECC0001021B0122F0F002DBB2134301F00A0104
:101EDC0025F00A0211438361016270BD24F00304F2
:101EEC002243EEE7002C0140F8B590F83C30044654
:101EFC00012B0E46154679D0012380F83C30F3684F
:101F0C00006806C975B9FFF7C5FF2368B1689A69FF
:101F1C0022F00C029A619A690A439A61002084F8B3
:101F2C003C00F8BD042DB66822D1056A090125F0E4
:101F3C00100505628769D0F820E027F4407C1D036A
:101F4C004CEA022C2CF4704CADB22EF0A00E01F029
:101F5C00A00145EA0C0541EA0E0185610162836925
:101F6C0023F440638361836943EA06268661D5E7DF
:101F7C00082D056A1CD125F480750562C769056AB0
:101F8C0027F0030717431B010902DBB227F0F00708
:101F9C0025F4007501F400711F432943C7610162E8
:101FAC00C36923F00C03C361C3691E43C661B5E763
:101FBC0025F480550562C569076A25F4407545EA24
:101FCC0002251B03090325F470459BB227F4005727
:101FDC0001F400512B433943C3610162C36923F4FB
:101FEC004063C361C36943EA0626DFE7022098E732
:101FFC0010B584680A4324F47F4442EA0322224346
:10200C00826010BD70B590F83C300446012B4FF047
:10201C00020027D0012384F83D00206884F83C306E
:10202C00836823F47F4323F0770383600B68602B72
:10203C004DD032D8402B62D015D8202B03D009D8E4
:10204C0033F0100208D1826822F07002134343F07F
:10205C00070320E0302BF6D00123002084F83D301C
:10206C0084F83C0070BD502BF6D14A68CE68016AEA
:10207C00056A21F00A0125F00105056283690A430E
:10208C0023F0F00343EA061383610262836823F0B2
:10209C00700343F057038360DEE7702B0CD0B3F56D
:1020AC00005FD9D1CB68D1E90121FFF7A1FF2268EC
:1020BC00936843F4804308E0CB68D1E90121FFF732
:1020CC0097FF2268936843F077039360C4E74D68E9
:1020DC00CE68016A21F0100101628269036A22F460
:1020EC00704223F0A00343EA051342EA06328261F0
:1020FC000362836823F0700343F06703CBE74A68FD
:10210C00CE68016A056A21F00A0125F00105056215
:10211C0083690A4323F0F00343EA061383610262E6
:10212C00836823F0700343F04703B4E730B590F8AD
:10213C003C300246012B4FF0020022D0136882F88B
:10214C003D005C680D6824F070042C4398685C605A
:10215C000C4CA3420AD0B3F1804F07D0A4F59434B1
:10216C00A34203D004F58064A34204D1496820F053
:10217C008000014399600123002082F83D3082F8F1
:10218C003C0030BD002C0140704770470368DA6892
:10219C0022F49072DA605A6922F001025A61026BE1
:1021AC00012A02BFDA6822F01002DA60202380F8DC
:1021BC003E3000230363704710B504460368C168C2
:1021CC001A6922F440520A431A6182680069D9687C
:1021DC000243606921F4B05121F00C0102430A431F
:1021EC00DA605A69A16922F440720A435A610E4AB4
:1021FC00934215D1FFF70EFB192343436268206805
:10220C009200B3FBF2F36422B3FBF2F102FB113345
:10221C001B013233B3FBF2F303EB0113836010BDEC
:10222C00FFF7E8FAE8E700BF0038014010B50446B4
:10223C0040B390F83D3003F0FF021BB980F83C200E
:10224C00FEF7FCFA2423226884F83D30D36820463C
:10225C0023F40053D360FFF7AFFF236800201A6903
:10226C0022F490421A615A6922F02A025A61DA6801
:10227C0042F40052DA602023206484F83D3084F864
:10228C003E3010BD0120FCE770477047704708B521
:10229C000023406AC385C384FFF7F8FF08BD70476D
:1022AC0013B590F83E30222B49D18168836AB1F581
:1022BC00805F026833D10169002933D15268C2F3BF
:1022CC00080223F8022BC48D8362013CA4B2C4859E
:1022DC001CBB0368DA6822F02002DA60DA6822F4A8
:1022EC008072DA605A6922F001025A61202280F869
:1022FC003E20026B012A1FD10463DA6822F010021F
:10230C00DA601A68D20605D501941A6801925B68E6
:10231C000193019B818DFFF7C2FF002010E039B9BA
:10232C00016929B95268D2B21A70836A0133CAE7BB
:10233C00526802F07F02F7E7FFF7A7FFEDE70220F4
:10234C0002B010BD036837B51A68044612F00F0FBF
:10235C00D9685D6908D195065FD58D065DD503B04A
:10236C00BDE83040FFF79CBF05F0010001F490750B
:10237C00054352D0D50705D5CB0542BF236C43F09E
:10238C0001032364550704D518B1236C43F00203F1
:10239C002364930704D518B1236C43F0040323641E
:1023AC00150707D501F0200303431EBF236C43F030
:1023BC0008032364236C53B3920604D58B0602D511
:1023CC002046FFF76DFF236820465B69256C03F000
:1023DC00400305F008051D431BD0FFF7D7FE23680B
:1023EC005A69550610D55A69A06B22F040025A6101
:1023FC0050B1534B4363FEF701FD40B1A06B436BEF
:10240C0003B0BDE8304018472046FFF73FFF03B04C
:10241C0030BDFFF73BFF2564F9E7206B012855D150
:10242C00D00653D5CD0651D5002101911A680192E1
:10243C005A680192019A5A6912F040022AD0A06B94
:10244C000268526892B2002AE1D0A58D9542DED97D
:10245C00E2858269202A15D0DA6822F48072DA606B
:10246C005A6922F001025A615A6922F040025A61FB
:10247C00202284F83E202163DA6822F01002DA6010
:10248C00FEF79EFCE38DA18DC91A89B22046FFF799
:10249C0006FFBCE7E18D88B2E18D89B20029B6D088
:1024AC00A18D091A89B20029B1D0D86820F4907096
:1024BC00D860586920F001005861202084F83E0053
:1024CC002263DA6822F01002DA60DFE7100626D504
:1024DC000D0624D594F83D20212A98D1A168226AB2
:1024EC00B1F5805F16D12169A1B932F8021BC1F395
:1024FC00080159602262E28C013A92B2E284002A0D
:10250C0085D1DA6822F08002DA60DA6842F04002A3
:10251C00DA607CE7511C216212785A60EBE75006B6
:10252C007FF575AF4A067FF572AFDA68204622F068
:10253C004002DA60202384F83D30FFF7A5FE66E701
:10254C009B22000870B500260C4D0D4C641BA4108A
:10255C00A64209D100F022F800260A4D0A4C641B51
:10256C00A410A64205D170BD55F8043B984701361E
:10257C00EEE755F8043B98470136F2E7EC250008E6
:10258C00EC250008EC250008F02500080346024461
:10259C00934200D1704703F8011BF9E7F8B500BF6F
:1025AC00F8BC08BC9E467047F8B500BFF8BC08BC28
:0425BC009E46704780
:1025C00000000000000000000102030406070809E3
:1025D00000000000010203040203040506070809C5
:0C25E0000A0B0C0D0E0F10100000000084
:0425EC0031010008B1
:0425F0000D010008D1
:0C25F4000024F4000100000010000000B2
:040000050800098165
:00000001FF
